{
  "transactions": [
    {
      "hash": "0x2ae9c6e6782df3d93723f654d3fa19eacde1dbb67e36b9cf19f048dd30466981",
      "transactionType": "CALL",
      "contractName": null,
      "contractAddress": "0x1284e9d71a87276d05abd860bd9990dce9dd721e",
      "function": "mint(address,address,int24,int24,uint128)",
      "arguments": [
        "0xF66da9dd005192ee584a253b024070c9A1A1F4FA",
        "0xe69228626E4800578D06a93BaaA595f6634A47C3",
        "-60",
        "60",
        "1000000000000000000"
      ],
      "transaction": {
        "from": "0xe69228626e4800578d06a93baaa595f6634a47c3",
        "to": "0x1284e9d71a87276d05abd860bd9990dce9dd721e",
        "gas": "0x63b73",
        "value": "0x0",
        "input": "0x7b4f5327000000000000000000000000f66da9dd005192ee584a253b024070c9a1a1f4fa000000000000000000000000e69228626e4800578d06a93baaa595f6634a47c3ffffffffffffffffffffffffffffffffffffffffffffffffffffffffffffffc4000000000000000000000000000000000000000000000000000000000000003c0000000000000000000000000000000000000000000000000de0b6b3a7640000",
        "nonce": "0x1cc",
        "chainId": "0xaa36a7"
      },
      "additionalContracts": [],
      "isFixedGasLimit": false
    },
    {
      "hash": "0xa6a9722939c321acc3ed995ed6ebbcdd342f79d4c1daa1be7dea0746b70981e9",
      "transactionType": "CALL",
      "contractName": null,
      "contractAddress": "0x1284e9d71a87276d05abd860bd9990dce9dd721e",
      "function": "mint(address,address,int24,int24,uint128)",
      "arguments": [
        "0xF66da9dd005192ee584a253b024070c9A1A1F4FA",
        "0xcBdAE57cd2722fB8e292A876BfC641D8C7faA887",
        "-60",
        "60",
        "2000000000000000000"
      ],
      "transaction": {
        "from": "0xe69228626e4800578d06a93baaa595f6634a47c3",
        "to": "0x1284e9d71a87276d05abd860bd9990dce9dd721e",
        "gas": "0x36762",
        "value": "0x0",
        "input": "0x7b4f5327000000000000000000000000f66da9dd005192ee584a253b024070c9a1a1f4fa000000000000000000000000cbdae57cd2722fb8e292a876bfc641d8c7faa887ffffffffffffffffffffffffffffffffffffffffffffffffffffffffffffffc4000000000000000000000000000000000000000000000000000000000000003c0000000000000000000000000000000000000000000000001bc16d674ec80000",
        "nonce": "0x1cd",
        "chainId": "0xaa36a7"
      },
      "additionalContracts": [],
      "isFixedGasLimit": false
    },
    {
      "hash": "0xa231197d141ad5c241b30e7850e47fd3908614fa3ce4bb55e284497fd6d4c6c3",
      "transactionType": "CALL",
      "contractName": null,
      "contractAddress": "0x1284e9d71a87276d05abd860bd9990dce9dd721e",
      "function": "swap(address,address,bool,int256,uint160)",
      "arguments": [
        "0xF66da9dd005192ee584a253b024070c9A1A1F4FA",
        "0xe69228626E4800578D06a93BaaA595f6634A47C3",
        "true",
        "-100",
        "4295128740"
      ],
      "transaction": {
        "from": "0xe69228626e4800578d06a93baaa595f6634a47c3",
        "to": "0x1284e9d71a87276d05abd860bd9990dce9dd721e",
        "gas": "0x241c8",
        "value": "0x0",
        "input": "0xa12578dc000000000000000000000000f66da9dd005192ee584a253b024070c9a1a1f4fa000000000000000000000000e69228626e4800578d06a93baaa595f6634a47c30000000000000000000000000000000000000000000000000000000000000001ffffffffffffffffffffffffffffffffffffffffffffffffffffffffffffff9c00000000000000000000000000000000000000000000000000000001000276a4",
        "nonce": "0x1ce",
        "chainId": "0xaa36a7"
      },
      "additionalContracts": [],
      "isFixedGasLimit": false
    },
    {
      "hash": "0x4072188757bfe7b73b0a6223c2e22e99e473c945dfd16dc9b56ec7bb6ed05794",
      "transactionType": "CALL",
      "contractName": null,
      "contractAddress": "0xf66da9dd005192ee584a253b024070c9a1a1f4fa",
      "function": "burn(int24,int24,uint128)",
      "arguments": [
        "-60",
        "60",
        "1000000000000000000"
      ],
      "transaction": {
        "from": "0xe69228626e4800578d06a93baaa595f6634a47c3",
        "to": "0xf66da9dd005192ee584a253b024070c9a1a1f4fa",
        "gas": "0x212a3",
        "value": "0x0",
        "input": "0xa34123a7ffffffffffffffffffffffffffffffffffffffffffffffffffffffffffffffc4000000000000000000000000000000000000000000000000000000000000003c0000000000000000000000000000000000000000000000000de0b6b3a7640000",
        "nonce": "0x1cf",
        "chainId": "0xaa36a7"
      },
      "additionalContracts": [],
      "isFixedGasLimit": false
    },
    {
      "hash": "0xc64c44f40ddbe13dacc5f640ea20697c68ea4229002614cc406af4d30103e411",
      "transactionType": "CALL",
      "contractName": null,
      "contractAddress": "0xf66da9dd005192ee584a253b024070c9a1a1f4fa",
      "function": "burn(int24,int24,uint128)",
      "arguments": [
        "-60",
        "60",
        "2000000000000000000"
      ],
      "transaction": {
        "from": "0xcbdae57cd2722fb8e292a876bfc641d8c7faa887",
        "to": "0xf66da9dd005192ee584a253b024070c9a1a1f4fa",
        "gas": "0x23f01",
        "value": "0x0",
        "input": "0xa34123a7ffffffffffffffffffffffffffffffffffffffffffffffffffffffffffffffc4000000000000000000000000000000000000000000000000000000000000003c0000000000000000000000000000000000000000000000001bc16d674ec80000",
        "nonce": "0xf4",
        "chainId": "0xaa36a7"
      },
      "additionalContracts": [],
      "isFixedGasLimit": false
    }
  ],
  "receipts": [
    {
      "status": "0x1",
      "cumulativeGasUsed": "0x1f14c74",
      "logs": [
        {
          "address": "0x3eee766c0d9ca7d1509e2493857449ef65a62cf3",
          "topics": [
            "0xddf252ad1be2c89b69c2b068fc378daa952ba7f163c4a11628f55a4df523b3ef",
            "0x000000000000000000000000e69228626e4800578d06a93baaa595f6634a47c3",
            "0x000000000000000000000000f66da9dd005192ee584a253b024070c9a1a1f4fa"
          ],
          "data": "0x00000000000000000000000000000000000000000000000000137bcdf4999e36",
          "blockHash": "0x140d75db33017cac3723f2bdc2e2ebdbf0d6f5edd352e583832aad740969d8cc",
          "blockNumber": "0x9fc16d",
          "blockTimestamp": "0x69ba8e5c",
          "transactionHash": "0x2ae9c6e6782df3d93723f654d3fa19eacde1dbb67e36b9cf19f048dd30466981",
          "transactionIndex": "0x6c",
          "logIndex": "0xaf",
          "removed": false
        },
        {
          "address": "0xdabc71b8cbbb062ac745cc03dcebd9c7b4d225b6",
          "topics": [
            "0xddf252ad1be2c89b69c2b068fc378daa952ba7f163c4a11628f55a4df523b3ef",
            "0x000000000000000000000000e69228626e4800578d06a93baaa595f6634a47c3",
            "0x000000000000000000000000f66da9dd005192ee584a253b024070c9a1a1f4fa"
          ],
          "data": "0x0000000000000000000000000000000000000000000000000001d2557bf843f8",
          "blockHash": "0x140d75db33017cac3723f2bdc2e2ebdbf0d6f5edd352e583832aad740969d8cc",
          "blockNumber": "0x9fc16d",
          "blockTimestamp": "0x69ba8e5c",
          "transactionHash": "0x2ae9c6e6782df3d93723f654d3fa19eacde1dbb67e36b9cf19f048dd30466981",
          "transactionIndex": "0x6c",
          "logIndex": "0xb0",
          "removed": false
        },
        {
          "address": "0xf66da9dd005192ee584a253b024070c9a1a1f4fa",
          "topics": [
            "0x7a53080ba414158be7ec69b987b5fb7d07dee101fe85488f0853ae16239d0bde",
            "0x000000000000000000000000e69228626e4800578d06a93baaa595f6634a47c3",
            "0xffffffffffffffffffffffffffffffffffffffffffffffffffffffffffffffc4",
            "0x000000000000000000000000000000000000000000000000000000000000003c"
          ],
          "data": "0x0000000000000000000000001284e9d71a87276d05abd860bd9990dce9dd721e0000000000000000000000000000000000000000000000000de0b6b3a764000000000000000000000000000000000000000000000000000000137bcdf4999e360000000000000000000000000000000000000000000000000001d2557bf843f8",
          "blockHash": "0x140d75db33017cac3723f2bdc2e2ebdbf0d6f5edd352e583832aad740969d8cc",
          "blockNumber": "0x9fc16d",
          "blockTimestamp": "0x69ba8e5c",
          "transactionHash": "0x2ae9c6e6782df3d93723f654d3fa19eacde1dbb67e36b9cf19f048dd30466981",
          "transactionIndex": "0x6c",
          "logIndex": "0xb1",
          "removed": false
        }
      ],
      "logsBloom": "0x00000000000000000000100000050000008000100000000000000000000020000000000000000800080000000000000000000000000000200000000000000000020000000000000000000008000080000000020040000000000000000000000000200000000040000000000400000000000000000000000000000010000000000000000008000000100000000000000000000000000000200000000000000000000000000000000000000100001000000000000000000004000000000000000000000002000000000000080000000000000000000000000000000000000000000000000000000000000000000000000000000080000000000000000000000000",
      "type": "0x2",
      "transactionHash": "0x2ae9c6e6782df3d93723f654d3fa19eacde1dbb67e36b9cf19f048dd30466981",
      "transactionIndex": "0x6c",
      "blockHash": "0x140d75db33017cac3723f2bdc2e2ebdbf0d6f5edd352e583832aad740969d8cc",
      "blockNumber": "0x9fc16d",
      "gasUsed": "0x48314",
      "effectiveGasPrice": "0xf4251",
      "from": "0xe69228626e4800578d06a93baaa595f6634a47c3",
      "to": "0x1284e9d71a87276d05abd860bd9990dce9dd721e",
      "contractAddress": null
    },
    {
      "status": "0x1",
      "cumulativeGasUsed": "0xbed549",
      "logs": [
        {
          "address": "0x3eee766c0d9ca7d1509e2493857449ef65a62cf3",
          "topics": [
            "0xddf252ad1be2c89b69c2b068fc378daa952ba7f163c4a11628f55a4df523b3ef",
            "0x000000000000000000000000e69228626e4800578d06a93baaa595f6634a47c3",
            "0x000000000000000000000000f66da9dd005192ee584a253b024070c9a1a1f4fa"
          ],
          "data": "0x0000000000000000000000000000000000000000000000000026f79be9333c6c",
          "blockHash": "0xa8fb67c82bea36e690457c8cdb3e7cde7144621c314f1744ec289e2a9605fb6c",
          "blockNumber": "0x9fc16e",
          "blockTimestamp": "0x69ba8e68",
          "transactionHash": "0xa6a9722939c321acc3ed995ed6ebbcdd342f79d4c1daa1be7dea0746b70981e9",
          "transactionIndex": "0x5d",
          "logIndex": "0x94",
          "removed": false
        },
        {
          "address": "0xdabc71b8cbbb062ac745cc03dcebd9c7b4d225b6",
          "topics": [
            "0xddf252ad1be2c89b69c2b068fc378daa952ba7f163c4a11628f55a4df523b3ef",
            "0x000000000000000000000000e69228626e4800578d06a93baaa595f6634a47c3",
            "0x000000000000000000000000f66da9dd005192ee584a253b024070c9a1a1f4fa"
          ],
          "data": "0x0000000000000000000000000000000000000000000000000003a4aaf7f087f0",
          "blockHash": "0xa8fb67c82bea36e690457c8cdb3e7cde7144621c314f1744ec289e2a9605fb6c",
          "blockNumber": "0x9fc16e",
          "blockTimestamp": "0x69ba8e68",
          "transactionHash": "0xa6a9722939c321acc3ed995ed6ebbcdd342f79d4c1daa1be7dea0746b70981e9",
          "transactionIndex": "0x5d",
          "logIndex": "0x95",
          "removed": false
        },
        {
          "address": "0xf66da9dd005192ee584a253b024070c9a1a1f4fa",
          "topics": [
            "0x7a53080ba414158be7ec69b987b5fb7d07dee101fe85488f0853ae16239d0bde",
            "0x000000000000000000000000cbdae57cd2722fb8e292a876bfc641d8c7faa887",
            "0xffffffffffffffffffffffffffffffffffffffffffffffffffffffffffffffc4",
            "0x000000000000000000000000000000000000000000000000000000000000003c"
          ],
          "data": "0x0000000000000000000000001284e9d71a87276d05abd860bd9990dce9dd721e0000000000000000000000000000000000000000000000001bc16d674ec800000000000000000000000000000000000000000000000000000026f79be9333c6c0000000000000000000000000000000000000000000000000003a4aaf7f087f0",
          "blockHash": "0xa8fb67c82bea36e690457c8cdb3e7cde7144621c314f1744ec289e2a9605fb6c",
          "blockNumber": "0x9fc16e",
          "blockTimestamp": "0x69ba8e68",
          "transactionHash": "0xa6a9722939c321acc3ed995ed6ebbcdd342f79d4c1daa1be7dea0746b70981e9",
          "transactionIndex": "0x5d",
          "logIndex": "0x96",
          "removed": false
        }
      ],
      "logsBloom": "0x00000000000000000000100000050000008000100000000000000000000020010000000000000800080000000000000000000000000000200000000000000000020000000000000000000008000080000000020040000000000000000000000000200000000040000000000400000000000000000000000000000010000000000000000008000000100000000000000000000000000000200000000000000008000000000000000000000100001000000000000000000004000000000000000000000002000000000000080000000000000000000000000000000000000000000000000000000010000000000000000000000080000000000000000000000000",
      "type": "0x2",
      "transactionHash": "0xa6a9722939c321acc3ed995ed6ebbcdd342f79d4c1daa1be7dea0746b70981e9",
      "transactionIndex": "0x5d",
      "blockHash": "0xa8fb67c82bea36e690457c8cdb3e7cde7144621c314f1744ec289e2a9605fb6c",
      "blockNumber": "0x9fc16e",
      "gasUsed": "0x287fa",
      "effectiveGasPrice": "0xf4252",
      "from": "0xe69228626e4800578d06a93baaa595f6634a47c3",
      "to": "0x1284e9d71a87276d05abd860bd9990dce9dd721e",
      "contractAddress": null
    },
    {
      "status": "0x1",
      "cumulativeGasUsed": "0xd045b1",
      "logs": [
        {
          "address": "0xdabc71b8cbbb062ac745cc03dcebd9c7b4d225b6",
          "topics": [
            "0xddf252ad1be2c89b69c2b068fc378daa952ba7f163c4a11628f55a4df523b3ef",
            "0x000000000000000000000000f66da9dd005192ee584a253b024070c9a1a1f4fa",
            "0x000000000000000000000000e69228626e4800578d06a93baaa595f6634a47c3"
          ],
          "data": "0x0000000000000000000000000000000000000000000000000000000000000064",
          "blockHash": "0xfa18300bbd9fd7140f6893274f89d366565de8b70e059affe25a9bf7fb87089e",
          "blockNumber": "0x9fc16f",
          "blockTimestamp": "0x69ba8e74",
          "transactionHash": "0xa231197d141ad5c241b30e7850e47fd3908614fa3ce4bb55e284497fd6d4c6c3",
          "transactionIndex": "0x67",
          "logIndex": "0xa8",
          "removed": false
        },
        {
          "address": "0x3eee766c0d9ca7d1509e2493857449ef65a62cf3",
          "topics": [
            "0xddf252ad1be2c89b69c2b068fc378daa952ba7f163c4a11628f55a4df523b3ef",
            "0x000000000000000000000000e69228626e4800578d06a93baaa595f6634a47c3",
            "0x000000000000000000000000f66da9dd005192ee584a253b024070c9a1a1f4fa"
          ],
          "data": "0x0000000000000000000000000000000000000000000000000000000000000066",
          "blockHash": "0xfa18300bbd9fd7140f6893274f89d366565de8b70e059affe25a9bf7fb87089e",
          "blockNumber": "0x9fc16f",
          "blockTimestamp": "0x69ba8e74",
          "transactionHash": "0xa231197d141ad5c241b30e7850e47fd3908614fa3ce4bb55e284497fd6d4c6c3",
          "transactionIndex": "0x67",
          "logIndex": "0xa9",
          "removed": false
        },
        {
          "address": "0xf66da9dd005192ee584a253b024070c9a1a1f4fa",
          "topics": [
            "0xc42079f94a6350d7e6235f29174924f928cc2ac818eb64fed8004e115fbcca67",
            "0x0000000000000000000000001284e9d71a87276d05abd860bd9990dce9dd721e",
            "0x000000000000000000000000e69228626e4800578d06a93baaa595f6634a47c3"
          ],
          "data": "0x0000000000000000000000000000000000000000000000000000000000000066ffffffffffffffffffffffffffffffffffffffffffffffffffffffffffffff9c0000000000000000000000000000000000000000ff5d4ca01c970b16e6f55c950000000000000000000000000000000000000000000000007ce66c50e2840000ffffffffffffffffffffffffffffffffffffffffffffffffffffffffffffffce",
          "blockHash": "0xfa18300bbd9fd7140f6893274f89d366565de8b70e059affe25a9bf7fb87089e",
          "blockNumber": "0x9fc16f",
          "blockTimestamp": "0x69ba8e74",
          "transactionHash": "0xa231197d141ad5c241b30e7850e47fd3908614fa3ce4bb55e284497fd6d4c6c3",
          "transactionIndex": "0x67",
          "logIndex": "0xaa",
          "removed": false
        }
      ],
      "logsBloom": "0x00000000000000000000000000010000008000100000000000000000000000000000000000000000000000000000000000000000000020200000000000000000020000000000000800000008000000000000020040000000000000000000000000200000000040000000000400000000000000000000000000000010000800000000000000000000100000000000000000000000000000200000400000000000000000000000000000000100001000000800000000000004000000000000000000000002000000000000000000000000000000000000000000000000000002000000000000000000000000000000000000000000000000000000000000000000",
      "type": "0x2",
      "transactionHash": "0xa231197d141ad5c241b30e7850e47fd3908614fa3ce4bb55e284497fd6d4c6c3",
      "transactionIndex": "0x67",
      "blockHash": "0xfa18300bbd9fd7140f6893274f89d366565de8b70e059affe25a9bf7fb87089e",
      "blockNumber": "0x9fc16f",
      "gasUsed": "0x1a24f",
      "effectiveGasPrice": "0xf4252",
      "from": "0xe69228626e4800578d06a93baaa595f6634a47c3",
      "to": "0x1284e9d71a87276d05abd860bd9990dce9dd721e",
      "contractAddress": null
    },
    {
      "status": "0x1",
      "cumulativeGasUsed": "0x14ffc55",
      "logs": [
        {
          "address": "0xf66da9dd005192ee584a253b024070c9a1a1f4fa",
          "topics": [
            "0x0c396cd989a39f4459b5fa1aed6a9a8dcdbc45908acfd67e028cd568da98982c",
            "0x000000000000000000000000e69228626e4800578d06a93baaa595f6634a47c3",
            "0xffffffffffffffffffffffffffffffffffffffffffffffffffffffffffffffc4",
            "0x000000000000000000000000000000000000000000000000000000000000003c"
          ],
          "data": "0x0000000000000000000000000000000000000000000000000de0b6b3a764000000000000000000000000000000000000000000000000000000137bcdf4999e410000000000000000000000000000000000000000000000000001d2557bf843ec",
          "blockHash": "0x91b44f28d079c308e77fcfc0d2bfbf3394585d6a3d0f6de23514a2b115a48881",
          "blockNumber": "0x9fc170",
          "blockTimestamp": "0x69ba8e80",
          "transactionHash": "0x4072188757bfe7b73b0a6223c2e22e99e473c945dfd16dc9b56ec7bb6ed05794",
          "transactionIndex": "0x60",
          "logIndex": "0x9f",
          "removed": false
        }
      ],
      "logsBloom": "0x00000000000000000000000000050000008000000000000000000000000020000000000000000800080000000000000000000000000000000200000000000000000000000000000000000000000080000000020000000000000000000000000000200000000040000000000400000000000000000004000000000000000000000000000000000000000000000000000000000000000000000000000000000000000000000000000000000000000000000000000000000000000000000000000000000000000000000000000000000000000000000000000000000000000000000000080000000000000000000000000000000080000000000000000000000000",
      "type": "0x2",
      "transactionHash": "0x4072188757bfe7b73b0a6223c2e22e99e473c945dfd16dc9b56ec7bb6ed05794",
      "transactionIndex": "0x60",
      "blockHash": "0x91b44f28d079c308e77fcfc0d2bfbf3394585d6a3d0f6de23514a2b115a48881",
      "blockNumber": "0x9fc170",
      "gasUsed": "0x19147",
      "effectiveGasPrice": "0xf4252",
      "from": "0xe69228626e4800578d06a93baaa595f6634a47c3",
      "to": "0xf66da9dd005192ee584a253b024070c9a1a1f4fa",
      "contractAddress": null
    },
    {
      "status": "0x1",
      "cumulativeGasUsed": "0xea0cae",
      "logs": [
        {
          "address": "0xf66da9dd005192ee584a253b024070c9a1a1f4fa",
          "topics": [
            "0x0c396cd989a39f4459b5fa1aed6a9a8dcdbc45908acfd67e028cd568da98982c",
            "0x000000000000000000000000cbdae57cd2722fb8e292a876bfc641d8c7faa887",
            "0xffffffffffffffffffffffffffffffffffffffffffffffffffffffffffffffc4",
            "0x000000000000000000000000000000000000000000000000000000000000003c"
          ],
          "data": "0x0000000000000000000000000000000000000000000000001bc16d674ec800000000000000000000000000000000000000000000000000000026f79be9333c820000000000000000000000000000000000000000000000000003a4aaf7f087d9",
          "blockHash": "0xb113e051e8d511db01eb0919c1ab335b260c4de2e0385ae31718aa6737178827",
          "blockNumber": "0x9fc171",
          "blockTimestamp": "0x69ba8e8c",
          "transactionHash": "0xc64c44f40ddbe13dacc5f640ea20697c68ea4229002614cc406af4d30103e411",
          "transactionIndex": "0x59",
          "logIndex": "0xb5",
          "removed": false
        }
      ],
      "logsBloom": "0x00000000000000000000000000040000008000000000000000000000000020010000000000000800080000000000000000000000000000000200000000000000000000000000000000000000000080000000020000000000000000000000000000000000000000000000000400000000000000000004000000000000000000000000000000000000000000000000000000000000000000000000000000000008000000000000000000000000000000000000000000000000000000000000000000000000000000000000000000000000000000000000000000000000000000000000080000000010000000000000000000000080000000000000000000000000",
      "type": "0x2",
      "transactionHash": "0xc64c44f40ddbe13dacc5f640ea20697c68ea4229002614cc406af4d30103e411",
      "transactionIndex": "0x59",
      "blockHash": "0xb113e051e8d511db01eb0919c1ab335b260c4de2e0385ae31718aa6737178827",
      "blockNumber": "0x9fc171",
      "gasUsed": "0x1adfb",
      "effectiveGasPrice": "0xf4253",
      "from": "0xcbdae57cd2722fb8e292a876bfc641d8c7faa887",
      "to": "0xf66da9dd005192ee584a253b024070c9a1a1f4fa",
      "contractAddress": null
    }
  ],
  "libraries": [],
  "pending": [],
  "returns": {},
  "timestamp": 1773833868697,
  "chain": 11155111,
  "commit": "de34f06"
}