{
  "transactions": [
    {
      "hash": "0x07aed914b71084681bfcc4e364c2d9e7f0a3cb656b9523ef9e55db635a509238",
      "transactionType": "CALL",
      "contractName": null,
      "contractAddress": "0x1284e9d71a87276d05abd860bd9990dce9dd721e",
      "function": "mint(address,address,int24,int24,uint128)",
      "arguments": [
        "0xF66da9dd005192ee584a253b024070c9A1A1F4FA",
        "0xe69228626E4800578D06a93BaaA595f6634A47C3",
        "-60",
        "60",
        "1000000000000000000"
      ],
      "transaction": {
        "from": "0xe69228626e4800578d06a93baaa595f6634a47c3",
        "to": "0x1284e9d71a87276d05abd860bd9990dce9dd721e",
        "gas": "0x63b73",
        "value": "0x0",
        "input": "0x7b4f5327000000000000000000000000f66da9dd005192ee584a253b024070c9a1a1f4fa000000000000000000000000e69228626e4800578d06a93baaa595f6634a47c3ffffffffffffffffffffffffffffffffffffffffffffffffffffffffffffffc4000000000000000000000000000000000000000000000000000000000000003c0000000000000000000000000000000000000000000000000de0b6b3a7640000",
        "nonce": "0x1d4",
        "chainId": "0xaa36a7"
      },
      "additionalContracts": [],
      "isFixedGasLimit": false
    },
    {
      "hash": "0xf00a6e3a2f46e881019fc650e90497d576548e75d3fe6c06f5a4b528267101d8",
      "transactionType": "CALL",
      "contractName": null,
      "contractAddress": "0x1284e9d71a87276d05abd860bd9990dce9dd721e",
      "function": "mint(address,address,int24,int24,uint128)",
      "arguments": [
        "0xF66da9dd005192ee584a253b024070c9A1A1F4FA",
        "0xcBdAE57cd2722fB8e292A876BfC641D8C7faA887",
        "-60",
        "60",
        "2000000000000000000"
      ],
      "transaction": {
        "from": "0xe69228626e4800578d06a93baaa595f6634a47c3",
        "to": "0x1284e9d71a87276d05abd860bd9990dce9dd721e",
        "gas": "0x36762",
        "value": "0x0",
        "input": "0x7b4f5327000000000000000000000000f66da9dd005192ee584a253b024070c9a1a1f4fa000000000000000000000000cbdae57cd2722fb8e292a876bfc641d8c7faa887ffffffffffffffffffffffffffffffffffffffffffffffffffffffffffffffc4000000000000000000000000000000000000000000000000000000000000003c0000000000000000000000000000000000000000000000001bc16d674ec80000",
        "nonce": "0x1d5",
        "chainId": "0xaa36a7"
      },
      "additionalContracts": [],
      "isFixedGasLimit": false
    },
    {
      "hash": "0x3ea76191a76cd9a5a033d9eec09bb12a8fedefd23101a0db353e4fb9331ffd75",
      "transactionType": "CALL",
      "contractName": null,
      "contractAddress": "0x1284e9d71a87276d05abd860bd9990dce9dd721e",
      "function": "swap(address,address,bool,int256,uint160)",
      "arguments": [
        "0xF66da9dd005192ee584a253b024070c9A1A1F4FA",
        "0xe69228626E4800578D06a93BaaA595f6634A47C3",
        "true",
        "-100",
        "4295128740"
      ],
      "transaction": {
        "from": "0xe69228626e4800578d06a93baaa595f6634a47c3",
        "to": "0x1284e9d71a87276d05abd860bd9990dce9dd721e",
        "gas": "0x241c8",
        "value": "0x0",
        "input": "0xa12578dc000000000000000000000000f66da9dd005192ee584a253b024070c9a1a1f4fa000000000000000000000000e69228626e4800578d06a93baaa595f6634a47c30000000000000000000000000000000000000000000000000000000000000001ffffffffffffffffffffffffffffffffffffffffffffffffffffffffffffff9c00000000000000000000000000000000000000000000000000000001000276a4",
        "nonce": "0x1d6",
        "chainId": "0xaa36a7"
      },
      "additionalContracts": [],
      "isFixedGasLimit": false
    },
    {
      "hash": "0x78cb85fee279cc6aad9634b8e944e464c9d63dd518eebf0fcdb8a387225dd9c6",
      "transactionType": "CALL",
      "contractName": null,
      "contractAddress": "0xf66da9dd005192ee584a253b024070c9a1a1f4fa",
      "function": "burn(int24,int24,uint128)",
      "arguments": [
        "-60",
        "60",
        "1000000000000000000"
      ],
      "transaction": {
        "from": "0xe69228626e4800578d06a93baaa595f6634a47c3",
        "to": "0xf66da9dd005192ee584a253b024070c9a1a1f4fa",
        "gas": "0x212a3",
        "value": "0x0",
        "input": "0xa34123a7ffffffffffffffffffffffffffffffffffffffffffffffffffffffffffffffc4000000000000000000000000000000000000000000000000000000000000003c0000000000000000000000000000000000000000000000000de0b6b3a7640000",
        "nonce": "0x1d7",
        "chainId": "0xaa36a7"
      },
      "additionalContracts": [],
      "isFixedGasLimit": false
    },
    {
      "hash": "0x8eaa4852e77bca035b96fcbadd245b6c517566b142534fd7061a121b07c1f342",
      "transactionType": "CALL",
      "contractName": null,
      "contractAddress": "0xf66da9dd005192ee584a253b024070c9a1a1f4fa",
      "function": "burn(int24,int24,uint128)",
      "arguments": [
        "-60",
        "60",
        "2000000000000000000"
      ],
      "transaction": {
        "from": "0xcbdae57cd2722fb8e292a876bfc641d8c7faa887",
        "to": "0xf66da9dd005192ee584a253b024070c9a1a1f4fa",
        "gas": "0x23f01",
        "value": "0x0",
        "input": "0xa34123a7ffffffffffffffffffffffffffffffffffffffffffffffffffffffffffffffc4000000000000000000000000000000000000000000000000000000000000003c0000000000000000000000000000000000000000000000001bc16d674ec80000",
        "nonce": "0xf6",
        "chainId": "0xaa36a7"
      },
      "additionalContracts": [],
      "isFixedGasLimit": false
    }
  ],
  "receipts": [
    {
      "status": "0x1",
      "cumulativeGasUsed": "0xd0ad91",
      "logs": [
        {
          "address": "0x3eee766c0d9ca7d1509e2493857449ef65a62cf3",
          "topics": [
            "0xddf252ad1be2c89b69c2b068fc378daa952ba7f163c4a11628f55a4df523b3ef",
            "0x000000000000000000000000e69228626e4800578d06a93baaa595f6634a47c3",
            "0x000000000000000000000000f66da9dd005192ee584a253b024070c9a1a1f4fa"
          ],
          "data": "0x00000000000000000000000000000000000000000000000000137bcdf4999e4d",
          "blockHash": "0x17987fe8b3bbec78dfeab4aeb8d7d9dd7e28aec978f5fc912a9fb2fa8ecf132b",
          "blockNumber": "0x9fc225",
          "blockTimestamp": "0x69ba981c",
          "transactionHash": "0x07aed914b71084681bfcc4e364c2d9e7f0a3cb656b9523ef9e55db635a509238",
          "transactionIndex": "0x58",
          "logIndex": "0x7c",
          "removed": false
        },
        {
          "address": "0xdabc71b8cbbb062ac745cc03dcebd9c7b4d225b6",
          "topics": [
            "0xddf252ad1be2c89b69c2b068fc378daa952ba7f163c4a11628f55a4df523b3ef",
            "0x000000000000000000000000e69228626e4800578d06a93baaa595f6634a47c3",
            "0x000000000000000000000000f66da9dd005192ee584a253b024070c9a1a1f4fa"
          ],
          "data": "0x0000000000000000000000000000000000000000000000000001d2557bf843e2",
          "blockHash": "0x17987fe8b3bbec78dfeab4aeb8d7d9dd7e28aec978f5fc912a9fb2fa8ecf132b",
          "blockNumber": "0x9fc225",
          "blockTimestamp": "0x69ba981c",
          "transactionHash": "0x07aed914b71084681bfcc4e364c2d9e7f0a3cb656b9523ef9e55db635a509238",
          "transactionIndex": "0x58",
          "logIndex": "0x7d",
          "removed": false
        },
        {
          "address": "0xf66da9dd005192ee584a253b024070c9a1a1f4fa",
          "topics": [
            "0x7a53080ba414158be7ec69b987b5fb7d07dee101fe85488f0853ae16239d0bde",
            "0x000000000000000000000000e69228626e4800578d06a93baaa595f6634a47c3",
            "0xffffffffffffffffffffffffffffffffffffffffffffffffffffffffffffffc4",
            "0x000000000000000000000000000000000000000000000000000000000000003c"
          ],
          "data": "0x0000000000000000000000001284e9d71a87276d05abd860bd9990dce9dd721e0000000000000000000000000000000000000000000000000de0b6b3a764000000000000000000000000000000000000000000000000000000137bcdf4999e4d0000000000000000000000000000000000000000000000000001d2557bf843e2",
          "blockHash": "0x17987fe8b3bbec78dfeab4aeb8d7d9dd7e28aec978f5fc912a9fb2fa8ecf132b",
          "blockNumber": "0x9fc225",
          "blockTimestamp": "0x69ba981c",
          "transactionHash": "0x07aed914b71084681bfcc4e364c2d9e7f0a3cb656b9523ef9e55db635a509238",
          "transactionIndex": "0x58",
          "logIndex": "0x7e",
          "removed": false
        }
      ],
      "logsBloom": "0x00000000000000000000100000050000008000100000000000000000000020000000000000000800080000000000000000000000000000200000000000000000020000000000000000000008000080000000020040000000000000000000000000200000000040000000000400000000000000000000000000000010000000000000000008000000100000000000000000000000000000200000000000000000000000000000000000000100001000000000000000000004000000000000000000000002000000000000080000000000000000000000000000000000000000000000000000000000000000000000000000000080000000000000000000000000",
      "type": "0x2",
      "transactionHash": "0x07aed914b71084681bfcc4e364c2d9e7f0a3cb656b9523ef9e55db635a509238",
      "transactionIndex": "0x58",
      "blockHash": "0x17987fe8b3bbec78dfeab4aeb8d7d9dd7e28aec978f5fc912a9fb2fa8ecf132b",
      "blockNumber": "0x9fc225",
      "gasUsed": "0x48314",
      "effectiveGasPrice": "0x124f8e",
      "from": "0xe69228626e4800578d06a93baaa595f6634a47c3",
      "to": "0x1284e9d71a87276d05abd860bd9990dce9dd721e",
      "contractAddress": null
    },
    {
      "status": "0x1",
      "cumulativeGasUsed": "0xd2ec0e",
      "logs": [
        {
          "address": "0x3eee766c0d9ca7d1509e2493857449ef65a62cf3",
          "topics": [
            "0xddf252ad1be2c89b69c2b068fc378daa952ba7f163c4a11628f55a4df523b3ef",
            "0x000000000000000000000000e69228626e4800578d06a93baaa595f6634a47c3",
            "0x000000000000000000000000f66da9dd005192ee584a253b024070c9a1a1f4fa"
          ],
          "data": "0x0000000000000000000000000000000000000000000000000026f79be9333c99",
          "blockHash": "0xd5395b31bbf028e31f401a173c55d2c58e86b5549030ea4d88e6a85f877c1b3f",
          "blockNumber": "0x9fc226",
          "blockTimestamp": "0x69ba9828",
          "transactionHash": "0xf00a6e3a2f46e881019fc650e90497d576548e75d3fe6c06f5a4b528267101d8",
          "transactionIndex": "0x5a",
          "logIndex": "0xb1",
          "removed": false
        },
        {
          "address": "0xdabc71b8cbbb062ac745cc03dcebd9c7b4d225b6",
          "topics": [
            "0xddf252ad1be2c89b69c2b068fc378daa952ba7f163c4a11628f55a4df523b3ef",
            "0x000000000000000000000000e69228626e4800578d06a93baaa595f6634a47c3",
            "0x000000000000000000000000f66da9dd005192ee584a253b024070c9a1a1f4fa"
          ],
          "data": "0x0000000000000000000000000000000000000000000000000003a4aaf7f087c3",
          "blockHash": "0xd5395b31bbf028e31f401a173c55d2c58e86b5549030ea4d88e6a85f877c1b3f",
          "blockNumber": "0x9fc226",
          "blockTimestamp": "0x69ba9828",
          "transactionHash": "0xf00a6e3a2f46e881019fc650e90497d576548e75d3fe6c06f5a4b528267101d8",
          "transactionIndex": "0x5a",
          "logIndex": "0xb2",
          "removed": false
        },
        {
          "address": "0xf66da9dd005192ee584a253b024070c9a1a1f4fa",
          "topics": [
            "0x7a53080ba414158be7ec69b987b5fb7d07dee101fe85488f0853ae16239d0bde",
            "0x000000000000000000000000cbdae57cd2722fb8e292a876bfc641d8c7faa887",
            "0xffffffffffffffffffffffffffffffffffffffffffffffffffffffffffffffc4",
            "0x000000000000000000000000000000000000000000000000000000000000003c"
          ],
          "data": "0x0000000000000000000000001284e9d71a87276d05abd860bd9990dce9dd721e0000000000000000000000000000000000000000000000001bc16d674ec800000000000000000000000000000000000000000000000000000026f79be9333c990000000000000000000000000000000000000000000000000003a4aaf7f087c3",
          "blockHash": "0xd5395b31bbf028e31f401a173c55d2c58e86b5549030ea4d88e6a85f877c1b3f",
          "blockNumber": "0x9fc226",
          "blockTimestamp": "0x69ba9828",
          "transactionHash": "0xf00a6e3a2f46e881019fc650e90497d576548e75d3fe6c06f5a4b528267101d8",
          "transactionIndex": "0x5a",
          "logIndex": "0xb3",
          "removed": false
        }
      ],
      "logsBloom": "0x00000000000000000000100000050000008000100000000000000000000020010000000000000800080000000000000000000000000000200000000000000000020000000000000000000008000080000000020040000000000000000000000000200000000040000000000400000000000000000000000000000010000000000000000008000000100000000000000000000000000000200000000000000008000000000000000000000100001000000000000000000004000000000000000000000002000000000000080000000000000000000000000000000000000000000000000000000010000000000000000000000080000000000000000000000000",
      "type": "0x2",
      "transactionHash": "0xf00a6e3a2f46e881019fc650e90497d576548e75d3fe6c06f5a4b528267101d8",
      "transactionIndex": "0x5a",
      "blockHash": "0xd5395b31bbf028e31f401a173c55d2c58e86b5549030ea4d88e6a85f877c1b3f",
      "blockNumber": "0x9fc226",
      "gasUsed": "0x287fa",
      "effectiveGasPrice": "0x124f8e",
      "from": "0xe69228626e4800578d06a93baaa595f6634a47c3",
      "to": "0x1284e9d71a87276d05abd860bd9990dce9dd721e",
      "contractAddress": null
    },
    {
      "status": "0x1",
      "cumulativeGasUsed": "0xa96e5d",
      "logs": [
        {
          "address": "0xdabc71b8cbbb062ac745cc03dcebd9c7b4d225b6",
          "topics": [
            "0xddf252ad1be2c89b69c2b068fc378daa952ba7f163c4a11628f55a4df523b3ef",
            "0x000000000000000000000000f66da9dd005192ee584a253b024070c9a1a1f4fa",
            "0x000000000000000000000000e69228626e4800578d06a93baaa595f6634a47c3"
          ],
          "data": "0x0000000000000000000000000000000000000000000000000000000000000064",
          "blockHash": "0x2a52db7900fd8c62bf60965813dd25c16d4da62572eb80864d43aa088116dff5",
          "blockNumber": "0x9fc227",
          "blockTimestamp": "0x69ba9834",
          "transactionHash": "0x3ea76191a76cd9a5a033d9eec09bb12a8fedefd23101a0db353e4fb9331ffd75",
          "transactionIndex": "0x9c",
          "logIndex": "0xba",
          "removed": false
        },
        {
          "address": "0x3eee766c0d9ca7d1509e2493857449ef65a62cf3",
          "topics": [
            "0xddf252ad1be2c89b69c2b068fc378daa952ba7f163c4a11628f55a4df523b3ef",
            "0x000000000000000000000000e69228626e4800578d06a93baaa595f6634a47c3",
            "0x000000000000000000000000f66da9dd005192ee584a253b024070c9a1a1f4fa"
          ],
          "data": "0x0000000000000000000000000000000000000000000000000000000000000066",
          "blockHash": "0x2a52db7900fd8c62bf60965813dd25c16d4da62572eb80864d43aa088116dff5",
          "blockNumber": "0x9fc227",
          "blockTimestamp": "0x69ba9834",
          "transactionHash": "0x3ea76191a76cd9a5a033d9eec09bb12a8fedefd23101a0db353e4fb9331ffd75",
          "transactionIndex": "0x9c",
          "logIndex": "0xbb",
          "removed": false
        },
        {
          "address": "0xf66da9dd005192ee584a253b024070c9a1a1f4fa",
          "topics": [
            "0xc42079f94a6350d7e6235f29174924f928cc2ac818eb64fed8004e115fbcca67",
            "0x0000000000000000000000001284e9d71a87276d05abd860bd9990dce9dd721e",
            "0x000000000000000000000000e69228626e4800578d06a93baaa595f6634a47c3"
          ],
          "data": "0x0000000000000000000000000000000000000000000000000000000000000066ffffffffffffffffffffffffffffffffffffffffffffffffffffffffffffff9c0000000000000000000000000000000000000000ff5d4ca01c97097cf97b25e10000000000000000000000000000000000000000000000007ce66c50e2840000ffffffffffffffffffffffffffffffffffffffffffffffffffffffffffffffce",
          "blockHash": "0x2a52db7900fd8c62bf60965813dd25c16d4da62572eb80864d43aa088116dff5",
          "blockNumber": "0x9fc227",
          "blockTimestamp": "0x69ba9834",
          "transactionHash": "0x3ea76191a76cd9a5a033d9eec09bb12a8fedefd23101a0db353e4fb9331ffd75",
          "transactionIndex": "0x9c",
          "logIndex": "0xbc",
          "removed": false
        }
      ],
      "logsBloom": "0x00000000000000000000000000010000008000100000000000000000000000000000000000000000000000000000000000000000000020200000000000000000020000000000000800000008000000000000020040000000000000000000000000200000000040000000000400000000000000000000000000000010000800000000000000000000100000000000000000000000000000200000400000000000000000000000000000000100001000000800000000000004000000000000000000000002000000000000000000000000000000000000000000000000000002000000000000000000000000000000000000000000000000000000000000000000",
      "type": "0x2",
      "transactionHash": "0x3ea76191a76cd9a5a033d9eec09bb12a8fedefd23101a0db353e4fb9331ffd75",
      "transactionIndex": "0x9c",
      "blockHash": "0x2a52db7900fd8c62bf60965813dd25c16d4da62572eb80864d43aa088116dff5",
      "blockNumber": "0x9fc227",
      "gasUsed": "0x1a24f",
      "effectiveGasPrice": "0x124f8e",
      "from": "0xe69228626e4800578d06a93baaa595f6634a47c3",
      "to": "0x1284e9d71a87276d05abd860bd9990dce9dd721e",
      "contractAddress": null
    },
    {
      "status": "0x1",
      "cumulativeGasUsed": "0x6a63ad",
      "logs": [
        {
          "address": "0xf66da9dd005192ee584a253b024070c9a1a1f4fa",
          "topics": [
            "0x0c396cd989a39f4459b5fa1aed6a9a8dcdbc45908acfd67e028cd568da98982c",
            "0x000000000000000000000000e69228626e4800578d06a93baaa595f6634a47c3",
            "0xffffffffffffffffffffffffffffffffffffffffffffffffffffffffffffffc4",
            "0x000000000000000000000000000000000000000000000000000000000000003c"
          ],
          "data": "0x0000000000000000000000000000000000000000000000000de0b6b3a764000000000000000000000000000000000000000000000000000000137bcdf4999e570000000000000000000000000000000000000000000000000001d2557bf843d6",
          "blockHash": "0x5faa60831487e034e1a9d82cbf92440fc560be1f4e44bf92a983f34794399526",
          "blockNumber": "0x9fc228",
          "blockTimestamp": "0x69ba9840",
          "transactionHash": "0x78cb85fee279cc6aad9634b8e944e464c9d63dd518eebf0fcdb8a387225dd9c6",
          "transactionIndex": "0x61",
          "logIndex": "0x92",
          "removed": false
        }
      ],
      "logsBloom": "0x00000000000000000000000000050000008000000000000000000000000020000000000000000800080000000000000000000000000000000200000000000000000000000000000000000000000080000000020000000000000000000000000000200000000040000000000400000000000000000004000000000000000000000000000000000000000000000000000000000000000000000000000000000000000000000000000000000000000000000000000000000000000000000000000000000000000000000000000000000000000000000000000000000000000000000000080000000000000000000000000000000080000000000000000000000000",
      "type": "0x2",
      "transactionHash": "0x78cb85fee279cc6aad9634b8e944e464c9d63dd518eebf0fcdb8a387225dd9c6",
      "transactionIndex": "0x61",
      "blockHash": "0x5faa60831487e034e1a9d82cbf92440fc560be1f4e44bf92a983f34794399526",
      "blockNumber": "0x9fc228",
      "gasUsed": "0x19147",
      "effectiveGasPrice": "0x124f8e",
      "from": "0xe69228626e4800578d06a93baaa595f6634a47c3",
      "to": "0xf66da9dd005192ee584a253b024070c9a1a1f4fa",
      "contractAddress": null
    },
    {
      "status": "0x1",
      "cumulativeGasUsed": "0xb33b83",
      "logs": [
        {
          "address": "0xf66da9dd005192ee584a253b024070c9a1a1f4fa",
          "topics": [
            "0x0c396cd989a39f4459b5fa1aed6a9a8dcdbc45908acfd67e028cd568da98982c",
            "0x000000000000000000000000cbdae57cd2722fb8e292a876bfc641d8c7faa887",
            "0xffffffffffffffffffffffffffffffffffffffffffffffffffffffffffffffc4",
            "0x000000000000000000000000000000000000000000000000000000000000003c"
          ],
          "data": "0x0000000000000000000000000000000000000000000000001bc16d674ec800000000000000000000000000000000000000000000000000000026f79be9333cae0000000000000000000000000000000000000000000000000003a4aaf7f087ac",
          "blockHash": "0x6f99ffb1f76c6bde9d5191c0a1124b609dc9e1d8ec71b20160d463f3470e1f31",
          "blockNumber": "0x9fc229",
          "blockTimestamp": "0x69ba984c",
          "transactionHash": "0x8eaa4852e77bca035b96fcbadd245b6c517566b142534fd7061a121b07c1f342",
          "transactionIndex": "0x57",
          "logIndex": "0x7d",
          "removed": false
        }
      ],
      "logsBloom": "0x00000000000000000000000000040000008000000000000000000000000020010000000000000800080000000000000000000000000000000200000000000000000000000000000000000000000080000000020000000000000000000000000000000000000000000000000400000000000000000004000000000000000000000000000000000000000000000000000000000000000000000000000000000008000000000000000000000000000000000000000000000000000000000000000000000000000000000000000000000000000000000000000000000000000000000000080000000010000000000000000000000080000000000000000000000000",
      "type": "0x2",
      "transactionHash": "0x8eaa4852e77bca035b96fcbadd245b6c517566b142534fd7061a121b07c1f342",
      "transactionIndex": "0x57",
      "blockHash": "0x6f99ffb1f76c6bde9d5191c0a1124b609dc9e1d8ec71b20160d463f3470e1f31",
      "blockNumber": "0x9fc229",
      "gasUsed": "0x1adfb",
      "effectiveGasPrice": "0x124f8e",
      "from": "0xcbdae57cd2722fb8e292a876bfc641d8c7faa887",
      "to": "0xf66da9dd005192ee584a253b024070c9a1a1f4fa",
      "contractAddress": null
    }
  ],
  "libraries": [],
  "pending": [],
  "returns": {},
  "timestamp": 1773836364888,
  "chain": 11155111,
  "commit": "de34f06"
}