{
  "transactions": [
    {
      "hash": "0x515c33662ab34ce2a25960149c133ce2160da2e9af7350c61cacf0ec73eb6af7",
      "transactionType": "CALL",
      "contractName": null,
      "contractAddress": "0x1284e9d71a87276d05abd860bd9990dce9dd721e",
      "function": "mint(address,address,int24,int24,uint128)",
      "arguments": [
        "0xF66da9dd005192ee584a253b024070c9A1A1F4FA",
        "0xe69228626E4800578D06a93BaaA595f6634A47C3",
        "-60",
        "60",
        "1000000000000000000"
      ],
      "transaction": {
        "from": "0xe69228626e4800578d06a93baaa595f6634a47c3",
        "to": "0x1284e9d71a87276d05abd860bd9990dce9dd721e",
        "gas": "0x63b73",
        "value": "0x0",
        "input": "0x7b4f5327000000000000000000000000f66da9dd005192ee584a253b024070c9a1a1f4fa000000000000000000000000e69228626e4800578d06a93baaa595f6634a47c3ffffffffffffffffffffffffffffffffffffffffffffffffffffffffffffffc4000000000000000000000000000000000000000000000000000000000000003c0000000000000000000000000000000000000000000000000de0b6b3a7640000",
        "nonce": "0x1d8",
        "chainId": "0xaa36a7"
      },
      "additionalContracts": [],
      "isFixedGasLimit": false
    },
    {
      "hash": "0x22f0d8302a31c8cf8a0fe428f5121e2c0def598975c59abe1495f3624142f564",
      "transactionType": "CALL",
      "contractName": null,
      "contractAddress": "0x1284e9d71a87276d05abd860bd9990dce9dd721e",
      "function": "mint(address,address,int24,int24,uint128)",
      "arguments": [
        "0xF66da9dd005192ee584a253b024070c9A1A1F4FA",
        "0xcBdAE57cd2722fB8e292A876BfC641D8C7faA887",
        "-60",
        "60",
        "2000000000000000000"
      ],
      "transaction": {
        "from": "0xe69228626e4800578d06a93baaa595f6634a47c3",
        "to": "0x1284e9d71a87276d05abd860bd9990dce9dd721e",
        "gas": "0x36762",
        "value": "0x0",
        "input": "0x7b4f5327000000000000000000000000f66da9dd005192ee584a253b024070c9a1a1f4fa000000000000000000000000cbdae57cd2722fb8e292a876bfc641d8c7faa887ffffffffffffffffffffffffffffffffffffffffffffffffffffffffffffffc4000000000000000000000000000000000000000000000000000000000000003c0000000000000000000000000000000000000000000000001bc16d674ec80000",
        "nonce": "0x1d9",
        "chainId": "0xaa36a7"
      },
      "additionalContracts": [],
      "isFixedGasLimit": false
    },
    {
      "hash": "0xedf4bf4abf7966889ac728fbc71ae27c248d10d27027c906b6adedc956ef31ed",
      "transactionType": "CALL",
      "contractName": null,
      "contractAddress": "0x1284e9d71a87276d05abd860bd9990dce9dd721e",
      "function": "swap(address,address,bool,int256,uint160)",
      "arguments": [
        "0xF66da9dd005192ee584a253b024070c9A1A1F4FA",
        "0xe69228626E4800578D06a93BaaA595f6634A47C3",
        "true",
        "-100",
        "4295128740"
      ],
      "transaction": {
        "from": "0xe69228626e4800578d06a93baaa595f6634a47c3",
        "to": "0x1284e9d71a87276d05abd860bd9990dce9dd721e",
        "gas": "0x241c8",
        "value": "0x0",
        "input": "0xa12578dc000000000000000000000000f66da9dd005192ee584a253b024070c9a1a1f4fa000000000000000000000000e69228626e4800578d06a93baaa595f6634a47c30000000000000000000000000000000000000000000000000000000000000001ffffffffffffffffffffffffffffffffffffffffffffffffffffffffffffff9c00000000000000000000000000000000000000000000000000000001000276a4",
        "nonce": "0x1da",
        "chainId": "0xaa36a7"
      },
      "additionalContracts": [],
      "isFixedGasLimit": false
    },
    {
      "hash": "0x375c4d016e633b64a5316112c785008373a9d6dd341130c4cd3a5edb9812846a",
      "transactionType": "CALL",
      "contractName": null,
      "contractAddress": "0xf66da9dd005192ee584a253b024070c9a1a1f4fa",
      "function": "burn(int24,int24,uint128)",
      "arguments": [
        "-60",
        "60",
        "1000000000000000000"
      ],
      "transaction": {
        "from": "0xe69228626e4800578d06a93baaa595f6634a47c3",
        "to": "0xf66da9dd005192ee584a253b024070c9a1a1f4fa",
        "gas": "0x212a3",
        "value": "0x0",
        "input": "0xa34123a7ffffffffffffffffffffffffffffffffffffffffffffffffffffffffffffffc4000000000000000000000000000000000000000000000000000000000000003c0000000000000000000000000000000000000000000000000de0b6b3a7640000",
        "nonce": "0x1db",
        "chainId": "0xaa36a7"
      },
      "additionalContracts": [],
      "isFixedGasLimit": false
    },
    {
      "hash": "0xdd56e333747f385408eb3a5d91bd04d287b9ce85e7aab8e9c4719ab6e892541c",
      "transactionType": "CALL",
      "contractName": null,
      "contractAddress": "0xf66da9dd005192ee584a253b024070c9a1a1f4fa",
      "function": "burn(int24,int24,uint128)",
      "arguments": [
        "-60",
        "60",
        "2000000000000000000"
      ],
      "transaction": {
        "from": "0xcbdae57cd2722fb8e292a876bfc641d8c7faa887",
        "to": "0xf66da9dd005192ee584a253b024070c9a1a1f4fa",
        "gas": "0x23f01",
        "value": "0x0",
        "input": "0xa34123a7ffffffffffffffffffffffffffffffffffffffffffffffffffffffffffffffc4000000000000000000000000000000000000000000000000000000000000003c0000000000000000000000000000000000000000000000001bc16d674ec80000",
        "nonce": "0xf7",
        "chainId": "0xaa36a7"
      },
      "additionalContracts": [],
      "isFixedGasLimit": false
    }
  ],
  "receipts": [
    {
      "status": "0x1",
      "cumulativeGasUsed": "0xb27ca8",
      "logs": [
        {
          "address": "0x3eee766c0d9ca7d1509e2493857449ef65a62cf3",
          "topics": [
            "0xddf252ad1be2c89b69c2b068fc378daa952ba7f163c4a11628f55a4df523b3ef",
            "0x000000000000000000000000e69228626e4800578d06a93baaa595f6634a47c3",
            "0x000000000000000000000000f66da9dd005192ee584a253b024070c9a1a1f4fa"
          ],
          "data": "0x00000000000000000000000000000000000000000000000000137bcdf4999e58",
          "blockHash": "0x954ff526a6527bd95ac804b5f1902ea2902e43ba93c312ad0641128a79ecab52",
          "blockNumber": "0x9fc264",
          "blockTimestamp": "0x69ba9b40",
          "transactionHash": "0x515c33662ab34ce2a25960149c133ce2160da2e9af7350c61cacf0ec73eb6af7",
          "transactionIndex": "0x5b",
          "logIndex": "0x81",
          "removed": false
        },
        {
          "address": "0xdabc71b8cbbb062ac745cc03dcebd9c7b4d225b6",
          "topics": [
            "0xddf252ad1be2c89b69c2b068fc378daa952ba7f163c4a11628f55a4df523b3ef",
            "0x000000000000000000000000e69228626e4800578d06a93baaa595f6634a47c3",
            "0x000000000000000000000000f66da9dd005192ee584a253b024070c9a1a1f4fa"
          ],
          "data": "0x0000000000000000000000000000000000000000000000000001d2557bf843d7",
          "blockHash": "0x954ff526a6527bd95ac804b5f1902ea2902e43ba93c312ad0641128a79ecab52",
          "blockNumber": "0x9fc264",
          "blockTimestamp": "0x69ba9b40",
          "transactionHash": "0x515c33662ab34ce2a25960149c133ce2160da2e9af7350c61cacf0ec73eb6af7",
          "transactionIndex": "0x5b",
          "logIndex": "0x82",
          "removed": false
        },
        {
          "address": "0xf66da9dd005192ee584a253b024070c9a1a1f4fa",
          "topics": [
            "0x7a53080ba414158be7ec69b987b5fb7d07dee101fe85488f0853ae16239d0bde",
            "0x000000000000000000000000e69228626e4800578d06a93baaa595f6634a47c3",
            "0xffffffffffffffffffffffffffffffffffffffffffffffffffffffffffffffc4",
            "0x000000000000000000000000000000000000000000000000000000000000003c"
          ],
          "data": "0x0000000000000000000000001284e9d71a87276d05abd860bd9990dce9dd721e0000000000000000000000000000000000000000000000000de0b6b3a764000000000000000000000000000000000000000000000000000000137bcdf4999e580000000000000000000000000000000000000000000000000001d2557bf843d7",
          "blockHash": "0x954ff526a6527bd95ac804b5f1902ea2902e43ba93c312ad0641128a79ecab52",
          "blockNumber": "0x9fc264",
          "blockTimestamp": "0x69ba9b40",
          "transactionHash": "0x515c33662ab34ce2a25960149c133ce2160da2e9af7350c61cacf0ec73eb6af7",
          "transactionIndex": "0x5b",
          "logIndex": "0x83",
          "removed": false
        }
      ],
      "logsBloom": "0x00000000000000000000100000050000008000100000000000000000000020000000000000000800080000000000000000000000000000200000000000000000020000000000000000000008000080000000020040000000000000000000000000200000000040000000000400000000000000000000000000000010000000000000000008000000100000000000000000000000000000200000000000000000000000000000000000000100001000000000000000000004000000000000000000000002000000000000080000000000000000000000000000000000000000000000000000000000000000000000000000000080000000000000000000000000",
      "type": "0x2",
      "transactionHash": "0x515c33662ab34ce2a25960149c133ce2160da2e9af7350c61cacf0ec73eb6af7",
      "transactionIndex": "0x5b",
      "blockHash": "0x954ff526a6527bd95ac804b5f1902ea2902e43ba93c312ad0641128a79ecab52",
      "blockNumber": "0x9fc264",
      "gasUsed": "0x48314",
      "effectiveGasPrice": "0x124f8d",
      "from": "0xe69228626e4800578d06a93baaa595f6634a47c3",
      "to": "0x1284e9d71a87276d05abd860bd9990dce9dd721e",
      "contractAddress": null
    },
    {
      "status": "0x1",
      "cumulativeGasUsed": "0x1634a21",
      "logs": [
        {
          "address": "0x3eee766c0d9ca7d1509e2493857449ef65a62cf3",
          "topics": [
            "0xddf252ad1be2c89b69c2b068fc378daa952ba7f163c4a11628f55a4df523b3ef",
            "0x000000000000000000000000e69228626e4800578d06a93baaa595f6634a47c3",
            "0x000000000000000000000000f66da9dd005192ee584a253b024070c9a1a1f4fa"
          ],
          "data": "0x0000000000000000000000000000000000000000000000000026f79be9333caf",
          "blockHash": "0x1d0bfd5404c60dfef82f330b74a421ac45e8a8764dc870f5b2cb58481aaaccec",
          "blockNumber": "0x9fc265",
          "blockTimestamp": "0x69ba9b4c",
          "transactionHash": "0x22f0d8302a31c8cf8a0fe428f5121e2c0def598975c59abe1495f3624142f564",
          "transactionIndex": "0x50",
          "logIndex": "0xdf",
          "removed": false
        },
        {
          "address": "0xdabc71b8cbbb062ac745cc03dcebd9c7b4d225b6",
          "topics": [
            "0xddf252ad1be2c89b69c2b068fc378daa952ba7f163c4a11628f55a4df523b3ef",
            "0x000000000000000000000000e69228626e4800578d06a93baaa595f6634a47c3",
            "0x000000000000000000000000f66da9dd005192ee584a253b024070c9a1a1f4fa"
          ],
          "data": "0x0000000000000000000000000000000000000000000000000003a4aaf7f087ad",
          "blockHash": "0x1d0bfd5404c60dfef82f330b74a421ac45e8a8764dc870f5b2cb58481aaaccec",
          "blockNumber": "0x9fc265",
          "blockTimestamp": "0x69ba9b4c",
          "transactionHash": "0x22f0d8302a31c8cf8a0fe428f5121e2c0def598975c59abe1495f3624142f564",
          "transactionIndex": "0x50",
          "logIndex": "0xe0",
          "removed": false
        },
        {
          "address": "0xf66da9dd005192ee584a253b024070c9a1a1f4fa",
          "topics": [
            "0x7a53080ba414158be7ec69b987b5fb7d07dee101fe85488f0853ae16239d0bde",
            "0x000000000000000000000000cbdae57cd2722fb8e292a876bfc641d8c7faa887",
            "0xffffffffffffffffffffffffffffffffffffffffffffffffffffffffffffffc4",
            "0x000000000000000000000000000000000000000000000000000000000000003c"
          ],
          "data": "0x0000000000000000000000001284e9d71a87276d05abd860bd9990dce9dd721e0000000000000000000000000000000000000000000000001bc16d674ec800000000000000000000000000000000000000000000000000000026f79be9333caf0000000000000000000000000000000000000000000000000003a4aaf7f087ad",
          "blockHash": "0x1d0bfd5404c60dfef82f330b74a421ac45e8a8764dc870f5b2cb58481aaaccec",
          "blockNumber": "0x9fc265",
          "blockTimestamp": "0x69ba9b4c",
          "transactionHash": "0x22f0d8302a31c8cf8a0fe428f5121e2c0def598975c59abe1495f3624142f564",
          "transactionIndex": "0x50",
          "logIndex": "0xe1",
          "removed": false
        }
      ],
      "logsBloom": "0x00000000000000000000100000050000008000100000000000000000000020010000000000000800080000000000000000000000000000200000000000000000020000000000000000000008000080000000020040000000000000000000000000200000000040000000000400000000000000000000000000000010000000000000000008000000100000000000000000000000000000200000000000000008000000000000000000000100001000000000000000000004000000000000000000000002000000000000080000000000000000000000000000000000000000000000000000000010000000000000000000000080000000000000000000000000",
      "type": "0x2",
      "transactionHash": "0x22f0d8302a31c8cf8a0fe428f5121e2c0def598975c59abe1495f3624142f564",
      "transactionIndex": "0x50",
      "blockHash": "0x1d0bfd5404c60dfef82f330b74a421ac45e8a8764dc870f5b2cb58481aaaccec",
      "blockNumber": "0x9fc265",
      "gasUsed": "0x287fa",
      "effectiveGasPrice": "0x124f8d",
      "from": "0xe69228626e4800578d06a93baaa595f6634a47c3",
      "to": "0x1284e9d71a87276d05abd860bd9990dce9dd721e",
      "contractAddress": null
    },
    {
      "status": "0x1",
      "cumulativeGasUsed": "0x7ee47d",
      "logs": [
        {
          "address": "0xdabc71b8cbbb062ac745cc03dcebd9c7b4d225b6",
          "topics": [
            "0xddf252ad1be2c89b69c2b068fc378daa952ba7f163c4a11628f55a4df523b3ef",
            "0x000000000000000000000000f66da9dd005192ee584a253b024070c9a1a1f4fa",
            "0x000000000000000000000000e69228626e4800578d06a93baaa595f6634a47c3"
          ],
          "data": "0x0000000000000000000000000000000000000000000000000000000000000064",
          "blockHash": "0xf8b7abcf3283d7004e431b913057f4abd5692712e85acf397fdba22cec56c3d1",
          "blockNumber": "0x9fc266",
          "blockTimestamp": "0x69ba9b58",
          "transactionHash": "0xedf4bf4abf7966889ac728fbc71ae27c248d10d27027c906b6adedc956ef31ed",
          "transactionIndex": "0x5d",
          "logIndex": "0x89",
          "removed": false
        },
        {
          "address": "0x3eee766c0d9ca7d1509e2493857449ef65a62cf3",
          "topics": [
            "0xddf252ad1be2c89b69c2b068fc378daa952ba7f163c4a11628f55a4df523b3ef",
            "0x000000000000000000000000e69228626e4800578d06a93baaa595f6634a47c3",
            "0x000000000000000000000000f66da9dd005192ee584a253b024070c9a1a1f4fa"
          ],
          "data": "0x0000000000000000000000000000000000000000000000000000000000000066",
          "blockHash": "0xf8b7abcf3283d7004e431b913057f4abd5692712e85acf397fdba22cec56c3d1",
          "blockNumber": "0x9fc266",
          "blockTimestamp": "0x69ba9b58",
          "transactionHash": "0xedf4bf4abf7966889ac728fbc71ae27c248d10d27027c906b6adedc956ef31ed",
          "transactionIndex": "0x5d",
          "logIndex": "0x8a",
          "removed": false
        },
        {
          "address": "0xf66da9dd005192ee584a253b024070c9a1a1f4fa",
          "topics": [
            "0xc42079f94a6350d7e6235f29174924f928cc2ac818eb64fed8004e115fbcca67",
            "0x0000000000000000000000001284e9d71a87276d05abd860bd9990dce9dd721e",
            "0x000000000000000000000000e69228626e4800578d06a93baaa595f6634a47c3"
          ],
          "data": "0x0000000000000000000000000000000000000000000000000000000000000066ffffffffffffffffffffffffffffffffffffffffffffffffffffffffffffff9c0000000000000000000000000000000000000000ff5d4ca01c9708b002be0a870000000000000000000000000000000000000000000000007ce66c50e2840000ffffffffffffffffffffffffffffffffffffffffffffffffffffffffffffffce",
          "blockHash": "0xf8b7abcf3283d7004e431b913057f4abd5692712e85acf397fdba22cec56c3d1",
          "blockNumber": "0x9fc266",
          "blockTimestamp": "0x69ba9b58",
          "transactionHash": "0xedf4bf4abf7966889ac728fbc71ae27c248d10d27027c906b6adedc956ef31ed",
          "transactionIndex": "0x5d",
          "logIndex": "0x8b",
          "removed": false
        }
      ],
      "logsBloom": "0x00000000000000000000000000010000008000100000000000000000000000000000000000000000000000000000000000000000000020200000000000000000020000000000000800000008000000000000020040000000000000000000000000200000000040000000000400000000000000000000000000000010000800000000000000000000100000000000000000000000000000200000400000000000000000000000000000000100001000000800000000000004000000000000000000000002000000000000000000000000000000000000000000000000000002000000000000000000000000000000000000000000000000000000000000000000",
      "type": "0x2",
      "transactionHash": "0xedf4bf4abf7966889ac728fbc71ae27c248d10d27027c906b6adedc956ef31ed",
      "transactionIndex": "0x5d",
      "blockHash": "0xf8b7abcf3283d7004e431b913057f4abd5692712e85acf397fdba22cec56c3d1",
      "blockNumber": "0x9fc266",
      "gasUsed": "0x1a24f",
      "effectiveGasPrice": "0x124f8d",
      "from": "0xe69228626e4800578d06a93baaa595f6634a47c3",
      "to": "0x1284e9d71a87276d05abd860bd9990dce9dd721e",
      "contractAddress": null
    },
    {
      "status": "0x1",
      "cumulativeGasUsed": "0x9988bb",
      "logs": [
        {
          "address": "0xf66da9dd005192ee584a253b024070c9a1a1f4fa",
          "topics": [
            "0x0c396cd989a39f4459b5fa1aed6a9a8dcdbc45908acfd67e028cd568da98982c",
            "0x000000000000000000000000e69228626e4800578d06a93baaa595f6634a47c3",
            "0xffffffffffffffffffffffffffffffffffffffffffffffffffffffffffffffc4",
            "0x000000000000000000000000000000000000000000000000000000000000003c"
          ],
          "data": "0x0000000000000000000000000000000000000000000000000de0b6b3a764000000000000000000000000000000000000000000000000000000137bcdf4999e620000000000000000000000000000000000000000000000000001d2557bf843cb",
          "blockHash": "0x8199874a2de3261aa48ef1e37796aa59041ce893b5805b3005ca54047e42fc50",
          "blockNumber": "0x9fc267",
          "blockTimestamp": "0x69ba9b64",
          "transactionHash": "0x375c4d016e633b64a5316112c785008373a9d6dd341130c4cd3a5edb9812846a",
          "transactionIndex": "0x66",
          "logIndex": "0xb5",
          "removed": false
        }
      ],
      "logsBloom": "0x00000000000000000000000000050000008000000000000000000000000020000000000000000800080000000000000000000000000000000200000000000000000000000000000000000000000080000000020000000000000000000000000000200000000040000000000400000000000000000004000000000000000000000000000000000000000000000000000000000000000000000000000000000000000000000000000000000000000000000000000000000000000000000000000000000000000000000000000000000000000000000000000000000000000000000000080000000000000000000000000000000080000000000000000000000000",
      "type": "0x2",
      "transactionHash": "0x375c4d016e633b64a5316112c785008373a9d6dd341130c4cd3a5edb9812846a",
      "transactionIndex": "0x66",
      "blockHash": "0x8199874a2de3261aa48ef1e37796aa59041ce893b5805b3005ca54047e42fc50",
      "blockNumber": "0x9fc267",
      "gasUsed": "0x19147",
      "effectiveGasPrice": "0x124f8d",
      "from": "0xe69228626e4800578d06a93baaa595f6634a47c3",
      "to": "0xf66da9dd005192ee584a253b024070c9a1a1f4fa",
      "contractAddress": null
    },
    {
      "status": "0x1",
      "cumulativeGasUsed": "0x5ea9bc",
      "logs": [
        {
          "address": "0xf66da9dd005192ee584a253b024070c9a1a1f4fa",
          "topics": [
            "0x0c396cd989a39f4459b5fa1aed6a9a8dcdbc45908acfd67e028cd568da98982c",
            "0x000000000000000000000000cbdae57cd2722fb8e292a876bfc641d8c7faa887",
            "0xffffffffffffffffffffffffffffffffffffffffffffffffffffffffffffffc4",
            "0x000000000000000000000000000000000000000000000000000000000000003c"
          ],
          "data": "0x0000000000000000000000000000000000000000000000001bc16d674ec800000000000000000000000000000000000000000000000000000026f79be9333cc50000000000000000000000000000000000000000000000000003a4aaf7f08796",
          "blockHash": "0x8a13ad91d0b600d76a95de5be598fc0f3bd49be284596eaf4db06aa78c6ea005",
          "blockNumber": "0x9fc268",
          "blockTimestamp": "0x69ba9b70",
          "transactionHash": "0xdd56e333747f385408eb3a5d91bd04d287b9ce85e7aab8e9c4719ab6e892541c",
          "transactionIndex": "0x50",
          "logIndex": "0x82",
          "removed": false
        }
      ],
      "logsBloom": "0x00000000000000000000000000040000008000000000000000000000000020010000000000000800080000000000000000000000000000000200000000000000000000000000000000000000000080000000020000000000000000000000000000000000000000000000000400000000000000000004000000000000000000000000000000000000000000000000000000000000000000000000000000000008000000000000000000000000000000000000000000000000000000000000000000000000000000000000000000000000000000000000000000000000000000000000080000000010000000000000000000000080000000000000000000000000",
      "type": "0x2",
      "transactionHash": "0xdd56e333747f385408eb3a5d91bd04d287b9ce85e7aab8e9c4719ab6e892541c",
      "transactionIndex": "0x50",
      "blockHash": "0x8a13ad91d0b600d76a95de5be598fc0f3bd49be284596eaf4db06aa78c6ea005",
      "blockNumber": "0x9fc268",
      "gasUsed": "0x1adfb",
      "effectiveGasPrice": "0x124f8d",
      "from": "0xcbdae57cd2722fb8e292a876bfc641d8c7faa887",
      "to": "0xf66da9dd005192ee584a253b024070c9a1a1f4fa",
      "contractAddress": null
    }
  ],
  "libraries": [],
  "pending": [],
  "returns": {},
  "timestamp": 1773837168509,
  "chain": 11155111,
  "commit": "de34f06"
}