{
  "transactions": [
    {
      "hash": "0x80b24570fca2513b95eda0553727c86e2f62c03b29b884e04c0566dc247c35a9",
      "transactionType": "CALL",
      "contractName": null,
      "contractAddress": "0x1284e9d71a87276d05abd860bd9990dce9dd721e",
      "function": "mint(address,address,int24,int24,uint128)",
      "arguments": [
        "0xF66da9dd005192ee584a253b024070c9A1A1F4FA",
        "0xe69228626E4800578D06a93BaaA595f6634A47C3",
        "-60",
        "60",
        "1000000000000000000"
      ],
      "transaction": {
        "from": "0xe69228626e4800578d06a93baaa595f6634a47c3",
        "to": "0x1284e9d71a87276d05abd860bd9990dce9dd721e",
        "gas": "0x63b73",
        "value": "0x0",
        "input": "0x7b4f5327000000000000000000000000f66da9dd005192ee584a253b024070c9a1a1f4fa000000000000000000000000e69228626e4800578d06a93baaa595f6634a47c3ffffffffffffffffffffffffffffffffffffffffffffffffffffffffffffffc4000000000000000000000000000000000000000000000000000000000000003c0000000000000000000000000000000000000000000000000de0b6b3a7640000",
        "nonce": "0x1d0",
        "chainId": "0xaa36a7"
      },
      "additionalContracts": [],
      "isFixedGasLimit": false
    },
    {
      "hash": "0xd230a55a765e7693339b8feddfe0fc5393058d14712e714abe4b7922717ffcad",
      "transactionType": "CALL",
      "contractName": null,
      "contractAddress": "0x1284e9d71a87276d05abd860bd9990dce9dd721e",
      "function": "mint(address,address,int24,int24,uint128)",
      "arguments": [
        "0xF66da9dd005192ee584a253b024070c9A1A1F4FA",
        "0xcBdAE57cd2722fB8e292A876BfC641D8C7faA887",
        "-60",
        "60",
        "2000000000000000000"
      ],
      "transaction": {
        "from": "0xe69228626e4800578d06a93baaa595f6634a47c3",
        "to": "0x1284e9d71a87276d05abd860bd9990dce9dd721e",
        "gas": "0x36762",
        "value": "0x0",
        "input": "0x7b4f5327000000000000000000000000f66da9dd005192ee584a253b024070c9a1a1f4fa000000000000000000000000cbdae57cd2722fb8e292a876bfc641d8c7faa887ffffffffffffffffffffffffffffffffffffffffffffffffffffffffffffffc4000000000000000000000000000000000000000000000000000000000000003c0000000000000000000000000000000000000000000000001bc16d674ec80000",
        "nonce": "0x1d1",
        "chainId": "0xaa36a7"
      },
      "additionalContracts": [],
      "isFixedGasLimit": false
    },
    {
      "hash": "0x8ea8a23ec255948c7443fb0ec34b61848841c105a329c4a8d4cbdfe87a228b2c",
      "transactionType": "CALL",
      "contractName": null,
      "contractAddress": "0x1284e9d71a87276d05abd860bd9990dce9dd721e",
      "function": "swap(address,address,bool,int256,uint160)",
      "arguments": [
        "0xF66da9dd005192ee584a253b024070c9A1A1F4FA",
        "0xe69228626E4800578D06a93BaaA595f6634A47C3",
        "true",
        "-100",
        "4295128740"
      ],
      "transaction": {
        "from": "0xe69228626e4800578d06a93baaa595f6634a47c3",
        "to": "0x1284e9d71a87276d05abd860bd9990dce9dd721e",
        "gas": "0x241c8",
        "value": "0x0",
        "input": "0xa12578dc000000000000000000000000f66da9dd005192ee584a253b024070c9a1a1f4fa000000000000000000000000e69228626e4800578d06a93baaa595f6634a47c30000000000000000000000000000000000000000000000000000000000000001ffffffffffffffffffffffffffffffffffffffffffffffffffffffffffffff9c00000000000000000000000000000000000000000000000000000001000276a4",
        "nonce": "0x1d2",
        "chainId": "0xaa36a7"
      },
      "additionalContracts": [],
      "isFixedGasLimit": false
    },
    {
      "hash": "0x83faaf67f7519f1c35b62a27dcec7d711924bd37999c5290b756c7a70c7c0e0e",
      "transactionType": "CALL",
      "contractName": null,
      "contractAddress": "0xf66da9dd005192ee584a253b024070c9a1a1f4fa",
      "function": "burn(int24,int24,uint128)",
      "arguments": [
        "-60",
        "60",
        "1000000000000000000"
      ],
      "transaction": {
        "from": "0xe69228626e4800578d06a93baaa595f6634a47c3",
        "to": "0xf66da9dd005192ee584a253b024070c9a1a1f4fa",
        "gas": "0x212a3",
        "value": "0x0",
        "input": "0xa34123a7ffffffffffffffffffffffffffffffffffffffffffffffffffffffffffffffc4000000000000000000000000000000000000000000000000000000000000003c0000000000000000000000000000000000000000000000000de0b6b3a7640000",
        "nonce": "0x1d3",
        "chainId": "0xaa36a7"
      },
      "additionalContracts": [],
      "isFixedGasLimit": false
    },
    {
      "hash": "0x500343125fce2df9b7816998dbbdb8b08f82c02940e71a9aa25b628180c9d160",
      "transactionType": "CALL",
      "contractName": null,
      "contractAddress": "0xf66da9dd005192ee584a253b024070c9a1a1f4fa",
      "function": "burn(int24,int24,uint128)",
      "arguments": [
        "-60",
        "60",
        "2000000000000000000"
      ],
      "transaction": {
        "from": "0xcbdae57cd2722fb8e292a876bfc641d8c7faa887",
        "to": "0xf66da9dd005192ee584a253b024070c9a1a1f4fa",
        "gas": "0x23f01",
        "value": "0x0",
        "input": "0xa34123a7ffffffffffffffffffffffffffffffffffffffffffffffffffffffffffffffc4000000000000000000000000000000000000000000000000000000000000003c0000000000000000000000000000000000000000000000001bc16d674ec80000",
        "nonce": "0xf5",
        "chainId": "0xaa36a7"
      },
      "additionalContracts": [],
      "isFixedGasLimit": false
    }
  ],
  "receipts": [
    {
      "status": "0x1",
      "cumulativeGasUsed": "0xf80fac",
      "logs": [
        {
          "address": "0x3eee766c0d9ca7d1509e2493857449ef65a62cf3",
          "topics": [
            "0xddf252ad1be2c89b69c2b068fc378daa952ba7f163c4a11628f55a4df523b3ef",
            "0x000000000000000000000000e69228626e4800578d06a93baaa595f6634a47c3",
            "0x000000000000000000000000f66da9dd005192ee584a253b024070c9a1a1f4fa"
          ],
          "data": "0x00000000000000000000000000000000000000000000000000137bcdf4999e42",
          "blockHash": "0xdf7bc930f76f581a7c2113976c7611a79a5bf9bcbd97796ffd12d8bbaa62c110",
          "blockNumber": "0x9fc184",
          "blockTimestamp": "0x69ba8f94",
          "transactionHash": "0x80b24570fca2513b95eda0553727c86e2f62c03b29b884e04c0566dc247c35a9",
          "transactionIndex": "0x56",
          "logIndex": "0x64",
          "removed": false
        },
        {
          "address": "0xdabc71b8cbbb062ac745cc03dcebd9c7b4d225b6",
          "topics": [
            "0xddf252ad1be2c89b69c2b068fc378daa952ba7f163c4a11628f55a4df523b3ef",
            "0x000000000000000000000000e69228626e4800578d06a93baaa595f6634a47c3",
            "0x000000000000000000000000f66da9dd005192ee584a253b024070c9a1a1f4fa"
          ],
          "data": "0x0000000000000000000000000000000000000000000000000001d2557bf843ed",
          "blockHash": "0xdf7bc930f76f581a7c2113976c7611a79a5bf9bcbd97796ffd12d8bbaa62c110",
          "blockNumber": "0x9fc184",
          "blockTimestamp": "0x69ba8f94",
          "transactionHash": "0x80b24570fca2513b95eda0553727c86e2f62c03b29b884e04c0566dc247c35a9",
          "transactionIndex": "0x56",
          "logIndex": "0x65",
          "removed": false
        },
        {
          "address": "0xf66da9dd005192ee584a253b024070c9a1a1f4fa",
          "topics": [
            "0x7a53080ba414158be7ec69b987b5fb7d07dee101fe85488f0853ae16239d0bde",
            "0x000000000000000000000000e69228626e4800578d06a93baaa595f6634a47c3",
            "0xffffffffffffffffffffffffffffffffffffffffffffffffffffffffffffffc4",
            "0x000000000000000000000000000000000000000000000000000000000000003c"
          ],
          "data": "0x0000000000000000000000001284e9d71a87276d05abd860bd9990dce9dd721e0000000000000000000000000000000000000000000000000de0b6b3a764000000000000000000000000000000000000000000000000000000137bcdf4999e420000000000000000000000000000000000000000000000000001d2557bf843ed",
          "blockHash": "0xdf7bc930f76f581a7c2113976c7611a79a5bf9bcbd97796ffd12d8bbaa62c110",
          "blockNumber": "0x9fc184",
          "blockTimestamp": "0x69ba8f94",
          "transactionHash": "0x80b24570fca2513b95eda0553727c86e2f62c03b29b884e04c0566dc247c35a9",
          "transactionIndex": "0x56",
          "logIndex": "0x66",
          "removed": false
        }
      ],
      "logsBloom": "0x00000000000000000000100000050000008000100000000000000000000020000000000000000800080000000000000000000000000000200000000000000000020000000000000000000008000080000000020040000000000000000000000000200000000040000000000400000000000000000000000000000010000000000000000008000000100000000000000000000000000000200000000000000000000000000000000000000100001000000000000000000004000000000000000000000002000000000000080000000000000000000000000000000000000000000000000000000000000000000000000000000080000000000000000000000000",
      "type": "0x2",
      "transactionHash": "0x80b24570fca2513b95eda0553727c86e2f62c03b29b884e04c0566dc247c35a9",
      "transactionIndex": "0x56",
      "blockHash": "0xdf7bc930f76f581a7c2113976c7611a79a5bf9bcbd97796ffd12d8bbaa62c110",
      "blockNumber": "0x9fc184",
      "gasUsed": "0x48314",
      "effectiveGasPrice": "0xf424f",
      "from": "0xe69228626e4800578d06a93baaa595f6634a47c3",
      "to": "0x1284e9d71a87276d05abd860bd9990dce9dd721e",
      "contractAddress": null
    },
    {
      "status": "0x1",
      "cumulativeGasUsed": "0x7ca756",
      "logs": [
        {
          "address": "0x3eee766c0d9ca7d1509e2493857449ef65a62cf3",
          "topics": [
            "0xddf252ad1be2c89b69c2b068fc378daa952ba7f163c4a11628f55a4df523b3ef",
            "0x000000000000000000000000e69228626e4800578d06a93baaa595f6634a47c3",
            "0x000000000000000000000000f66da9dd005192ee584a253b024070c9a1a1f4fa"
          ],
          "data": "0x0000000000000000000000000000000000000000000000000026f79be9333c83",
          "blockHash": "0x4cf587d1564da3bad6699be10767f750a78e68c58baff9fd8c3b4cf240e42c72",
          "blockNumber": "0x9fc185",
          "blockTimestamp": "0x69ba8fa0",
          "transactionHash": "0xd230a55a765e7693339b8feddfe0fc5393058d14712e714abe4b7922717ffcad",
          "transactionIndex": "0x70",
          "logIndex": "0xb0",
          "removed": false
        },
        {
          "address": "0xdabc71b8cbbb062ac745cc03dcebd9c7b4d225b6",
          "topics": [
            "0xddf252ad1be2c89b69c2b068fc378daa952ba7f163c4a11628f55a4df523b3ef",
            "0x000000000000000000000000e69228626e4800578d06a93baaa595f6634a47c3",
            "0x000000000000000000000000f66da9dd005192ee584a253b024070c9a1a1f4fa"
          ],
          "data": "0x0000000000000000000000000000000000000000000000000003a4aaf7f087da",
          "blockHash": "0x4cf587d1564da3bad6699be10767f750a78e68c58baff9fd8c3b4cf240e42c72",
          "blockNumber": "0x9fc185",
          "blockTimestamp": "0x69ba8fa0",
          "transactionHash": "0xd230a55a765e7693339b8feddfe0fc5393058d14712e714abe4b7922717ffcad",
          "transactionIndex": "0x70",
          "logIndex": "0xb1",
          "removed": false
        },
        {
          "address": "0xf66da9dd005192ee584a253b024070c9a1a1f4fa",
          "topics": [
            "0x7a53080ba414158be7ec69b987b5fb7d07dee101fe85488f0853ae16239d0bde",
            "0x000000000000000000000000cbdae57cd2722fb8e292a876bfc641d8c7faa887",
            "0xffffffffffffffffffffffffffffffffffffffffffffffffffffffffffffffc4",
            "0x000000000000000000000000000000000000000000000000000000000000003c"
          ],
          "data": "0x0000000000000000000000001284e9d71a87276d05abd860bd9990dce9dd721e0000000000000000000000000000000000000000000000001bc16d674ec800000000000000000000000000000000000000000000000000000026f79be9333c830000000000000000000000000000000000000000000000000003a4aaf7f087da",
          "blockHash": "0x4cf587d1564da3bad6699be10767f750a78e68c58baff9fd8c3b4cf240e42c72",
          "blockNumber": "0x9fc185",
          "blockTimestamp": "0x69ba8fa0",
          "transactionHash": "0xd230a55a765e7693339b8feddfe0fc5393058d14712e714abe4b7922717ffcad",
          "transactionIndex": "0x70",
          "logIndex": "0xb2",
          "removed": false
        }
      ],
      "logsBloom": "0x00000000000000000000100000050000008000100000000000000000000020010000000000000800080000000000000000000000000000200000000000000000020000000000000000000008000080000000020040000000000000000000000000200000000040000000000400000000000000000000000000000010000000000000000008000000100000000000000000000000000000200000000000000008000000000000000000000100001000000000000000000004000000000000000000000002000000000000080000000000000000000000000000000000000000000000000000000010000000000000000000000080000000000000000000000000",
      "type": "0x2",
      "transactionHash": "0xd230a55a765e7693339b8feddfe0fc5393058d14712e714abe4b7922717ffcad",
      "transactionIndex": "0x70",
      "blockHash": "0x4cf587d1564da3bad6699be10767f750a78e68c58baff9fd8c3b4cf240e42c72",
      "blockNumber": "0x9fc185",
      "gasUsed": "0x287fa",
      "effectiveGasPrice": "0xf424f",
      "from": "0xe69228626e4800578d06a93baaa595f6634a47c3",
      "to": "0x1284e9d71a87276d05abd860bd9990dce9dd721e",
      "contractAddress": null
    },
    {
      "status": "0x1",
      "cumulativeGasUsed": "0x11f9246",
      "logs": [
        {
          "address": "0xdabc71b8cbbb062ac745cc03dcebd9c7b4d225b6",
          "topics": [
            "0xddf252ad1be2c89b69c2b068fc378daa952ba7f163c4a11628f55a4df523b3ef",
            "0x000000000000000000000000f66da9dd005192ee584a253b024070c9a1a1f4fa",
            "0x000000000000000000000000e69228626e4800578d06a93baaa595f6634a47c3"
          ],
          "data": "0x0000000000000000000000000000000000000000000000000000000000000064",
          "blockHash": "0x0b5caabf5b1d1fc8ce4b6f7494995c1c12d446c56225f2371f124c0199eeb6d0",
          "blockNumber": "0x9fc186",
          "blockTimestamp": "0x69ba8fac",
          "transactionHash": "0x8ea8a23ec255948c7443fb0ec34b61848841c105a329c4a8d4cbdfe87a228b2c",
          "transactionIndex": "0xbb",
          "logIndex": "0xe2",
          "removed": false
        },
        {
          "address": "0x3eee766c0d9ca7d1509e2493857449ef65a62cf3",
          "topics": [
            "0xddf252ad1be2c89b69c2b068fc378daa952ba7f163c4a11628f55a4df523b3ef",
            "0x000000000000000000000000e69228626e4800578d06a93baaa595f6634a47c3",
            "0x000000000000000000000000f66da9dd005192ee584a253b024070c9a1a1f4fa"
          ],
          "data": "0x0000000000000000000000000000000000000000000000000000000000000066",
          "blockHash": "0x0b5caabf5b1d1fc8ce4b6f7494995c1c12d446c56225f2371f124c0199eeb6d0",
          "blockNumber": "0x9fc186",
          "blockTimestamp": "0x69ba8fac",
          "transactionHash": "0x8ea8a23ec255948c7443fb0ec34b61848841c105a329c4a8d4cbdfe87a228b2c",
          "transactionIndex": "0xbb",
          "logIndex": "0xe3",
          "removed": false
        },
        {
          "address": "0xf66da9dd005192ee584a253b024070c9a1a1f4fa",
          "topics": [
            "0xc42079f94a6350d7e6235f29174924f928cc2ac818eb64fed8004e115fbcca67",
            "0x0000000000000000000000001284e9d71a87276d05abd860bd9990dce9dd721e",
            "0x000000000000000000000000e69228626e4800578d06a93baaa595f6634a47c3"
          ],
          "data": "0x0000000000000000000000000000000000000000000000000000000000000066ffffffffffffffffffffffffffffffffffffffffffffffffffffffffffffff9c0000000000000000000000000000000000000000ff5d4ca01c970a49f038413b0000000000000000000000000000000000000000000000007ce66c50e2840000ffffffffffffffffffffffffffffffffffffffffffffffffffffffffffffffce",
          "blockHash": "0x0b5caabf5b1d1fc8ce4b6f7494995c1c12d446c56225f2371f124c0199eeb6d0",
          "blockNumber": "0x9fc186",
          "blockTimestamp": "0x69ba8fac",
          "transactionHash": "0x8ea8a23ec255948c7443fb0ec34b61848841c105a329c4a8d4cbdfe87a228b2c",
          "transactionIndex": "0xbb",
          "logIndex": "0xe4",
          "removed": false
        }
      ],
      "logsBloom": "0x00000000000000000000000000010000008000100000000000000000000000000000000000000000000000000000000000000000000020200000000000000000020000000000000800000008000000000000020040000000000000000000000000200000000040000000000400000000000000000000000000000010000800000000000000000000100000000000000000000000000000200000400000000000000000000000000000000100001000000800000000000004000000000000000000000002000000000000000000000000000000000000000000000000000002000000000000000000000000000000000000000000000000000000000000000000",
      "type": "0x2",
      "transactionHash": "0x8ea8a23ec255948c7443fb0ec34b61848841c105a329c4a8d4cbdfe87a228b2c",
      "transactionIndex": "0xbb",
      "blockHash": "0x0b5caabf5b1d1fc8ce4b6f7494995c1c12d446c56225f2371f124c0199eeb6d0",
      "blockNumber": "0x9fc186",
      "gasUsed": "0x1a24f",
      "effectiveGasPrice": "0xf424e",
      "from": "0xe69228626e4800578d06a93baaa595f6634a47c3",
      "to": "0x1284e9d71a87276d05abd860bd9990dce9dd721e",
      "contractAddress": null
    },
    {
      "status": "0x1",
      "cumulativeGasUsed": "0xf737de",
      "logs": [
        {
          "address": "0xf66da9dd005192ee584a253b024070c9a1a1f4fa",
          "topics": [
            "0x0c396cd989a39f4459b5fa1aed6a9a8dcdbc45908acfd67e028cd568da98982c",
            "0x000000000000000000000000e69228626e4800578d06a93baaa595f6634a47c3",
            "0xffffffffffffffffffffffffffffffffffffffffffffffffffffffffffffffc4",
            "0x000000000000000000000000000000000000000000000000000000000000003c"
          ],
          "data": "0x0000000000000000000000000000000000000000000000000de0b6b3a764000000000000000000000000000000000000000000000000000000137bcdf4999e4c0000000000000000000000000000000000000000000000000001d2557bf843e1",
          "blockHash": "0x3a4b910d105fffc08caf570f4b5a58f897a7822b3903f69b31b11c39fbf150b7",
          "blockNumber": "0x9fc187",
          "blockTimestamp": "0x69ba8fb8",
          "transactionHash": "0x83faaf67f7519f1c35b62a27dcec7d711924bd37999c5290b756c7a70c7c0e0e",
          "transactionIndex": "0x5f",
          "logIndex": "0x9e",
          "removed": false
        }
      ],
      "logsBloom": "0x00000000000000000000000000050000008000000000000000000000000020000000000000000800080000000000000000000000000000000200000000000000000000000000000000000000000080000000020000000000000000000000000000200000000040000000000400000000000000000004000000000000000000000000000000000000000000000000000000000000000000000000000000000000000000000000000000000000000000000000000000000000000000000000000000000000000000000000000000000000000000000000000000000000000000000000080000000000000000000000000000000080000000000000000000000000",
      "type": "0x2",
      "transactionHash": "0x83faaf67f7519f1c35b62a27dcec7d711924bd37999c5290b756c7a70c7c0e0e",
      "transactionIndex": "0x5f",
      "blockHash": "0x3a4b910d105fffc08caf570f4b5a58f897a7822b3903f69b31b11c39fbf150b7",
      "blockNumber": "0x9fc187",
      "gasUsed": "0x19147",
      "effectiveGasPrice": "0xf424e",
      "from": "0xe69228626e4800578d06a93baaa595f6634a47c3",
      "to": "0xf66da9dd005192ee584a253b024070c9a1a1f4fa",
      "contractAddress": null
    },
    {
      "status": "0x1",
      "cumulativeGasUsed": "0x15c5f03",
      "logs": [
        {
          "address": "0xf66da9dd005192ee584a253b024070c9a1a1f4fa",
          "topics": [
            "0x0c396cd989a39f4459b5fa1aed6a9a8dcdbc45908acfd67e028cd568da98982c",
            "0x000000000000000000000000cbdae57cd2722fb8e292a876bfc641d8c7faa887",
            "0xffffffffffffffffffffffffffffffffffffffffffffffffffffffffffffffc4",
            "0x000000000000000000000000000000000000000000000000000000000000003c"
          ],
          "data": "0x0000000000000000000000000000000000000000000000001bc16d674ec800000000000000000000000000000000000000000000000000000026f79be9333c980000000000000000000000000000000000000000000000000003a4aaf7f087c2",
          "blockHash": "0x18b8b5279acc0388e1d2a52b652b0927cc1fc09f729f197f4ba647b183b85fa4",
          "blockNumber": "0x9fc189",
          "blockTimestamp": "0x69ba8fdc",
          "transactionHash": "0x500343125fce2df9b7816998dbbdb8b08f82c02940e71a9aa25b628180c9d160",
          "transactionIndex": "0xd0",
          "logIndex": "0x16b",
          "removed": false
        }
      ],
      "logsBloom": "0x00000000000000000000000000040000008000000000000000000000000020010000000000000800080000000000000000000000000000000200000000000000000000000000000000000000000080000000020000000000000000000000000000000000000000000000000400000000000000000004000000000000000000000000000000000000000000000000000000000000000000000000000000000008000000000000000000000000000000000000000000000000000000000000000000000000000000000000000000000000000000000000000000000000000000000000080000000010000000000000000000000080000000000000000000000000",
      "type": "0x2",
      "transactionHash": "0x500343125fce2df9b7816998dbbdb8b08f82c02940e71a9aa25b628180c9d160",
      "transactionIndex": "0xd0",
      "blockHash": "0x18b8b5279acc0388e1d2a52b652b0927cc1fc09f729f197f4ba647b183b85fa4",
      "blockNumber": "0x9fc189",
      "gasUsed": "0x1adfb",
      "effectiveGasPrice": "0xf424d",
      "from": "0xcbdae57cd2722fb8e292a876bfc641d8c7faa887",
      "to": "0xf66da9dd005192ee584a253b024070c9a1a1f4fa",
      "contractAddress": null
    }
  ],
  "libraries": [],
  "pending": [],
  "returns": {},
  "timestamp": 1773834206231,
  "chain": 11155111,
  "commit": "de34f06"
}