{
  "transactions": [
    {
      "hash": "0xda9adb337d880b2b497d23c9d3970d54775100d4ca552daeefae49c2858c4461",
      "transactionType": "CALL",
      "contractName": null,
      "contractAddress": "0x1284e9d71a87276d05abd860bd9990dce9dd721e",
      "function": "mint(address,address,int24,int24,uint128)",
      "arguments": [
        "0xF66da9dd005192ee584a253b024070c9A1A1F4FA",
        "0xe69228626E4800578D06a93BaaA595f6634A47C3",
        "-60",
        "60",
        "1000000000000000000"
      ],
      "transaction": {
        "from": "0xe69228626e4800578d06a93baaa595f6634a47c3",
        "to": "0x1284e9d71a87276d05abd860bd9990dce9dd721e",
        "gas": "0x6463d",
        "value": "0x0",
        "input": "0x7b4f5327000000000000000000000000f66da9dd005192ee584a253b024070c9a1a1f4fa000000000000000000000000e69228626e4800578d06a93baaa595f6634a47c3ffffffffffffffffffffffffffffffffffffffffffffffffffffffffffffffc4000000000000000000000000000000000000000000000000000000000000003c0000000000000000000000000000000000000000000000000de0b6b3a7640000",
        "nonce": "0x1bb",
        "chainId": "0xaa36a7"
      },
      "additionalContracts": [],
      "isFixedGasLimit": false
    },
    {
      "hash": "0xaa887bb3eee4c33b2fe5987daa393394c61e8ecf8f019f87b097771319fedfb3",
      "transactionType": "CALL",
      "contractName": null,
      "contractAddress": "0x1284e9d71a87276d05abd860bd9990dce9dd721e",
      "function": "mint(address,address,int24,int24,uint128)",
      "arguments": [
        "0xF66da9dd005192ee584a253b024070c9A1A1F4FA",
        "0xcBdAE57cd2722fB8e292A876BfC641D8C7faA887",
        "-60",
        "60",
        "2000000000000000000"
      ],
      "transaction": {
        "from": "0xe69228626e4800578d06a93baaa595f6634a47c3",
        "to": "0x1284e9d71a87276d05abd860bd9990dce9dd721e",
        "gas": "0x3722d",
        "value": "0x0",
        "input": "0x7b4f5327000000000000000000000000f66da9dd005192ee584a253b024070c9a1a1f4fa000000000000000000000000cbdae57cd2722fb8e292a876bfc641d8c7faa887ffffffffffffffffffffffffffffffffffffffffffffffffffffffffffffffc4000000000000000000000000000000000000000000000000000000000000003c0000000000000000000000000000000000000000000000001bc16d674ec80000",
        "nonce": "0x1bc",
        "chainId": "0xaa36a7"
      },
      "additionalContracts": [],
      "isFixedGasLimit": false
    },
    {
      "hash": "0x62b9856a9502277ddcfed23121e141476ea923987189ca5484e0d48a62ed82d9",
      "transactionType": "CALL",
      "contractName": null,
      "contractAddress": "0x1284e9d71a87276d05abd860bd9990dce9dd721e",
      "function": "swap(address,address,bool,int256,uint160)",
      "arguments": [
        "0xF66da9dd005192ee584a253b024070c9A1A1F4FA",
        "0xe69228626E4800578D06a93BaaA595f6634A47C3",
        "true",
        "-100",
        "4295128740"
      ],
      "transaction": {
        "from": "0xe69228626e4800578d06a93baaa595f6634a47c3",
        "to": "0x1284e9d71a87276d05abd860bd9990dce9dd721e",
        "gas": "0x241c8",
        "value": "0x0",
        "input": "0xa12578dc000000000000000000000000f66da9dd005192ee584a253b024070c9a1a1f4fa000000000000000000000000e69228626e4800578d06a93baaa595f6634a47c30000000000000000000000000000000000000000000000000000000000000001ffffffffffffffffffffffffffffffffffffffffffffffffffffffffffffff9c00000000000000000000000000000000000000000000000000000001000276a4",
        "nonce": "0x1bd",
        "chainId": "0xaa36a7"
      },
      "additionalContracts": [],
      "isFixedGasLimit": false
    },
    {
      "hash": "0x4d38b740761b49b66931358044e49617f719befb1d59e9a2f722d6901cbff159",
      "transactionType": "CALL",
      "contractName": null,
      "contractAddress": "0xf66da9dd005192ee584a253b024070c9a1a1f4fa",
      "function": "burn(int24,int24,uint128)",
      "arguments": [
        "-60",
        "60",
        "1000000000000000000"
      ],
      "transaction": {
        "from": "0xe69228626e4800578d06a93baaa595f6634a47c3",
        "to": "0xf66da9dd005192ee584a253b024070c9a1a1f4fa",
        "gas": "0x2938c",
        "value": "0x0",
        "input": "0xa34123a7ffffffffffffffffffffffffffffffffffffffffffffffffffffffffffffffc4000000000000000000000000000000000000000000000000000000000000003c0000000000000000000000000000000000000000000000000de0b6b3a7640000",
        "nonce": "0x1be",
        "chainId": "0xaa36a7"
      },
      "additionalContracts": [],
      "isFixedGasLimit": false
    },
    {
      "hash": "0x15e71ea17a20f48202b00df24c3aad1589ac26c4d939e112b4b4bc2c8ce8f216",
      "transactionType": "CALL",
      "contractName": null,
      "contractAddress": "0xf66da9dd005192ee584a253b024070c9a1a1f4fa",
      "function": "burn(int24,int24,uint128)",
      "arguments": [
        "-60",
        "60",
        "2000000000000000000"
      ],
      "transaction": {
        "from": "0xcbdae57cd2722fb8e292a876bfc641d8c7faa887",
        "to": "0xf66da9dd005192ee584a253b024070c9a1a1f4fa",
        "gas": "0x288d1",
        "value": "0x0",
        "input": "0xa34123a7ffffffffffffffffffffffffffffffffffffffffffffffffffffffffffffffc4000000000000000000000000000000000000000000000000000000000000003c0000000000000000000000000000000000000000000000001bc16d674ec80000",
        "nonce": "0xf3",
        "chainId": "0xaa36a7"
      },
      "additionalContracts": [],
      "isFixedGasLimit": false
    }
  ],
  "receipts": [
    {
      "status": "0x1",
      "cumulativeGasUsed": "0x8f8c42",
      "logs": [
        {
          "address": "0x3eee766c0d9ca7d1509e2493857449ef65a62cf3",
          "topics": [
            "0xddf252ad1be2c89b69c2b068fc378daa952ba7f163c4a11628f55a4df523b3ef",
            "0x000000000000000000000000e69228626e4800578d06a93baaa595f6634a47c3",
            "0x000000000000000000000000f66da9dd005192ee584a253b024070c9a1a1f4fa"
          ],
          "data": "0x00000000000000000000000000000000000000000000000000137bcdf4999e2b",
          "blockHash": "0x2f1913af8672c74991125da1c4980f94d8d6849e2466227fe3cee46b84beb410",
          "blockNumber": "0x9fc12e",
          "blockTimestamp": "0x69ba8b14",
          "transactionHash": "0xda9adb337d880b2b497d23c9d3970d54775100d4ca552daeefae49c2858c4461",
          "transactionIndex": "0x4c",
          "logIndex": "0x87",
          "removed": false
        },
        {
          "address": "0xdabc71b8cbbb062ac745cc03dcebd9c7b4d225b6",
          "topics": [
            "0xddf252ad1be2c89b69c2b068fc378daa952ba7f163c4a11628f55a4df523b3ef",
            "0x000000000000000000000000e69228626e4800578d06a93baaa595f6634a47c3",
            "0x000000000000000000000000f66da9dd005192ee584a253b024070c9a1a1f4fa"
          ],
          "data": "0x0000000000000000000000000000000000000000000000000001d2557bf84403",
          "blockHash": "0x2f1913af8672c74991125da1c4980f94d8d6849e2466227fe3cee46b84beb410",
          "blockNumber": "0x9fc12e",
          "blockTimestamp": "0x69ba8b14",
          "transactionHash": "0xda9adb337d880b2b497d23c9d3970d54775100d4ca552daeefae49c2858c4461",
          "transactionIndex": "0x4c",
          "logIndex": "0x88",
          "removed": false
        },
        {
          "address": "0xf66da9dd005192ee584a253b024070c9a1a1f4fa",
          "topics": [
            "0x7a53080ba414158be7ec69b987b5fb7d07dee101fe85488f0853ae16239d0bde",
            "0x000000000000000000000000e69228626e4800578d06a93baaa595f6634a47c3",
            "0xffffffffffffffffffffffffffffffffffffffffffffffffffffffffffffffc4",
            "0x000000000000000000000000000000000000000000000000000000000000003c"
          ],
          "data": "0x0000000000000000000000001284e9d71a87276d05abd860bd9990dce9dd721e0000000000000000000000000000000000000000000000000de0b6b3a764000000000000000000000000000000000000000000000000000000137bcdf4999e2b0000000000000000000000000000000000000000000000000001d2557bf84403",
          "blockHash": "0x2f1913af8672c74991125da1c4980f94d8d6849e2466227fe3cee46b84beb410",
          "blockNumber": "0x9fc12e",
          "blockTimestamp": "0x69ba8b14",
          "transactionHash": "0xda9adb337d880b2b497d23c9d3970d54775100d4ca552daeefae49c2858c4461",
          "transactionIndex": "0x4c",
          "logIndex": "0x89",
          "removed": false
        }
      ],
      "logsBloom": "0x00000000000000000000100000050000008000100000000000000000000020000000000000000800080000000000000000000000000000200000000000000000020000000000000000000008000080000000020040000000000000000000000000200000000040000000000400000000000000000000000000000010000000000000000008000000100000000000000000000000000000200000000000000000000000000000000000000100001000000000000000000004000000000000000000000002000000000000080000000000000000000000000000000000000000000000000000000000000000000000000000000080000000000000000000000000",
      "type": "0x2",
      "transactionHash": "0xda9adb337d880b2b497d23c9d3970d54775100d4ca552daeefae49c2858c4461",
      "transactionIndex": "0x4c",
      "blockHash": "0x2f1913af8672c74991125da1c4980f94d8d6849e2466227fe3cee46b84beb410",
      "blockNumber": "0x9fc12e",
      "gasUsed": "0x48ae4",
      "effectiveGasPrice": "0xf424e",
      "from": "0xe69228626e4800578d06a93baaa595f6634a47c3",
      "to": "0x1284e9d71a87276d05abd860bd9990dce9dd721e",
      "contractAddress": null
    },
    {
      "status": "0x1",
      "cumulativeGasUsed": "0xd157b3",
      "logs": [
        {
          "address": "0x3eee766c0d9ca7d1509e2493857449ef65a62cf3",
          "topics": [
            "0xddf252ad1be2c89b69c2b068fc378daa952ba7f163c4a11628f55a4df523b3ef",
            "0x000000000000000000000000e69228626e4800578d06a93baaa595f6634a47c3",
            "0x000000000000000000000000f66da9dd005192ee584a253b024070c9a1a1f4fa"
          ],
          "data": "0x0000000000000000000000000000000000000000000000000026f79be9333c56",
          "blockHash": "0x6add37ab34bab2089bf7726ae5e70186538499fb74e11559b26b7b01ca769031",
          "blockNumber": "0x9fc12f",
          "blockTimestamp": "0x69ba8b20",
          "transactionHash": "0xaa887bb3eee4c33b2fe5987daa393394c61e8ecf8f019f87b097771319fedfb3",
          "transactionIndex": "0x71",
          "logIndex": "0x98",
          "removed": false
        },
        {
          "address": "0xdabc71b8cbbb062ac745cc03dcebd9c7b4d225b6",
          "topics": [
            "0xddf252ad1be2c89b69c2b068fc378daa952ba7f163c4a11628f55a4df523b3ef",
            "0x000000000000000000000000e69228626e4800578d06a93baaa595f6634a47c3",
            "0x000000000000000000000000f66da9dd005192ee584a253b024070c9a1a1f4fa"
          ],
          "data": "0x0000000000000000000000000000000000000000000000000003a4aaf7f08806",
          "blockHash": "0x6add37ab34bab2089bf7726ae5e70186538499fb74e11559b26b7b01ca769031",
          "blockNumber": "0x9fc12f",
          "blockTimestamp": "0x69ba8b20",
          "transactionHash": "0xaa887bb3eee4c33b2fe5987daa393394c61e8ecf8f019f87b097771319fedfb3",
          "transactionIndex": "0x71",
          "logIndex": "0x99",
          "removed": false
        },
        {
          "address": "0xf66da9dd005192ee584a253b024070c9a1a1f4fa",
          "topics": [
            "0x7a53080ba414158be7ec69b987b5fb7d07dee101fe85488f0853ae16239d0bde",
            "0x000000000000000000000000cbdae57cd2722fb8e292a876bfc641d8c7faa887",
            "0xffffffffffffffffffffffffffffffffffffffffffffffffffffffffffffffc4",
            "0x000000000000000000000000000000000000000000000000000000000000003c"
          ],
          "data": "0x0000000000000000000000001284e9d71a87276d05abd860bd9990dce9dd721e0000000000000000000000000000000000000000000000001bc16d674ec800000000000000000000000000000000000000000000000000000026f79be9333c560000000000000000000000000000000000000000000000000003a4aaf7f08806",
          "blockHash": "0x6add37ab34bab2089bf7726ae5e70186538499fb74e11559b26b7b01ca769031",
          "blockNumber": "0x9fc12f",
          "blockTimestamp": "0x69ba8b20",
          "transactionHash": "0xaa887bb3eee4c33b2fe5987daa393394c61e8ecf8f019f87b097771319fedfb3",
          "transactionIndex": "0x71",
          "logIndex": "0x9a",
          "removed": false
        }
      ],
      "logsBloom": "0x00000000000000000000100000050000008000100000000000000000000020010000000000000800080000000000000000000000000000200000000000000000020000000000000000000008000080000000020040000000000000000000000000200000000040000000000400000000000000000000000000000010000000000000000008000000100000000000000000000000000000200000000000000008000000000000000000000100001000000000000000000004000000000000000000000002000000000000080000000000000000000000000000000000000000000000000000000010000000000000000000000080000000000000000000000000",
      "type": "0x2",
      "transactionHash": "0xaa887bb3eee4c33b2fe5987daa393394c61e8ecf8f019f87b097771319fedfb3",
      "transactionIndex": "0x71",
      "blockHash": "0x6add37ab34bab2089bf7726ae5e70186538499fb74e11559b26b7b01ca769031",
      "blockNumber": "0x9fc12f",
      "gasUsed": "0x28fca",
      "effectiveGasPrice": "0xf424d",
      "from": "0xe69228626e4800578d06a93baaa595f6634a47c3",
      "to": "0x1284e9d71a87276d05abd860bd9990dce9dd721e",
      "contractAddress": null
    },
    {
      "status": "0x1",
      "cumulativeGasUsed": "0x1b3488e",
      "logs": [
        {
          "address": "0xdabc71b8cbbb062ac745cc03dcebd9c7b4d225b6",
          "topics": [
            "0xddf252ad1be2c89b69c2b068fc378daa952ba7f163c4a11628f55a4df523b3ef",
            "0x000000000000000000000000f66da9dd005192ee584a253b024070c9a1a1f4fa",
            "0x000000000000000000000000e69228626e4800578d06a93baaa595f6634a47c3"
          ],
          "data": "0x0000000000000000000000000000000000000000000000000000000000000064",
          "blockHash": "0x321ecf49954e4b7b9e2a5d906b1fe56a5e4dce8a49aeafcb91bcb4d646ec57d9",
          "blockNumber": "0x9fc130",
          "blockTimestamp": "0x69ba8b44",
          "transactionHash": "0x62b9856a9502277ddcfed23121e141476ea923987189ca5484e0d48a62ed82d9",
          "transactionIndex": "0xc0",
          "logIndex": "0x14c",
          "removed": false
        },
        {
          "address": "0x3eee766c0d9ca7d1509e2493857449ef65a62cf3",
          "topics": [
            "0xddf252ad1be2c89b69c2b068fc378daa952ba7f163c4a11628f55a4df523b3ef",
            "0x000000000000000000000000e69228626e4800578d06a93baaa595f6634a47c3",
            "0x000000000000000000000000f66da9dd005192ee584a253b024070c9a1a1f4fa"
          ],
          "data": "0x0000000000000000000000000000000000000000000000000000000000000066",
          "blockHash": "0x321ecf49954e4b7b9e2a5d906b1fe56a5e4dce8a49aeafcb91bcb4d646ec57d9",
          "blockNumber": "0x9fc130",
          "blockTimestamp": "0x69ba8b44",
          "transactionHash": "0x62b9856a9502277ddcfed23121e141476ea923987189ca5484e0d48a62ed82d9",
          "transactionIndex": "0xc0",
          "logIndex": "0x14d",
          "removed": false
        },
        {
          "address": "0xf66da9dd005192ee584a253b024070c9a1a1f4fa",
          "topics": [
            "0xc42079f94a6350d7e6235f29174924f928cc2ac818eb64fed8004e115fbcca67",
            "0x0000000000000000000000001284e9d71a87276d05abd860bd9990dce9dd721e",
            "0x000000000000000000000000e69228626e4800578d06a93baaa595f6634a47c3"
          ],
          "data": "0x0000000000000000000000000000000000000000000000000000000000000066ffffffffffffffffffffffffffffffffffffffffffffffffffffffffffffff9c0000000000000000000000000000000000000000ff5d4ca01c970be3ddb277ef0000000000000000000000000000000000000000000000007ce66c50e2840000ffffffffffffffffffffffffffffffffffffffffffffffffffffffffffffffce",
          "blockHash": "0x321ecf49954e4b7b9e2a5d906b1fe56a5e4dce8a49aeafcb91bcb4d646ec57d9",
          "blockNumber": "0x9fc130",
          "blockTimestamp": "0x69ba8b44",
          "transactionHash": "0x62b9856a9502277ddcfed23121e141476ea923987189ca5484e0d48a62ed82d9",
          "transactionIndex": "0xc0",
          "logIndex": "0x14e",
          "removed": false
        }
      ],
      "logsBloom": "0x00000000000000000000000000010000008000100000000000000000000000000000000000000000000000000000000000000000000020200000000000000000020000000000000800000008000000000000020040000000000000000000000000200000000040000000000400000000000000000000000000000010000800000000000000000000100000000000000000000000000000200000400000000000000000000000000000000100001000000800000000000004000000000000000000000002000000000000000000000000000000000000000000000000000002000000000000000000000000000000000000000000000000000000000000000000",
      "type": "0x2",
      "transactionHash": "0x62b9856a9502277ddcfed23121e141476ea923987189ca5484e0d48a62ed82d9",
      "transactionIndex": "0xc0",
      "blockHash": "0x321ecf49954e4b7b9e2a5d906b1fe56a5e4dce8a49aeafcb91bcb4d646ec57d9",
      "blockNumber": "0x9fc130",
      "gasUsed": "0x1a24f",
      "effectiveGasPrice": "0xf424d",
      "from": "0xe69228626e4800578d06a93baaa595f6634a47c3",
      "to": "0x1284e9d71a87276d05abd860bd9990dce9dd721e",
      "contractAddress": null
    },
    {
      "status": "0x1",
      "cumulativeGasUsed": "0x5c0b68",
      "logs": [
        {
          "address": "0xf66da9dd005192ee584a253b024070c9a1a1f4fa",
          "topics": [
            "0x0c396cd989a39f4459b5fa1aed6a9a8dcdbc45908acfd67e028cd568da98982c",
            "0x000000000000000000000000e69228626e4800578d06a93baaa595f6634a47c3",
            "0xffffffffffffffffffffffffffffffffffffffffffffffffffffffffffffffc4",
            "0x000000000000000000000000000000000000000000000000000000000000003c"
          ],
          "data": "0x0000000000000000000000000000000000000000000000000de0b6b3a764000000000000000000000000000000000000000000000000000000137bcdf4999e350000000000000000000000000000000000000000000000000001d2557bf843f7",
          "blockHash": "0xadbf069fd1d42385816bb481519454a3ae45b650a6a05ccb5409f77567386fe4",
          "blockNumber": "0x9fc131",
          "blockTimestamp": "0x69ba8b50",
          "transactionHash": "0x4d38b740761b49b66931358044e49617f719befb1d59e9a2f722d6901cbff159",
          "transactionIndex": "0x39",
          "logIndex": "0x6e",
          "removed": false
        }
      ],
      "logsBloom": "0x00000000000000000000000000050000008000000000000000000000000020000000000000000800080000000000000000000000000000000200000000000000000000000000000000000000000080000000020000000000000000000000000000200000000040000000000400000000000000000004000000000000000000000000000000000000000000000000000000000000000000000000000000000000000000000000000000000000000000000000000000000000000000000000000000000000000000000000000000000000000000000000000000000000000000000000080000000000000000000000000000000080000000000000000000000000",
      "type": "0x2",
      "transactionHash": "0x4d38b740761b49b66931358044e49617f719befb1d59e9a2f722d6901cbff159",
      "transactionIndex": "0x39",
      "blockHash": "0xadbf069fd1d42385816bb481519454a3ae45b650a6a05ccb5409f77567386fe4",
      "blockNumber": "0x9fc131",
      "gasUsed": "0x1d413",
      "effectiveGasPrice": "0xf424e",
      "from": "0xe69228626e4800578d06a93baaa595f6634a47c3",
      "to": "0xf66da9dd005192ee584a253b024070c9a1a1f4fa",
      "contractAddress": null
    },
    {
      "status": "0x1",
      "cumulativeGasUsed": "0x1060400",
      "logs": [
        {
          "address": "0xf66da9dd005192ee584a253b024070c9a1a1f4fa",
          "topics": [
            "0x0c396cd989a39f4459b5fa1aed6a9a8dcdbc45908acfd67e028cd568da98982c",
            "0x000000000000000000000000cbdae57cd2722fb8e292a876bfc641d8c7faa887",
            "0xffffffffffffffffffffffffffffffffffffffffffffffffffffffffffffffc4",
            "0x000000000000000000000000000000000000000000000000000000000000003c"
          ],
          "data": "0x0000000000000000000000000000000000000000000000001bc16d674ec800000000000000000000000000000000000000000000000000000026f79be9333c6b0000000000000000000000000000000000000000000000000003a4aaf7f087ef",
          "blockHash": "0x82e17553afc084bfc975caa96d1c044499873aaf4589ce0ba8f36b3b41b3bbfe",
          "blockNumber": "0x9fc132",
          "blockTimestamp": "0x69ba8b5c",
          "transactionHash": "0x15e71ea17a20f48202b00df24c3aad1589ac26c4d939e112b4b4bc2c8ce8f216",
          "transactionIndex": "0xe1",
          "logIndex": "0x16e",
          "removed": false
        }
      ],
      "logsBloom": "0x00000000000000000000000000040000008000000000000000000000000020010000000000000800080000000000000000000000000000000200000000000000000000000000000000000000000080000000020000000000000000000000000000000000000000000000000400000000000000000004000000000000000000000000000000000000000000000000000000000000000000000000000000000008000000000000000000000000000000000000000000000000000000000000000000000000000000000000000000000000000000000000000000000000000000000000080000000010000000000000000000000080000000000000000000000000",
      "type": "0x2",
      "transactionHash": "0x15e71ea17a20f48202b00df24c3aad1589ac26c4d939e112b4b4bc2c8ce8f216",
      "transactionIndex": "0xe1",
      "blockHash": "0x82e17553afc084bfc975caa96d1c044499873aaf4589ce0ba8f36b3b41b3bbfe",
      "blockNumber": "0x9fc132",
      "gasUsed": "0x1e36b",
      "effectiveGasPrice": "0xf424e",
      "from": "0xcbdae57cd2722fb8e292a876bfc641d8c7faa887",
      "to": "0xf66da9dd005192ee584a253b024070c9a1a1f4fa",
      "contractAddress": null
    }
  ],
  "libraries": [],
  "pending": [],
  "returns": {},
  "timestamp": 1773833053280,
  "chain": 11155111,
  "commit": "de34f06"
}