{
  "transactions": [
    {
      "hash": "0xd361a98d604122ea583fe2186f39ca3b3918127ef9d3b73cab0c1542eb92c663",
      "transactionType": "CALL",
      "contractName": null,
      "contractAddress": "0x47574b282f9468c3f0a8da7e48a6ce399c7dfaef",
      "function": "mint(address,uint256)",
      "arguments": [
        "0xcBdAE57cd2722fB8e292A876BfC641D8C7faA887",
        "100000000000000000000"
      ],
      "transaction": {
        "from": "0xe69228626e4800578d06a93baaa595f6634a47c3",
        "to": "0x47574b282f9468c3f0a8da7e48a6ce399c7dfaef",
        "gas": "0xbe11",
        "value": "0x0",
        "input": "0x40c10f19000000000000000000000000cbdae57cd2722fb8e292a876bfc641d8c7faa8870000000000000000000000000000000000000000000000056bc75e2d63100000",
        "nonce": "0x1a0",
        "chainId": "0xaa36a7"
      },
      "additionalContracts": [],
      "isFixedGasLimit": false
    },
    {
      "hash": "0xbb6bb71fe6297476d6db124db42b49f1cc7067d488d0ca1ef6e89896d6566ca4",
      "transactionType": "CALL",
      "contractName": null,
      "contractAddress": "0x686a70a784f39a230959bcc19f85dd09e5d6e01b",
      "function": "mint(address,uint256)",
      "arguments": [
        "0xcBdAE57cd2722fB8e292A876BfC641D8C7faA887",
        "100000000000000000000"
      ],
      "transaction": {
        "from": "0xe69228626e4800578d06a93baaa595f6634a47c3",
        "to": "0x686a70a784f39a230959bcc19f85dd09e5d6e01b",
        "gas": "0xbe11",
        "value": "0x0",
        "input": "0x40c10f19000000000000000000000000cbdae57cd2722fb8e292a876bfc641d8c7faa8870000000000000000000000000000000000000000000000056bc75e2d63100000",
        "nonce": "0x1a1",
        "chainId": "0xaa36a7"
      },
      "additionalContracts": [],
      "isFixedGasLimit": false
    },
    {
      "hash": "0x67673f3da3ada2223bd28f0568a5febe8182d9c4fcc81d94dfbd124b355aa42e",
      "transactionType": "CALL",
      "contractName": null,
      "contractAddress": "0x47574b282f9468c3f0a8da7e48a6ce399c7dfaef",
      "function": "mint(address,uint256)",
      "arguments": [
        "0x787290318224efe3ef93814DeBa2BA0a841ea1b2",
        "100000000000000000000"
      ],
      "transaction": {
        "from": "0xe69228626e4800578d06a93baaa595f6634a47c3",
        "to": "0x47574b282f9468c3f0a8da7e48a6ce399c7dfaef",
        "gas": "0xbe11",
        "value": "0x0",
        "input": "0x40c10f19000000000000000000000000787290318224efe3ef93814deba2ba0a841ea1b20000000000000000000000000000000000000000000000056bc75e2d63100000",
        "nonce": "0x1a2",
        "chainId": "0xaa36a7"
      },
      "additionalContracts": [],
      "isFixedGasLimit": false
    },
    {
      "hash": "0x557a82f5edc9ed3cf8ab01a36a9c2ea5f66e425b03f2ce7850ca7942e398093a",
      "transactionType": "CALL",
      "contractName": null,
      "contractAddress": "0x686a70a784f39a230959bcc19f85dd09e5d6e01b",
      "function": "mint(address,uint256)",
      "arguments": [
        "0x787290318224efe3ef93814DeBa2BA0a841ea1b2",
        "100000000000000000000"
      ],
      "transaction": {
        "from": "0xe69228626e4800578d06a93baaa595f6634a47c3",
        "to": "0x686a70a784f39a230959bcc19f85dd09e5d6e01b",
        "gas": "0xbe11",
        "value": "0x0",
        "input": "0x40c10f19000000000000000000000000787290318224efe3ef93814deba2ba0a841ea1b20000000000000000000000000000000000000000000000056bc75e2d63100000",
        "nonce": "0x1a3",
        "chainId": "0xaa36a7"
      },
      "additionalContracts": [],
      "isFixedGasLimit": false
    },
    {
      "hash": "0x91f35d642e28aa096303e8f45421ac61587c23e580dd3e831c08f4e1b57bd6d9",
      "transactionType": "CALL",
      "contractName": null,
      "contractAddress": "0x47574b282f9468c3f0a8da7e48a6ce399c7dfaef",
      "function": "mint(address,uint256)",
      "arguments": [
        "0x4176498bD638e319bb845a97B424efac83f87921",
        "100000000000000000000"
      ],
      "transaction": {
        "from": "0xe69228626e4800578d06a93baaa595f6634a47c3",
        "to": "0x47574b282f9468c3f0a8da7e48a6ce399c7dfaef",
        "gas": "0xbe11",
        "value": "0x0",
        "input": "0x40c10f190000000000000000000000004176498bd638e319bb845a97b424efac83f879210000000000000000000000000000000000000000000000056bc75e2d63100000",
        "nonce": "0x1a4",
        "chainId": "0xaa36a7"
      },
      "additionalContracts": [],
      "isFixedGasLimit": false
    },
    {
      "hash": "0x88083bbd53509f1545df57451500455e310826080f0a6da51cf29a404056be1f",
      "transactionType": "CALL",
      "contractName": null,
      "contractAddress": "0x686a70a784f39a230959bcc19f85dd09e5d6e01b",
      "function": "mint(address,uint256)",
      "arguments": [
        "0x4176498bD638e319bb845a97B424efac83f87921",
        "100000000000000000000"
      ],
      "transaction": {
        "from": "0xe69228626e4800578d06a93baaa595f6634a47c3",
        "to": "0x686a70a784f39a230959bcc19f85dd09e5d6e01b",
        "gas": "0xbe11",
        "value": "0x0",
        "input": "0x40c10f190000000000000000000000004176498bd638e319bb845a97b424efac83f879210000000000000000000000000000000000000000000000056bc75e2d63100000",
        "nonce": "0x1a5",
        "chainId": "0xaa36a7"
      },
      "additionalContracts": [],
      "isFixedGasLimit": false
    },
    {
      "hash": "0x7f5dcf228d40f22ae9bde40243465700d3fcf9f3049e9de02f9f6f762759ea33",
      "transactionType": "CALL",
      "contractName": null,
      "contractAddress": "0x47574b282f9468c3f0a8da7e48a6ce399c7dfaef",
      "function": "approve(address,uint256)",
      "arguments": [
        "0x000000000022D473030F116dDEE9F6B43aC78BA3",
        "115792089237316195423570985008687907853269984665640564039457584007913129639935"
      ],
      "transaction": {
        "from": "0xcbdae57cd2722fb8e292a876bfc641d8c7faa887",
        "to": "0x47574b282f9468c3f0a8da7e48a6ce399c7dfaef",
        "gas": "0x90a3",
        "value": "0x0",
        "input": "0x095ea7b3000000000000000000000000000000000022d473030f116ddee9f6b43ac78ba3ffffffffffffffffffffffffffffffffffffffffffffffffffffffffffffffff",
        "nonce": "0xe6",
        "chainId": "0xaa36a7"
      },
      "additionalContracts": [],
      "isFixedGasLimit": false
    },
    {
      "hash": "0xbf74115954552e0674e0c955b7dde9dc167f181006640c1f64182caf5eb62705",
      "transactionType": "CALL",
      "contractName": null,
      "contractAddress": "0x686a70a784f39a230959bcc19f85dd09e5d6e01b",
      "function": "approve(address,uint256)",
      "arguments": [
        "0x000000000022D473030F116dDEE9F6B43aC78BA3",
        "115792089237316195423570985008687907853269984665640564039457584007913129639935"
      ],
      "transaction": {
        "from": "0xcbdae57cd2722fb8e292a876bfc641d8c7faa887",
        "to": "0x686a70a784f39a230959bcc19f85dd09e5d6e01b",
        "gas": "0x90a3",
        "value": "0x0",
        "input": "0x095ea7b3000000000000000000000000000000000022d473030f116ddee9f6b43ac78ba3ffffffffffffffffffffffffffffffffffffffffffffffffffffffffffffffff",
        "nonce": "0xe7",
        "chainId": "0xaa36a7"
      },
      "additionalContracts": [],
      "isFixedGasLimit": false
    },
    {
      "hash": "0x1abba74d6b7fc45f044aafc69543e487e9d0343eec18aa75a34734e3b1f23192",
      "transactionType": "CALL",
      "contractName": null,
      "contractAddress": "0x000000000022d473030f116ddee9f6b43ac78ba3",
      "function": "approve(address,address,uint160,uint48)",
      "arguments": [
        "0x47574B282F9468C3f0a8da7e48a6CE399C7dFAEF",
        "0x429ba70129df741B2Ca2a85BC3A2a3328e5c09b4",
        "1461501637330902918203684832716283019655932542975",
        "281474976710654"
      ],
      "transaction": {
        "from": "0xcbdae57cd2722fb8e292a876bfc641d8c7faa887",
        "to": "0x000000000022d473030f116ddee9f6b43ac78ba3",
        "gas": "0x96a0",
        "value": "0x0",
        "input": "0x87517c4500000000000000000000000047574b282f9468c3f0a8da7e48a6ce399c7dfaef000000000000000000000000429ba70129df741b2ca2a85bc3a2a3328e5c09b4000000000000000000000000ffffffffffffffffffffffffffffffffffffffff0000000000000000000000000000000000000000000000000000fffffffffffe",
        "nonce": "0xe8",
        "chainId": "0xaa36a7"
      },
      "additionalContracts": [],
      "isFixedGasLimit": false
    },
    {
      "hash": "0x4c4bf0241b7c4677270796f0950f63f773e70bd0b76e166c3513c651ba1b9ae1",
      "transactionType": "CALL",
      "contractName": null,
      "contractAddress": "0x000000000022d473030f116ddee9f6b43ac78ba3",
      "function": "approve(address,address,uint160,uint48)",
      "arguments": [
        "0x686A70a784f39A230959bCC19F85dd09e5d6e01B",
        "0x429ba70129df741B2Ca2a85BC3A2a3328e5c09b4",
        "1461501637330902918203684832716283019655932542975",
        "281474976710654"
      ],
      "transaction": {
        "from": "0xcbdae57cd2722fb8e292a876bfc641d8c7faa887",
        "to": "0x000000000022d473030f116ddee9f6b43ac78ba3",
        "gas": "0x96a0",
        "value": "0x0",
        "input": "0x87517c45000000000000000000000000686a70a784f39a230959bcc19f85dd09e5d6e01b000000000000000000000000429ba70129df741b2ca2a85bc3a2a3328e5c09b4000000000000000000000000ffffffffffffffffffffffffffffffffffffffff0000000000000000000000000000000000000000000000000000fffffffffffe",
        "nonce": "0xe9",
        "chainId": "0xaa36a7"
      },
      "additionalContracts": [],
      "isFixedGasLimit": false
    },
    {
      "hash": "0x0b0faa7047b9a487a18a93bcf8a656f5d6b45f5e0052a11b6d1f56a40848e394",
      "transactionType": "CALL",
      "contractName": null,
      "contractAddress": "0x47574b282f9468c3f0a8da7e48a6ce399c7dfaef",
      "function": "approve(address,uint256)",
      "arguments": [
        "0x1284E9d71a87276d05abD860bD9990dce9Dd721E",
        "115792089237316195423570985008687907853269984665640564039457584007913129639935"
      ],
      "transaction": {
        "from": "0xcbdae57cd2722fb8e292a876bfc641d8c7faa887",
        "to": "0x47574b282f9468c3f0a8da7e48a6ce399c7dfaef",
        "gas": "0x90f7",
        "value": "0x0",
        "input": "0x095ea7b30000000000000000000000001284e9d71a87276d05abd860bd9990dce9dd721effffffffffffffffffffffffffffffffffffffffffffffffffffffffffffffff",
        "nonce": "0xea",
        "chainId": "0xaa36a7"
      },
      "additionalContracts": [],
      "isFixedGasLimit": false
    },
    {
      "hash": "0x6ffb41c87d3ebabe3fb90016b43bc10ff764cf3c4d973dd490442c9624dcc646",
      "transactionType": "CALL",
      "contractName": null,
      "contractAddress": "0x686a70a784f39a230959bcc19f85dd09e5d6e01b",
      "function": "approve(address,uint256)",
      "arguments": [
        "0x1284E9d71a87276d05abD860bD9990dce9Dd721E",
        "115792089237316195423570985008687907853269984665640564039457584007913129639935"
      ],
      "transaction": {
        "from": "0xcbdae57cd2722fb8e292a876bfc641d8c7faa887",
        "to": "0x686a70a784f39a230959bcc19f85dd09e5d6e01b",
        "gas": "0x90f7",
        "value": "0x0",
        "input": "0x095ea7b30000000000000000000000001284e9d71a87276d05abd860bd9990dce9dd721effffffffffffffffffffffffffffffffffffffffffffffffffffffffffffffff",
        "nonce": "0xeb",
        "chainId": "0xaa36a7"
      },
      "additionalContracts": [],
      "isFixedGasLimit": false
    },
    {
      "hash": "0xf0b2e00dd3e80526cabb0d79b056e6ac7e6115497b94e4b5de87ca7d2a449f69",
      "transactionType": "CALL",
      "contractName": null,
      "contractAddress": "0x47574b282f9468c3f0a8da7e48a6ce399c7dfaef",
      "function": "approve(address,uint256)",
      "arguments": [
        "0x000000000022D473030F116dDEE9F6B43aC78BA3",
        "115792089237316195423570985008687907853269984665640564039457584007913129639935"
      ],
      "transaction": {
        "from": "0x787290318224efe3ef93814deba2ba0a841ea1b2",
        "to": "0x47574b282f9468c3f0a8da7e48a6ce399c7dfaef",
        "gas": "0x90a3",
        "value": "0x0",
        "input": "0x095ea7b3000000000000000000000000000000000022d473030f116ddee9f6b43ac78ba3ffffffffffffffffffffffffffffffffffffffffffffffffffffffffffffffff",
        "nonce": "0xd5",
        "chainId": "0xaa36a7"
      },
      "additionalContracts": [],
      "isFixedGasLimit": false
    },
    {
      "hash": "0x7627e491892f9820e0dd8ab40c0bf9b43bd8db2d5423aba4860df6bdc5636267",
      "transactionType": "CALL",
      "contractName": null,
      "contractAddress": "0x686a70a784f39a230959bcc19f85dd09e5d6e01b",
      "function": "approve(address,uint256)",
      "arguments": [
        "0x000000000022D473030F116dDEE9F6B43aC78BA3",
        "115792089237316195423570985008687907853269984665640564039457584007913129639935"
      ],
      "transaction": {
        "from": "0x787290318224efe3ef93814deba2ba0a841ea1b2",
        "to": "0x686a70a784f39a230959bcc19f85dd09e5d6e01b",
        "gas": "0x90a3",
        "value": "0x0",
        "input": "0x095ea7b3000000000000000000000000000000000022d473030f116ddee9f6b43ac78ba3ffffffffffffffffffffffffffffffffffffffffffffffffffffffffffffffff",
        "nonce": "0xd6",
        "chainId": "0xaa36a7"
      },
      "additionalContracts": [],
      "isFixedGasLimit": false
    },
    {
      "hash": "0xa71bf74b4e0ae5cc71d530ec8880575789b85ba34401d3cda6836997587e9c9d",
      "transactionType": "CALL",
      "contractName": null,
      "contractAddress": "0x000000000022d473030f116ddee9f6b43ac78ba3",
      "function": "approve(address,address,uint160,uint48)",
      "arguments": [
        "0x47574B282F9468C3f0a8da7e48a6CE399C7dFAEF",
        "0x429ba70129df741B2Ca2a85BC3A2a3328e5c09b4",
        "1461501637330902918203684832716283019655932542975",
        "281474976710654"
      ],
      "transaction": {
        "from": "0x787290318224efe3ef93814deba2ba0a841ea1b2",
        "to": "0x000000000022d473030f116ddee9f6b43ac78ba3",
        "gas": "0x96a0",
        "value": "0x0",
        "input": "0x87517c4500000000000000000000000047574b282f9468c3f0a8da7e48a6ce399c7dfaef000000000000000000000000429ba70129df741b2ca2a85bc3a2a3328e5c09b4000000000000000000000000ffffffffffffffffffffffffffffffffffffffff0000000000000000000000000000000000000000000000000000fffffffffffe",
        "nonce": "0xd7",
        "chainId": "0xaa36a7"
      },
      "additionalContracts": [],
      "isFixedGasLimit": false
    },
    {
      "hash": "0x281bf7d4a335475b0dc9febab2cb5dd2b747a46ad16600001028a9e6a0ec324b",
      "transactionType": "CALL",
      "contractName": null,
      "contractAddress": "0x000000000022d473030f116ddee9f6b43ac78ba3",
      "function": "approve(address,address,uint160,uint48)",
      "arguments": [
        "0x686A70a784f39A230959bCC19F85dd09e5d6e01B",
        "0x429ba70129df741B2Ca2a85BC3A2a3328e5c09b4",
        "1461501637330902918203684832716283019655932542975",
        "281474976710654"
      ],
      "transaction": {
        "from": "0x787290318224efe3ef93814deba2ba0a841ea1b2",
        "to": "0x000000000022d473030f116ddee9f6b43ac78ba3",
        "gas": "0x96a0",
        "value": "0x0",
        "input": "0x87517c45000000000000000000000000686a70a784f39a230959bcc19f85dd09e5d6e01b000000000000000000000000429ba70129df741b2ca2a85bc3a2a3328e5c09b4000000000000000000000000ffffffffffffffffffffffffffffffffffffffff0000000000000000000000000000000000000000000000000000fffffffffffe",
        "nonce": "0xd8",
        "chainId": "0xaa36a7"
      },
      "additionalContracts": [],
      "isFixedGasLimit": false
    },
    {
      "hash": "0x3381c0d994de08d07fa5beb859ce493177569e72b91e9ebedee7608bc5605c9a",
      "transactionType": "CALL",
      "contractName": null,
      "contractAddress": "0x47574b282f9468c3f0a8da7e48a6ce399c7dfaef",
      "function": "approve(address,uint256)",
      "arguments": [
        "0x1284E9d71a87276d05abD860bD9990dce9Dd721E",
        "115792089237316195423570985008687907853269984665640564039457584007913129639935"
      ],
      "transaction": {
        "from": "0x787290318224efe3ef93814deba2ba0a841ea1b2",
        "to": "0x47574b282f9468c3f0a8da7e48a6ce399c7dfaef",
        "gas": "0x90f7",
        "value": "0x0",
        "input": "0x095ea7b30000000000000000000000001284e9d71a87276d05abd860bd9990dce9dd721effffffffffffffffffffffffffffffffffffffffffffffffffffffffffffffff",
        "nonce": "0xd9",
        "chainId": "0xaa36a7"
      },
      "additionalContracts": [],
      "isFixedGasLimit": false
    },
    {
      "hash": "0x6519b26bbe90da882964fcdaa00d78ca9b9ceb108071b5d42c3415f45b6dfec4",
      "transactionType": "CALL",
      "contractName": null,
      "contractAddress": "0x686a70a784f39a230959bcc19f85dd09e5d6e01b",
      "function": "approve(address,uint256)",
      "arguments": [
        "0x1284E9d71a87276d05abD860bD9990dce9Dd721E",
        "115792089237316195423570985008687907853269984665640564039457584007913129639935"
      ],
      "transaction": {
        "from": "0x787290318224efe3ef93814deba2ba0a841ea1b2",
        "to": "0x686a70a784f39a230959bcc19f85dd09e5d6e01b",
        "gas": "0x90f7",
        "value": "0x0",
        "input": "0x095ea7b30000000000000000000000001284e9d71a87276d05abd860bd9990dce9dd721effffffffffffffffffffffffffffffffffffffffffffffffffffffffffffffff",
        "nonce": "0xda",
        "chainId": "0xaa36a7"
      },
      "additionalContracts": [],
      "isFixedGasLimit": false
    },
    {
      "hash": "0x29ecbb51ba15408a7ecde6e4c22d7bebca1f252c143da253b6e1926944e0ce81",
      "transactionType": "CALL",
      "contractName": null,
      "contractAddress": "0x47574b282f9468c3f0a8da7e48a6ce399c7dfaef",
      "function": "approve(address,uint256)",
      "arguments": [
        "0xb044e610beeb13cf56a319e41cE1F45826E55E84",
        "115792089237316195423570985008687907853269984665640564039457584007913129639935"
      ],
      "transaction": {
        "from": "0x4176498bd638e319bb845a97b424efac83f87921",
        "to": "0x47574b282f9468c3f0a8da7e48a6ce399c7dfaef",
        "gas": "0x90f7",
        "value": "0x0",
        "input": "0x095ea7b3000000000000000000000000b044e610beeb13cf56a319e41ce1f45826e55e84ffffffffffffffffffffffffffffffffffffffffffffffffffffffffffffffff",
        "nonce": "0x55",
        "chainId": "0xaa36a7"
      },
      "additionalContracts": [],
      "isFixedGasLimit": false
    },
    {
      "hash": "0x94d598fea064bc048682bc042098869fd7a75566613eb7ce1c40857db864f971",
      "transactionType": "CALL",
      "contractName": null,
      "contractAddress": "0x686a70a784f39a230959bcc19f85dd09e5d6e01b",
      "function": "approve(address,uint256)",
      "arguments": [
        "0xb044e610beeb13cf56a319e41cE1F45826E55E84",
        "115792089237316195423570985008687907853269984665640564039457584007913129639935"
      ],
      "transaction": {
        "from": "0x4176498bd638e319bb845a97b424efac83f87921",
        "to": "0x686a70a784f39a230959bcc19f85dd09e5d6e01b",
        "gas": "0x90f7",
        "value": "0x0",
        "input": "0x095ea7b3000000000000000000000000b044e610beeb13cf56a319e41ce1f45826e55e84ffffffffffffffffffffffffffffffffffffffffffffffffffffffffffffffff",
        "nonce": "0x56",
        "chainId": "0xaa36a7"
      },
      "additionalContracts": [],
      "isFixedGasLimit": false
    },
    {
      "hash": "0x8c01f63758d6befa0edd301fb7919420514092e233c0b2f744764112b515ddb5",
      "transactionType": "CALL",
      "contractName": null,
      "contractAddress": "0x47574b282f9468c3f0a8da7e48a6ce399c7dfaef",
      "function": "approve(address,uint256)",
      "arguments": [
        "0x1284E9d71a87276d05abD860bD9990dce9Dd721E",
        "115792089237316195423570985008687907853269984665640564039457584007913129639935"
      ],
      "transaction": {
        "from": "0x4176498bd638e319bb845a97b424efac83f87921",
        "to": "0x47574b282f9468c3f0a8da7e48a6ce399c7dfaef",
        "gas": "0x90f7",
        "value": "0x0",
        "input": "0x095ea7b30000000000000000000000001284e9d71a87276d05abd860bd9990dce9dd721effffffffffffffffffffffffffffffffffffffffffffffffffffffffffffffff",
        "nonce": "0x57",
        "chainId": "0xaa36a7"
      },
      "additionalContracts": [],
      "isFixedGasLimit": false
    },
    {
      "hash": "0x6ec92222274a4865186064ab4f26907e0a45787a91b05f8312ec206e74b07c81",
      "transactionType": "CALL",
      "contractName": null,
      "contractAddress": "0x686a70a784f39a230959bcc19f85dd09e5d6e01b",
      "function": "approve(address,uint256)",
      "arguments": [
        "0x1284E9d71a87276d05abD860bD9990dce9Dd721E",
        "115792089237316195423570985008687907853269984665640564039457584007913129639935"
      ],
      "transaction": {
        "from": "0x4176498bd638e319bb845a97b424efac83f87921",
        "to": "0x686a70a784f39a230959bcc19f85dd09e5d6e01b",
        "gas": "0x90f7",
        "value": "0x0",
        "input": "0x095ea7b30000000000000000000000001284e9d71a87276d05abd860bd9990dce9dd721effffffffffffffffffffffffffffffffffffffffffffffffffffffffffffffff",
        "nonce": "0x58",
        "chainId": "0xaa36a7"
      },
      "additionalContracts": [],
      "isFixedGasLimit": false
    },
    {
      "hash": "0x7a11528dae473d2c0d1d9c0ac9707aabf43a5d46555d3faf5e6a215c40bc8d96",
      "transactionType": "CALL",
      "contractName": null,
      "contractAddress": "0x1284e9d71a87276d05abd860bd9990dce9dd721e",
      "function": "mint(address,address,int24,int24,uint128)",
      "arguments": [
        "0xdfa038E4F3b4E3Ed2289e1F999839754d91A4eC4",
        "0xcBdAE57cd2722fB8e292A876BfC641D8C7faA887",
        "-60",
        "60",
        "1000000000000000000"
      ],
      "transaction": {
        "from": "0xcbdae57cd2722fb8e292a876bfc641d8c7faa887",
        "to": "0x1284e9d71a87276d05abd860bd9990dce9dd721e",
        "gas": "0x72c6e",
        "value": "0x0",
        "input": "0x7b4f5327000000000000000000000000dfa038e4f3b4e3ed2289e1f999839754d91a4ec4000000000000000000000000cbdae57cd2722fb8e292a876bfc641d8c7faa887ffffffffffffffffffffffffffffffffffffffffffffffffffffffffffffffc4000000000000000000000000000000000000000000000000000000000000003c0000000000000000000000000000000000000000000000000de0b6b3a7640000",
        "nonce": "0xec",
        "chainId": "0xaa36a7"
      },
      "additionalContracts": [],
      "isFixedGasLimit": false
    },
    {
      "hash": "0x15cdb8da2aa26a49d8d0ec2426c38f848375c9c5a0d9752d102aea8c3599728d",
      "transactionType": "CALL",
      "contractName": null,
      "contractAddress": "0x1284e9d71a87276d05abd860bd9990dce9dd721e",
      "function": "mint(address,address,int24,int24,uint128)",
      "arguments": [
        "0xdfa038E4F3b4E3Ed2289e1F999839754d91A4eC4",
        "0x787290318224efe3ef93814DeBa2BA0a841ea1b2",
        "-60",
        "60",
        "2000000000000000000"
      ],
      "transaction": {
        "from": "0x787290318224efe3ef93814deba2ba0a841ea1b2",
        "to": "0x1284e9d71a87276d05abd860bd9990dce9dd721e",
        "gas": "0x361dc",
        "value": "0x0",
        "input": "0x7b4f5327000000000000000000000000dfa038e4f3b4e3ed2289e1f999839754d91a4ec4000000000000000000000000787290318224efe3ef93814deba2ba0a841ea1b2ffffffffffffffffffffffffffffffffffffffffffffffffffffffffffffffc4000000000000000000000000000000000000000000000000000000000000003c0000000000000000000000000000000000000000000000001bc16d674ec80000",
        "nonce": "0xdb",
        "chainId": "0xaa36a7"
      },
      "additionalContracts": [],
      "isFixedGasLimit": false
    },
    {
      "hash": "0xfdb05cbf85693654840711c51ff6bd63ab2bfa53900db8ddf3ae21e4ae84019d",
      "transactionType": "CALL",
      "contractName": null,
      "contractAddress": "0x1284e9d71a87276d05abd860bd9990dce9dd721e",
      "function": "swap(address,address,bool,int256,uint160)",
      "arguments": [
        "0xdfa038E4F3b4E3Ed2289e1F999839754d91A4eC4",
        "0x4176498bD638e319bb845a97B424efac83f87921",
        "true",
        "100",
        "4295128740"
      ],
      "transaction": {
        "from": "0x4176498bd638e319bb845a97b424efac83f87921",
        "to": "0x1284e9d71a87276d05abd860bd9990dce9dd721e",
        "gas": "0x2c959",
        "value": "0x0",
        "input": "0xa12578dc000000000000000000000000dfa038e4f3b4e3ed2289e1f999839754d91a4ec40000000000000000000000004176498bd638e319bb845a97b424efac83f879210000000000000000000000000000000000000000000000000000000000000001000000000000000000000000000000000000000000000000000000000000006400000000000000000000000000000000000000000000000000000001000276a4",
        "nonce": "0x59",
        "chainId": "0xaa36a7"
      },
      "additionalContracts": [],
      "isFixedGasLimit": false
    },
    {
      "hash": "0x46395df34657d9d51c4bd492ac75a445a8b360b8fcb105ab107bf4e6cb69df16",
      "transactionType": "CALL",
      "contractName": null,
      "contractAddress": "0xdfa038e4f3b4e3ed2289e1f999839754d91a4ec4",
      "function": "burn(int24,int24,uint128)",
      "arguments": [
        "-60",
        "60",
        "0"
      ],
      "transaction": {
        "from": "0x787290318224efe3ef93814deba2ba0a841ea1b2",
        "to": "0xdfa038e4f3b4e3ed2289e1f999839754d91a4ec4",
        "gas": "0x19abe",
        "value": "0x0",
        "input": "0xa34123a7ffffffffffffffffffffffffffffffffffffffffffffffffffffffffffffffc4000000000000000000000000000000000000000000000000000000000000003c0000000000000000000000000000000000000000000000000000000000000000",
        "nonce": "0xdc",
        "chainId": "0xaa36a7"
      },
      "additionalContracts": [],
      "isFixedGasLimit": false
    },
    {
      "hash": "0x7cf90f707d8a6f8c0a89184fa5cd074c11368938c03e24825f53145a9fc9a252",
      "transactionType": "CALL",
      "contractName": null,
      "contractAddress": "0xdfa038e4f3b4e3ed2289e1f999839754d91a4ec4",
      "function": "collect(address,int24,int24,uint128,uint128)",
      "arguments": [
        "0x787290318224efe3ef93814DeBa2BA0a841ea1b2",
        "-60",
        "60",
        "340282366920938463463374607431768211455",
        "340282366920938463463374607431768211455"
      ],
      "transaction": {
        "from": "0x787290318224efe3ef93814deba2ba0a841ea1b2",
        "to": "0xdfa038e4f3b4e3ed2289e1f999839754d91a4ec4",
        "gas": "0xab15",
        "value": "0x0",
        "input": "0x4f1eb3d8000000000000000000000000787290318224efe3ef93814deba2ba0a841ea1b2ffffffffffffffffffffffffffffffffffffffffffffffffffffffffffffffc4000000000000000000000000000000000000000000000000000000000000003c00000000000000000000000000000000ffffffffffffffffffffffffffffffff00000000000000000000000000000000ffffffffffffffffffffffffffffffff",
        "nonce": "0xdd",
        "chainId": "0xaa36a7"
      },
      "additionalContracts": [],
      "isFixedGasLimit": false
    },
    {
      "hash": "0x828aebd5a6dcf2b60eb0e645e12d2b8e89b5876e0907052d4debf42c25d8a6b8",
      "transactionType": "CALL",
      "contractName": null,
      "contractAddress": "0xdfa038e4f3b4e3ed2289e1f999839754d91a4ec4",
      "function": "burn(int24,int24,uint128)",
      "arguments": [
        "-60",
        "60",
        "2000000000000000000"
      ],
      "transaction": {
        "from": "0x787290318224efe3ef93814deba2ba0a841ea1b2",
        "to": "0xdfa038e4f3b4e3ed2289e1f999839754d91a4ec4",
        "gas": "0x20388",
        "value": "0x0",
        "input": "0xa34123a7ffffffffffffffffffffffffffffffffffffffffffffffffffffffffffffffc4000000000000000000000000000000000000000000000000000000000000003c0000000000000000000000000000000000000000000000001bc16d674ec80000",
        "nonce": "0xde",
        "chainId": "0xaa36a7"
      },
      "additionalContracts": [],
      "isFixedGasLimit": false
    },
    {
      "hash": "0xd1c9fd808378c2b82f95f8956b13720a7dfd52288a1bc9f5eb657233ffac9565",
      "transactionType": "CALL",
      "contractName": null,
      "contractAddress": "0xdfa038e4f3b4e3ed2289e1f999839754d91a4ec4",
      "function": "collect(address,int24,int24,uint128,uint128)",
      "arguments": [
        "0x787290318224efe3ef93814DeBa2BA0a841ea1b2",
        "-60",
        "60",
        "340282366920938463463374607431768211455",
        "340282366920938463463374607431768211455"
      ],
      "transaction": {
        "from": "0x787290318224efe3ef93814deba2ba0a841ea1b2",
        "to": "0xdfa038e4f3b4e3ed2289e1f999839754d91a4ec4",
        "gas": "0x15f4a",
        "value": "0x0",
        "input": "0x4f1eb3d8000000000000000000000000787290318224efe3ef93814deba2ba0a841ea1b2ffffffffffffffffffffffffffffffffffffffffffffffffffffffffffffffc4000000000000000000000000000000000000000000000000000000000000003c00000000000000000000000000000000ffffffffffffffffffffffffffffffff00000000000000000000000000000000ffffffffffffffffffffffffffffffff",
        "nonce": "0xdf",
        "chainId": "0xaa36a7"
      },
      "additionalContracts": [],
      "isFixedGasLimit": false
    },
    {
      "hash": "0xee881924017f6aa68fcf77f79a7b6dee0e680816af74d69ae85a8ba9c2e82d4d",
      "transactionType": "CALL",
      "contractName": null,
      "contractAddress": "0xdfa038e4f3b4e3ed2289e1f999839754d91a4ec4",
      "function": "burn(int24,int24,uint128)",
      "arguments": [
        "-60",
        "60",
        "0"
      ],
      "transaction": {
        "from": "0xcbdae57cd2722fb8e292a876bfc641d8c7faa887",
        "to": "0xdfa038e4f3b4e3ed2289e1f999839754d91a4ec4",
        "gas": "0x19abe",
        "value": "0x0",
        "input": "0xa34123a7ffffffffffffffffffffffffffffffffffffffffffffffffffffffffffffffc4000000000000000000000000000000000000000000000000000000000000003c0000000000000000000000000000000000000000000000000000000000000000",
        "nonce": "0xed",
        "chainId": "0xaa36a7"
      },
      "additionalContracts": [],
      "isFixedGasLimit": false
    },
    {
      "hash": "0x5561c26b764a073c44dfdc4904487dc56ac8c7568e0de3d428f8f41d79bd0811",
      "transactionType": "CALL",
      "contractName": null,
      "contractAddress": "0xdfa038e4f3b4e3ed2289e1f999839754d91a4ec4",
      "function": "collect(address,int24,int24,uint128,uint128)",
      "arguments": [
        "0xcBdAE57cd2722fB8e292A876BfC641D8C7faA887",
        "-60",
        "60",
        "340282366920938463463374607431768211455",
        "340282366920938463463374607431768211455"
      ],
      "transaction": {
        "from": "0xcbdae57cd2722fb8e292a876bfc641d8c7faa887",
        "to": "0xdfa038e4f3b4e3ed2289e1f999839754d91a4ec4",
        "gas": "0xab15",
        "value": "0x0",
        "input": "0x4f1eb3d8000000000000000000000000cbdae57cd2722fb8e292a876bfc641d8c7faa887ffffffffffffffffffffffffffffffffffffffffffffffffffffffffffffffc4000000000000000000000000000000000000000000000000000000000000003c00000000000000000000000000000000ffffffffffffffffffffffffffffffff00000000000000000000000000000000ffffffffffffffffffffffffffffffff",
        "nonce": "0xee",
        "chainId": "0xaa36a7"
      },
      "additionalContracts": [],
      "isFixedGasLimit": false
    },
    {
      "hash": "0x8cfbdc239bf752b7e503d3fb7eb8057f76f6e302af3069924da9784d7d9930b4",
      "transactionType": "CALL",
      "contractName": null,
      "contractAddress": "0xdfa038e4f3b4e3ed2289e1f999839754d91a4ec4",
      "function": "burn(int24,int24,uint128)",
      "arguments": [
        "-60",
        "60",
        "1000000000000000000"
      ],
      "transaction": {
        "from": "0xcbdae57cd2722fb8e292a876bfc641d8c7faa887",
        "to": "0xdfa038e4f3b4e3ed2289e1f999839754d91a4ec4",
        "gas": "0x21abf",
        "value": "0x0",
        "input": "0xa34123a7ffffffffffffffffffffffffffffffffffffffffffffffffffffffffffffffc4000000000000000000000000000000000000000000000000000000000000003c0000000000000000000000000000000000000000000000000de0b6b3a7640000",
        "nonce": "0xef",
        "chainId": "0xaa36a7"
      },
      "additionalContracts": [],
      "isFixedGasLimit": false
    },
    {
      "hash": "0x4f40bd7542f0350ff178abce54f9ee9b145ffe7c004f6a7f6fd25fd321aa407e",
      "transactionType": "CALL",
      "contractName": null,
      "contractAddress": "0xdfa038e4f3b4e3ed2289e1f999839754d91a4ec4",
      "function": "collect(address,int24,int24,uint128,uint128)",
      "arguments": [
        "0xcBdAE57cd2722fB8e292A876BfC641D8C7faA887",
        "-60",
        "60",
        "340282366920938463463374607431768211455",
        "340282366920938463463374607431768211455"
      ],
      "transaction": {
        "from": "0xcbdae57cd2722fb8e292a876bfc641d8c7faa887",
        "to": "0xdfa038e4f3b4e3ed2289e1f999839754d91a4ec4",
        "gas": "0x17414",
        "value": "0x0",
        "input": "0x4f1eb3d8000000000000000000000000cbdae57cd2722fb8e292a876bfc641d8c7faa887ffffffffffffffffffffffffffffffffffffffffffffffffffffffffffffffc4000000000000000000000000000000000000000000000000000000000000003c00000000000000000000000000000000ffffffffffffffffffffffffffffffff00000000000000000000000000000000ffffffffffffffffffffffffffffffff",
        "nonce": "0xf0",
        "chainId": "0xaa36a7"
      },
      "additionalContracts": [],
      "isFixedGasLimit": false
    }
  ],
  "receipts": [
    {
      "status": "0x1",
      "cumulativeGasUsed": "0x84c7c2",
      "logs": [
        {
          "address": "0x47574b282f9468c3f0a8da7e48a6ce399c7dfaef",
          "topics": [
            "0xddf252ad1be2c89b69c2b068fc378daa952ba7f163c4a11628f55a4df523b3ef",
            "0x0000000000000000000000000000000000000000000000000000000000000000",
            "0x000000000000000000000000cbdae57cd2722fb8e292a876bfc641d8c7faa887"
          ],
          "data": "0x0000000000000000000000000000000000000000000000056bc75e2d63100000",
          "blockHash": "0xfd17a157a825a53aadf6414836e00f9009d52731e07a4994c35035c7cd854fd0",
          "blockNumber": "0x9faf60",
          "blockTimestamp": "0x69b99490",
          "transactionHash": "0xd361a98d604122ea583fe2186f39ca3b3918127ef9d3b73cab0c1542eb92c663",
          "transactionIndex": "0x55",
          "logIndex": "0x8a",
          "removed": false
        }
      ],
      "logsBloom": "0x00000000000000000000000000000000000000000002000000000000000000010000000000000000000000000000000000000000000000000000000000000000000000000000000000000008000000000000000000000001000000000000000000000000020000000000000000000800000000000000000000000010000000000000000000000000000000000000000000000000000000000000000000000008000000000000000000000000000000000000000000000000000000000000000000000002000000000000000000000000000000000000000000000000000020000000000000000010000000000000080000000000000000000000000000000000",
      "type": "0x2",
      "transactionHash": "0xd361a98d604122ea583fe2186f39ca3b3918127ef9d3b73cab0c1542eb92c663",
      "transactionIndex": "0x55",
      "blockHash": "0xfd17a157a825a53aadf6414836e00f9009d52731e07a4994c35035c7cd854fd0",
      "blockNumber": "0x9faf60",
      "gasUsed": "0x899c",
      "effectiveGasPrice": "0xf424a",
      "from": "0xe69228626e4800578d06a93baaa595f6634a47c3",
      "to": "0x47574b282f9468c3f0a8da7e48a6ce399c7dfaef",
      "contractAddress": null
    },
    {
      "status": "0x1",
      "cumulativeGasUsed": "0x9393b5",
      "logs": [
        {
          "address": "0x686a70a784f39a230959bcc19f85dd09e5d6e01b",
          "topics": [
            "0xddf252ad1be2c89b69c2b068fc378daa952ba7f163c4a11628f55a4df523b3ef",
            "0x0000000000000000000000000000000000000000000000000000000000000000",
            "0x000000000000000000000000cbdae57cd2722fb8e292a876bfc641d8c7faa887"
          ],
          "data": "0x0000000000000000000000000000000000000000000000056bc75e2d63100000",
          "blockHash": "0xd9853427314cbba091782f0b61c74635208746f04cf5d288adb0805e2291aeef",
          "blockNumber": "0x9faf61",
          "blockTimestamp": "0x69b9949c",
          "transactionHash": "0xbb6bb71fe6297476d6db124db42b49f1cc7067d488d0ca1ef6e89896d6566ca4",
          "transactionIndex": "0x65",
          "logIndex": "0xdf",
          "removed": false
        }
      ],
      "logsBloom": "0x00000002000000000000000000000000000000000000000000000000000000010000000000000000000010000000000000000000000000000000000000000000000000000040000000000008000000000000000000000000000000000000000000000000020000000000000000000800000000000000000000000010000000000000000000000000000000000000000000000000000000000000000000000008000000000000000000000000000000000000000000000000000000000000000000000002000000000000000000000000000000000000000000000000000020000000000000000010000000000000000000000000000000000000000000000000",
      "type": "0x2",
      "transactionHash": "0xbb6bb71fe6297476d6db124db42b49f1cc7067d488d0ca1ef6e89896d6566ca4",
      "transactionIndex": "0x65",
      "blockHash": "0xd9853427314cbba091782f0b61c74635208746f04cf5d288adb0805e2291aeef",
      "blockNumber": "0x9faf61",
      "gasUsed": "0x899c",
      "effectiveGasPrice": "0xf424a",
      "from": "0xe69228626e4800578d06a93baaa595f6634a47c3",
      "to": "0x686a70a784f39a230959bcc19f85dd09e5d6e01b",
      "contractAddress": null
    },
    {
      "status": "0x1",
      "cumulativeGasUsed": "0xd0f06f",
      "logs": [
        {
          "address": "0x47574b282f9468c3f0a8da7e48a6ce399c7dfaef",
          "topics": [
            "0xddf252ad1be2c89b69c2b068fc378daa952ba7f163c4a11628f55a4df523b3ef",
            "0x0000000000000000000000000000000000000000000000000000000000000000",
            "0x000000000000000000000000787290318224efe3ef93814deba2ba0a841ea1b2"
          ],
          "data": "0x0000000000000000000000000000000000000000000000056bc75e2d63100000",
          "blockHash": "0x351183b3efaa92b2a26ef5cc7291975f4a0c728e02320791e0150eaaa438129e",
          "blockNumber": "0x9faf62",
          "blockTimestamp": "0x69b994b4",
          "transactionHash": "0x67673f3da3ada2223bd28f0568a5febe8182d9c4fcc81d94dfbd124b355aa42e",
          "transactionIndex": "0x7f",
          "logIndex": "0x117",
          "removed": false
        }
      ],
      "logsBloom": "0x00000000000000000000000000000000000000000002000000000000000000000000000000002000000000000000000000000000000000000000000000400000000000000000000000000008000000000000000000000001000000000000000000000000020000000000000000000800000000000000000000000010000000000000000000000000000000000000000000000000000000000000000000000000000000000000000000000000000000000000008000000000000000000000000000000002000000000000000000000000000000000000000000000000000020000000000000000000000000000000080000000000000000000000000000000000",
      "type": "0x2",
      "transactionHash": "0x67673f3da3ada2223bd28f0568a5febe8182d9c4fcc81d94dfbd124b355aa42e",
      "transactionIndex": "0x7f",
      "blockHash": "0x351183b3efaa92b2a26ef5cc7291975f4a0c728e02320791e0150eaaa438129e",
      "blockNumber": "0x9faf62",
      "gasUsed": "0x899c",
      "effectiveGasPrice": "0xf424a",
      "from": "0xe69228626e4800578d06a93baaa595f6634a47c3",
      "to": "0x47574b282f9468c3f0a8da7e48a6ce399c7dfaef",
      "contractAddress": null
    },
    {
      "status": "0x1",
      "cumulativeGasUsed": "0x1124b6a",
      "logs": [
        {
          "address": "0x686a70a784f39a230959bcc19f85dd09e5d6e01b",
          "topics": [
            "0xddf252ad1be2c89b69c2b068fc378daa952ba7f163c4a11628f55a4df523b3ef",
            "0x0000000000000000000000000000000000000000000000000000000000000000",
            "0x000000000000000000000000787290318224efe3ef93814deba2ba0a841ea1b2"
          ],
          "data": "0x0000000000000000000000000000000000000000000000056bc75e2d63100000",
          "blockHash": "0xf961ff6e2c1f1efea4de16402c9a9c542ef0737d8e5f57936f208bfab3e92f93",
          "blockNumber": "0x9faf63",
          "blockTimestamp": "0x69b994d8",
          "transactionHash": "0x557a82f5edc9ed3cf8ab01a36a9c2ea5f66e425b03f2ce7850ca7942e398093a",
          "transactionIndex": "0xa0",
          "logIndex": "0x180",
          "removed": false
        }
      ],
      "logsBloom": "0x00000002000000000000000000000000000000000000000000000000000000000000000000002000000010000000000000000000000000000000000000400000000000000040000000000008000000000000000000000000000000000000000000000000020000000000000000000800000000000000000000000010000000000000000000000000000000000000000000000000000000000000000000000000000000000000000000000000000000000000008000000000000000000000000000000002000000000000000000000000000000000000000000000000000020000000000000000000000000000000000000000000000000000000000000000000",
      "type": "0x2",
      "transactionHash": "0x557a82f5edc9ed3cf8ab01a36a9c2ea5f66e425b03f2ce7850ca7942e398093a",
      "transactionIndex": "0xa0",
      "blockHash": "0xf961ff6e2c1f1efea4de16402c9a9c542ef0737d8e5f57936f208bfab3e92f93",
      "blockNumber": "0x9faf63",
      "gasUsed": "0x899c",
      "effectiveGasPrice": "0xf424a",
      "from": "0xe69228626e4800578d06a93baaa595f6634a47c3",
      "to": "0x686a70a784f39a230959bcc19f85dd09e5d6e01b",
      "contractAddress": null
    },
    {
      "status": "0x1",
      "cumulativeGasUsed": "0xb02b59",
      "logs": [
        {
          "address": "0x47574b282f9468c3f0a8da7e48a6ce399c7dfaef",
          "topics": [
            "0xddf252ad1be2c89b69c2b068fc378daa952ba7f163c4a11628f55a4df523b3ef",
            "0x0000000000000000000000000000000000000000000000000000000000000000",
            "0x0000000000000000000000004176498bd638e319bb845a97b424efac83f87921"
          ],
          "data": "0x0000000000000000000000000000000000000000000000056bc75e2d63100000",
          "blockHash": "0x9302365c9b48d24388b2a9bba21f4caacb194c408fd739f1b7d3456af5494f90",
          "blockNumber": "0x9faf65",
          "blockTimestamp": "0x69b994fc",
          "transactionHash": "0x91f35d642e28aa096303e8f45421ac61587c23e580dd3e831c08f4e1b57bd6d9",
          "transactionIndex": "0x76",
          "logIndex": "0xd0",
          "removed": false
        }
      ],
      "logsBloom": "0x00000000000000000000000000000000000000000002000000000000000000000000000000000000000000000000000000000000000000000000000000000000000000000000000000000008000000000400000000000001000000000000000000000000020000000000000000000800000000000000000000000010000000000000000000000000000000000000000000000000000000000000000000000000000000000000000000000000000000000000000000000000000000000000000000000002000000000000000000000000000000000000000008000000000420000000000000000000000000000000080000000000000000000000000000000000",
      "type": "0x2",
      "transactionHash": "0x91f35d642e28aa096303e8f45421ac61587c23e580dd3e831c08f4e1b57bd6d9",
      "transactionIndex": "0x76",
      "blockHash": "0x9302365c9b48d24388b2a9bba21f4caacb194c408fd739f1b7d3456af5494f90",
      "blockNumber": "0x9faf65",
      "gasUsed": "0x899c",
      "effectiveGasPrice": "0xf424a",
      "from": "0xe69228626e4800578d06a93baaa595f6634a47c3",
      "to": "0x47574b282f9468c3f0a8da7e48a6ce399c7dfaef",
      "contractAddress": null
    },
    {
      "status": "0x1",
      "cumulativeGasUsed": "0x758344",
      "logs": [
        {
          "address": "0x686a70a784f39a230959bcc19f85dd09e5d6e01b",
          "topics": [
            "0xddf252ad1be2c89b69c2b068fc378daa952ba7f163c4a11628f55a4df523b3ef",
            "0x0000000000000000000000000000000000000000000000000000000000000000",
            "0x0000000000000000000000004176498bd638e319bb845a97b424efac83f87921"
          ],
          "data": "0x0000000000000000000000000000000000000000000000056bc75e2d63100000",
          "blockHash": "0xbd8eddab06860b0919da057b433ec1f4e76cccdc88d51c8eae0361b7511ac05d",
          "blockNumber": "0x9faf66",
          "blockTimestamp": "0x69b99508",
          "transactionHash": "0x88083bbd53509f1545df57451500455e310826080f0a6da51cf29a404056be1f",
          "transactionIndex": "0x5d",
          "logIndex": "0xa5",
          "removed": false
        }
      ],
      "logsBloom": "0x00000002000000000000000000000000000000000000000000000000000000000000000000000000000010000000000000000000000000000000000000000000000000000040000000000008000000000400000000000000000000000000000000000000020000000000000000000800000000000000000000000010000000000000000000000000000000000000000000000000000000000000000000000000000000000000000000000000000000000000000000000000000000000000000000000002000000000000000000000000000000000000000008000000000420000000000000000000000000000000000000000000000000000000000000000000",
      "type": "0x2",
      "transactionHash": "0x88083bbd53509f1545df57451500455e310826080f0a6da51cf29a404056be1f",
      "transactionIndex": "0x5d",
      "blockHash": "0xbd8eddab06860b0919da057b433ec1f4e76cccdc88d51c8eae0361b7511ac05d",
      "blockNumber": "0x9faf66",
      "gasUsed": "0x899c",
      "effectiveGasPrice": "0xf424a",
      "from": "0xe69228626e4800578d06a93baaa595f6634a47c3",
      "to": "0x686a70a784f39a230959bcc19f85dd09e5d6e01b",
      "contractAddress": null
    },
    {
      "status": "0x1",
      "cumulativeGasUsed": "0x687421",
      "logs": [
        {
          "address": "0x47574b282f9468c3f0a8da7e48a6ce399c7dfaef",
          "topics": [
            "0x8c5be1e5ebec7d5bd14f71427d1e84f3dd0314c0f7b2291e5b200ac8c7c3b925",
            "0x000000000000000000000000cbdae57cd2722fb8e292a876bfc641d8c7faa887",
            "0x000000000000000000000000000000000022d473030f116ddee9f6b43ac78ba3"
          ],
          "data": "0xffffffffffffffffffffffffffffffffffffffffffffffffffffffffffffffff",
          "blockHash": "0xa95bc2d3bd86d6b32158fcfde71d882af66431601caa57928b366fd58d46d81b",
          "blockNumber": "0x9faf67",
          "blockTimestamp": "0x69b99514",
          "transactionHash": "0x7f5dcf228d40f22ae9bde40243465700d3fcf9f3049e9de02f9f6f762759ea33",
          "transactionIndex": "0x48",
          "logIndex": "0xb4",
          "removed": false
        }
      ],
      "logsBloom": "0x00000000000000000000000000000000000000000002000000000000000000010000000000000000000000000000000000000000800000000000000000200000000000000000000000004000000000000000000000000801000000000000000000000000000000000000000000000000000000000000000000000000000000000000000000000000000000000000000000000000000000000000000000000008020000000000000000000000000000000000000000000000000000000000000000000000000000000000000000000000000000000000000000000000000000000010000000000010000000000000080000000000000000000000000000000000",
      "type": "0x2",
      "transactionHash": "0x7f5dcf228d40f22ae9bde40243465700d3fcf9f3049e9de02f9f6f762759ea33",
      "transactionIndex": "0x48",
      "blockHash": "0xa95bc2d3bd86d6b32158fcfde71d882af66431601caa57928b366fd58d46d81b",
      "blockNumber": "0x9faf67",
      "gasUsed": "0x68b8",
      "effectiveGasPrice": "0xf424a",
      "from": "0xcbdae57cd2722fb8e292a876bfc641d8c7faa887",
      "to": "0x47574b282f9468c3f0a8da7e48a6ce399c7dfaef",
      "contractAddress": null
    },
    {
      "status": "0x1",
      "cumulativeGasUsed": "0xb181cb",
      "logs": [
        {
          "address": "0x686a70a784f39a230959bcc19f85dd09e5d6e01b",
          "topics": [
            "0x8c5be1e5ebec7d5bd14f71427d1e84f3dd0314c0f7b2291e5b200ac8c7c3b925",
            "0x000000000000000000000000cbdae57cd2722fb8e292a876bfc641d8c7faa887",
            "0x000000000000000000000000000000000022d473030f116ddee9f6b43ac78ba3"
          ],
          "data": "0xffffffffffffffffffffffffffffffffffffffffffffffffffffffffffffffff",
          "blockHash": "0xc4466654918db406fb1716484483a1b7d319f28f49977014c707092ae221dbbd",
          "blockNumber": "0x9faf68",
          "blockTimestamp": "0x69b99520",
          "transactionHash": "0xbf74115954552e0674e0c955b7dde9dc167f181006640c1f64182caf5eb62705",
          "transactionIndex": "0x53",
          "logIndex": "0x100",
          "removed": false
        }
      ],
      "logsBloom": "0x00000002000000000000000000000000000000000000000000000000000000010000000000000000000010000000000000000000800000000000000000200000000000000040000000004000000000000000000000000800000000000000000000000000000000000000000000000000000000000000000000000000000000000000000000000000000000000000000000000000000000000000000000000008020000000000000000000000000000000000000000000000000000000000000000000000000000000000000000000000000000000000000000000000000000000010000000000010000000000000000000000000000000000000000000000000",
      "type": "0x2",
      "transactionHash": "0xbf74115954552e0674e0c955b7dde9dc167f181006640c1f64182caf5eb62705",
      "transactionIndex": "0x53",
      "blockHash": "0xc4466654918db406fb1716484483a1b7d319f28f49977014c707092ae221dbbd",
      "blockNumber": "0x9faf68",
      "gasUsed": "0x68b8",
      "effectiveGasPrice": "0xf424a",
      "from": "0xcbdae57cd2722fb8e292a876bfc641d8c7faa887",
      "to": "0x686a70a784f39a230959bcc19f85dd09e5d6e01b",
      "contractAddress": null
    },
    {
      "status": "0x1",
      "cumulativeGasUsed": "0x6f480a",
      "logs": [
        {
          "address": "0x000000000022d473030f116ddee9f6b43ac78ba3",
          "topics": [
            "0xda9fa7c1b00402c17d0161b249b1ab8bbec047c5a52207b9c112deffd817036b",
            "0x000000000000000000000000cbdae57cd2722fb8e292a876bfc641d8c7faa887",
            "0x00000000000000000000000047574b282f9468c3f0a8da7e48a6ce399c7dfaef",
            "0x000000000000000000000000429ba70129df741b2ca2a85bc3a2a3328e5c09b4"
          ],
          "data": "0x000000000000000000000000ffffffffffffffffffffffffffffffffffffffff0000000000000000000000000000000000000000000000000000fffffffffffe",
          "blockHash": "0xaeb190e2a98b7893dfe7c4bd5f16bce1b3add9b0e47f4d69335b1bc186c06dc3",
          "blockNumber": "0x9faf69",
          "blockTimestamp": "0x69b9952c",
          "transactionHash": "0x1abba74d6b7fc45f044aafc69543e487e9d0343eec18aa75a34734e3b1f23192",
          "transactionIndex": "0x53",
          "logIndex": "0x93",
          "removed": false
        }
      ],
      "logsBloom": "0x00010000000000000000000000000000000000000000000000000000000000014000000000000040080000000000000000000000000000000000000000080000000000000000000000040000000000000000000000000000000000000000000000000000000000000000000000000000000000000000000000000800000000000020000000000000000000000000000000000000000000000000000000000008000000400000000000000000000000000000000000000000000000080000000000000000000000000000000000000000000000000000000040000000000000000000000000000010000000000000000000000000000000000000000000000400",
      "type": "0x2",
      "transactionHash": "0x1abba74d6b7fc45f044aafc69543e487e9d0343eec18aa75a34734e3b1f23192",
      "transactionIndex": "0x53",
      "blockHash": "0xaeb190e2a98b7893dfe7c4bd5f16bce1b3add9b0e47f4d69335b1bc186c06dc3",
      "blockNumber": "0x9faf69",
      "gasUsed": "0x6d0e",
      "effectiveGasPrice": "0xf424a",
      "from": "0xcbdae57cd2722fb8e292a876bfc641d8c7faa887",
      "to": "0x000000000022d473030f116ddee9f6b43ac78ba3",
      "contractAddress": null
    },
    {
      "status": "0x1",
      "cumulativeGasUsed": "0xa06e1f",
      "logs": [
        {
          "address": "0x000000000022d473030f116ddee9f6b43ac78ba3",
          "topics": [
            "0xda9fa7c1b00402c17d0161b249b1ab8bbec047c5a52207b9c112deffd817036b",
            "0x000000000000000000000000cbdae57cd2722fb8e292a876bfc641d8c7faa887",
            "0x000000000000000000000000686a70a784f39a230959bcc19f85dd09e5d6e01b",
            "0x000000000000000000000000429ba70129df741b2ca2a85bc3a2a3328e5c09b4"
          ],
          "data": "0x000000000000000000000000ffffffffffffffffffffffffffffffffffffffff0000000000000000000000000000000000000000000000000000fffffffffffe",
          "blockHash": "0xce30ddf7961f578f44122429e04c39b6e3ef4b8137559e09ffa08696cfd0624e",
          "blockNumber": "0x9faf6a",
          "blockTimestamp": "0x69b99544",
          "transactionHash": "0x4c4bf0241b7c4677270796f0950f63f773e70bd0b76e166c3513c651ba1b9ae1",
          "transactionIndex": "0x61",
          "logIndex": "0xc1",
          "removed": false
        }
      ],
      "logsBloom": "0x08010000000000000000010000000000000000000000000000000000000000010000000000000040080000000000000000000000000000000000000000080000000000000000000000000000000000000000000000000000000000000000000000000000000000000000000000000000000000100000000000000800000000000020000000000000000000000000000000000000000000000000000000000008000000000000000000000000000000000000000000000000000000080000000000000000000000000000000000000000000000000000000040000000000000000000000000000010000000000000000000000000000000000000000000000400",
      "type": "0x2",
      "transactionHash": "0x4c4bf0241b7c4677270796f0950f63f773e70bd0b76e166c3513c651ba1b9ae1",
      "transactionIndex": "0x61",
      "blockHash": "0xce30ddf7961f578f44122429e04c39b6e3ef4b8137559e09ffa08696cfd0624e",
      "blockNumber": "0x9faf6a",
      "gasUsed": "0x6d0e",
      "effectiveGasPrice": "0xf424a",
      "from": "0xcbdae57cd2722fb8e292a876bfc641d8c7faa887",
      "to": "0x000000000022d473030f116ddee9f6b43ac78ba3",
      "contractAddress": null
    },
    {
      "status": "0x1",
      "cumulativeGasUsed": "0x98bb8d",
      "logs": [
        {
          "address": "0x47574b282f9468c3f0a8da7e48a6ce399c7dfaef",
          "topics": [
            "0x8c5be1e5ebec7d5bd14f71427d1e84f3dd0314c0f7b2291e5b200ac8c7c3b925",
            "0x000000000000000000000000cbdae57cd2722fb8e292a876bfc641d8c7faa887",
            "0x0000000000000000000000001284e9d71a87276d05abd860bd9990dce9dd721e"
          ],
          "data": "0xffffffffffffffffffffffffffffffffffffffffffffffffffffffffffffffff",
          "blockHash": "0x72918fe7101a4cc0fcb07857d14cafd604b7df7f655081c316cf49c1017aa419",
          "blockNumber": "0x9faf6b",
          "blockTimestamp": "0x69b99550",
          "transactionHash": "0x0b0faa7047b9a487a18a93bcf8a656f5d6b45f5e0052a11b6d1f56a40848e394",
          "transactionIndex": "0x46",
          "logIndex": "0x7d",
          "removed": false
        }
      ],
      "logsBloom": "0x00000000000000000000000000000000000000000002000000000000000000010000000000000000000000000000000000000000000000000000000000200000000000000000000000000000000000000000000000000001000000000000000000000000000000000000000000000000000000000000000000000000000000000000000000000000000000000000000000000000000000000000400000000008020000000000000000000000000000000800000000000000000000000000000000000000000000000000000000000000000000000000000000000000000002000010000000000010000000000000080000000000000000000000000000000000",
      "type": "0x2",
      "transactionHash": "0x0b0faa7047b9a487a18a93bcf8a656f5d6b45f5e0052a11b6d1f56a40848e394",
      "transactionIndex": "0x46",
      "blockHash": "0x72918fe7101a4cc0fcb07857d14cafd604b7df7f655081c316cf49c1017aa419",
      "blockNumber": "0x9faf6b",
      "gasUsed": "0x68f4",
      "effectiveGasPrice": "0xf424a",
      "from": "0xcbdae57cd2722fb8e292a876bfc641d8c7faa887",
      "to": "0x47574b282f9468c3f0a8da7e48a6ce399c7dfaef",
      "contractAddress": null
    },
    {
      "status": "0x1",
      "cumulativeGasUsed": "0x46bb83",
      "logs": [
        {
          "address": "0x686a70a784f39a230959bcc19f85dd09e5d6e01b",
          "topics": [
            "0x8c5be1e5ebec7d5bd14f71427d1e84f3dd0314c0f7b2291e5b200ac8c7c3b925",
            "0x000000000000000000000000cbdae57cd2722fb8e292a876bfc641d8c7faa887",
            "0x0000000000000000000000001284e9d71a87276d05abd860bd9990dce9dd721e"
          ],
          "data": "0xffffffffffffffffffffffffffffffffffffffffffffffffffffffffffffffff",
          "blockHash": "0xc90db0238b0af803392177987a79c752ec4e2a1189776c2fd780694f70116355",
          "blockNumber": "0x9faf6c",
          "blockTimestamp": "0x69b9955c",
          "transactionHash": "0x6ffb41c87d3ebabe3fb90016b43bc10ff764cf3c4d973dd490442c9624dcc646",
          "transactionIndex": "0x2e",
          "logIndex": "0x54",
          "removed": false
        }
      ],
      "logsBloom": "0x00000002000000000000000000000000000000000000000000000000000000010000000000000000000010000000000000000000000000000000000000200000000000000040000000000000000000000000000000000000000000000000000000000000000000000000000000000000000000000000000000000000000000000000000000000000000000000000000000000000000000000000400000000008020000000000000000000000000000000800000000000000000000000000000000000000000000000000000000000000000000000000000000000000000002000010000000000010000000000000000000000000000000000000000000000000",
      "type": "0x2",
      "transactionHash": "0x6ffb41c87d3ebabe3fb90016b43bc10ff764cf3c4d973dd490442c9624dcc646",
      "transactionIndex": "0x2e",
      "blockHash": "0xc90db0238b0af803392177987a79c752ec4e2a1189776c2fd780694f70116355",
      "blockNumber": "0x9faf6c",
      "gasUsed": "0x68f4",
      "effectiveGasPrice": "0xf424a",
      "from": "0xcbdae57cd2722fb8e292a876bfc641d8c7faa887",
      "to": "0x686a70a784f39a230959bcc19f85dd09e5d6e01b",
      "contractAddress": null
    },
    {
      "status": "0x1",
      "cumulativeGasUsed": "0x7be50e",
      "logs": [
        {
          "address": "0x47574b282f9468c3f0a8da7e48a6ce399c7dfaef",
          "topics": [
            "0x8c5be1e5ebec7d5bd14f71427d1e84f3dd0314c0f7b2291e5b200ac8c7c3b925",
            "0x000000000000000000000000787290318224efe3ef93814deba2ba0a841ea1b2",
            "0x000000000000000000000000000000000022d473030f116ddee9f6b43ac78ba3"
          ],
          "data": "0xffffffffffffffffffffffffffffffffffffffffffffffffffffffffffffffff",
          "blockHash": "0xbf06333a946676e1b33c0cfd66edae191ac5b2ed890001427de0365b6968c3a7",
          "blockNumber": "0x9faf6d",
          "blockTimestamp": "0x69b99568",
          "transactionHash": "0xf0b2e00dd3e80526cabb0d79b056e6ac7e6115497b94e4b5de87ca7d2a449f69",
          "transactionIndex": "0x5a",
          "logIndex": "0x96",
          "removed": false
        }
      ],
      "logsBloom": "0x00000000000000000000000000000000000000000002000000000000000000000000000000002000000000000000000000000000800000000000000000600000000000000000000000004000000000000000000000000801000000000000000000000000000000000000000000000000000000000000000000000000000000000000000000000000000000000000000000000000000000000000000000000000020000000000000000000000000000000000008000000000000000000000000000000000000000000000000000000000000000000000000000000000000000000010000000000000000000000000080000000000000000000000000000000000",
      "type": "0x2",
      "transactionHash": "0xf0b2e00dd3e80526cabb0d79b056e6ac7e6115497b94e4b5de87ca7d2a449f69",
      "transactionIndex": "0x5a",
      "blockHash": "0xbf06333a946676e1b33c0cfd66edae191ac5b2ed890001427de0365b6968c3a7",
      "blockNumber": "0x9faf6d",
      "gasUsed": "0x68b8",
      "effectiveGasPrice": "0xf4249",
      "from": "0x787290318224efe3ef93814deba2ba0a841ea1b2",
      "to": "0x47574b282f9468c3f0a8da7e48a6ce399c7dfaef",
      "contractAddress": null
    },
    {
      "status": "0x1",
      "cumulativeGasUsed": "0xa704c8",
      "logs": [
        {
          "address": "0x686a70a784f39a230959bcc19f85dd09e5d6e01b",
          "topics": [
            "0x8c5be1e5ebec7d5bd14f71427d1e84f3dd0314c0f7b2291e5b200ac8c7c3b925",
            "0x000000000000000000000000787290318224efe3ef93814deba2ba0a841ea1b2",
            "0x000000000000000000000000000000000022d473030f116ddee9f6b43ac78ba3"
          ],
          "data": "0xffffffffffffffffffffffffffffffffffffffffffffffffffffffffffffffff",
          "blockHash": "0x0b7c3dfeea6639ee65c41eb2bc5f2907ed608bb8665517f91f80688c3a11e494",
          "blockNumber": "0x9faf6e",
          "blockTimestamp": "0x69b99580",
          "transactionHash": "0x7627e491892f9820e0dd8ab40c0bf9b43bd8db2d5423aba4860df6bdc5636267",
          "transactionIndex": "0x5e",
          "logIndex": "0xd0",
          "removed": false
        }
      ],
      "logsBloom": "0x00000002000000000000000000000000000000000000000000000000000000000000000000002000000010000000000000000000800000000000000000600000000000000040000000004000000000000000000000000800000000000000000000000000000000000000000000000000000000000000000000000000000000000000000000000000000000000000000000000000000000000000000000000000020000000000000000000000000000000000008000000000000000000000000000000000000000000000000000000000000000000000000000000000000000000010000000000000000000000000000000000000000000000000000000000000",
      "type": "0x2",
      "transactionHash": "0x7627e491892f9820e0dd8ab40c0bf9b43bd8db2d5423aba4860df6bdc5636267",
      "transactionIndex": "0x5e",
      "blockHash": "0x0b7c3dfeea6639ee65c41eb2bc5f2907ed608bb8665517f91f80688c3a11e494",
      "blockNumber": "0x9faf6e",
      "gasUsed": "0x68b8",
      "effectiveGasPrice": "0xf4249",
      "from": "0x787290318224efe3ef93814deba2ba0a841ea1b2",
      "to": "0x686a70a784f39a230959bcc19f85dd09e5d6e01b",
      "contractAddress": null
    },
    {
      "status": "0x1",
      "cumulativeGasUsed": "0xaf1726",
      "logs": [
        {
          "address": "0x000000000022d473030f116ddee9f6b43ac78ba3",
          "topics": [
            "0xda9fa7c1b00402c17d0161b249b1ab8bbec047c5a52207b9c112deffd817036b",
            "0x000000000000000000000000787290318224efe3ef93814deba2ba0a841ea1b2",
            "0x00000000000000000000000047574b282f9468c3f0a8da7e48a6ce399c7dfaef",
            "0x000000000000000000000000429ba70129df741b2ca2a85bc3a2a3328e5c09b4"
          ],
          "data": "0x000000000000000000000000ffffffffffffffffffffffffffffffffffffffff0000000000000000000000000000000000000000000000000000fffffffffffe",
          "blockHash": "0x161d79de7a6d059d3becc6c597143cc60800fc9b31b4b873647d46f067267e62",
          "blockNumber": "0x9faf6f",
          "blockTimestamp": "0x69b9958c",
          "transactionHash": "0xa71bf74b4e0ae5cc71d530ec8880575789b85ba34401d3cda6836997587e9c9d",
          "transactionIndex": "0x53",
          "logIndex": "0xa1",
          "removed": false
        }
      ],
      "logsBloom": "0x00010000000000000000000000000000000000000000000000000000000000004000000000002040080000000000000000000000000000000000000000480000000000000000000000040000000000000000000000000000000000000000000000000000000000000000000000000000000000000000000000000800000000000020000000000000000000000000000000000000000000000000000000000000000000400000000000000000000000000000008000000000000000080000000000000000000000000000000000000000000000000000000040000000000000000000000000000000000000000000000000000000000000000000000000000400",
      "type": "0x2",
      "transactionHash": "0xa71bf74b4e0ae5cc71d530ec8880575789b85ba34401d3cda6836997587e9c9d",
      "transactionIndex": "0x53",
      "blockHash": "0x161d79de7a6d059d3becc6c597143cc60800fc9b31b4b873647d46f067267e62",
      "blockNumber": "0x9faf6f",
      "gasUsed": "0x6d0e",
      "effectiveGasPrice": "0xf4249",
      "from": "0x787290318224efe3ef93814deba2ba0a841ea1b2",
      "to": "0x000000000022d473030f116ddee9f6b43ac78ba3",
      "contractAddress": null
    },
    {
      "status": "0x1",
      "cumulativeGasUsed": "0x8010b3",
      "logs": [
        {
          "address": "0x000000000022d473030f116ddee9f6b43ac78ba3",
          "topics": [
            "0xda9fa7c1b00402c17d0161b249b1ab8bbec047c5a52207b9c112deffd817036b",
            "0x000000000000000000000000787290318224efe3ef93814deba2ba0a841ea1b2",
            "0x000000000000000000000000686a70a784f39a230959bcc19f85dd09e5d6e01b",
            "0x000000000000000000000000429ba70129df741b2ca2a85bc3a2a3328e5c09b4"
          ],
          "data": "0x000000000000000000000000ffffffffffffffffffffffffffffffffffffffff0000000000000000000000000000000000000000000000000000fffffffffffe",
          "blockHash": "0x3ddd815ce91629c7ccd60cb527e5dbb24bb36f73e85d8e6cb2da5232008e17a8",
          "blockNumber": "0x9faf70",
          "blockTimestamp": "0x69b99598",
          "transactionHash": "0x281bf7d4a335475b0dc9febab2cb5dd2b747a46ad16600001028a9e6a0ec324b",
          "transactionIndex": "0x42",
          "logIndex": "0x9a",
          "removed": false
        }
      ],
      "logsBloom": "0x08010000000000000000010000000000000000000000000000000000000000000000000000002040080000000000000000000000000000000000000000480000000000000000000000000000000000000000000000000000000000000000000000000000000000000000000000000000000000100000000000000800000000000020000000000000000000000000000000000000000000000000000000000000000000000000000000000000000000000000008000000000000000080000000000000000000000000000000000000000000000000000000040000000000000000000000000000000000000000000000000000000000000000000000000000400",
      "type": "0x2",
      "transactionHash": "0x281bf7d4a335475b0dc9febab2cb5dd2b747a46ad16600001028a9e6a0ec324b",
      "transactionIndex": "0x42",
      "blockHash": "0x3ddd815ce91629c7ccd60cb527e5dbb24bb36f73e85d8e6cb2da5232008e17a8",
      "blockNumber": "0x9faf70",
      "gasUsed": "0x6d0e",
      "effectiveGasPrice": "0xf4249",
      "from": "0x787290318224efe3ef93814deba2ba0a841ea1b2",
      "to": "0x000000000022d473030f116ddee9f6b43ac78ba3",
      "contractAddress": null
    },
    {
      "status": "0x1",
      "cumulativeGasUsed": "0xc08250",
      "logs": [
        {
          "address": "0x47574b282f9468c3f0a8da7e48a6ce399c7dfaef",
          "topics": [
            "0x8c5be1e5ebec7d5bd14f71427d1e84f3dd0314c0f7b2291e5b200ac8c7c3b925",
            "0x000000000000000000000000787290318224efe3ef93814deba2ba0a841ea1b2",
            "0x0000000000000000000000001284e9d71a87276d05abd860bd9990dce9dd721e"
          ],
          "data": "0xffffffffffffffffffffffffffffffffffffffffffffffffffffffffffffffff",
          "blockHash": "0xfaf3d91bd7475f946431df216a2789094f88e3842231741d06f54e2d9192aaf1",
          "blockNumber": "0x9faf71",
          "blockTimestamp": "0x69b995a4",
          "transactionHash": "0x3381c0d994de08d07fa5beb859ce493177569e72b91e9ebedee7608bc5605c9a",
          "transactionIndex": "0x56",
          "logIndex": "0xe2",
          "removed": false
        }
      ],
      "logsBloom": "0x00000000000000000000000000000000000000000002000000000000000000000000000000002000000000000000000000000000000000000000000000600000000000000000000000000000000000000000000000000001000000000000000000000000000000000000000000000000000000000000000000000000000000000000000000000000000000000000000000000000000000000000400000000000020000000000000000000000000000000800008000000000000000000000000000000000000000000000000000000000000000000000000000000000000002000010000000000000000000000000080000000000000000000000000000000000",
      "type": "0x2",
      "transactionHash": "0x3381c0d994de08d07fa5beb859ce493177569e72b91e9ebedee7608bc5605c9a",
      "transactionIndex": "0x56",
      "blockHash": "0xfaf3d91bd7475f946431df216a2789094f88e3842231741d06f54e2d9192aaf1",
      "blockNumber": "0x9faf71",
      "gasUsed": "0x68f4",
      "effectiveGasPrice": "0xf4249",
      "from": "0x787290318224efe3ef93814deba2ba0a841ea1b2",
      "to": "0x47574b282f9468c3f0a8da7e48a6ce399c7dfaef",
      "contractAddress": null
    },
    {
      "status": "0x1",
      "cumulativeGasUsed": "0x96bd0b",
      "logs": [
        {
          "address": "0x686a70a784f39a230959bcc19f85dd09e5d6e01b",
          "topics": [
            "0x8c5be1e5ebec7d5bd14f71427d1e84f3dd0314c0f7b2291e5b200ac8c7c3b925",
            "0x000000000000000000000000787290318224efe3ef93814deba2ba0a841ea1b2",
            "0x0000000000000000000000001284e9d71a87276d05abd860bd9990dce9dd721e"
          ],
          "data": "0xffffffffffffffffffffffffffffffffffffffffffffffffffffffffffffffff",
          "blockHash": "0xffa4f8bd321b011544b116a68a3a1e9f93c1fc8a949c7cb22a40e9e494a78b23",
          "blockNumber": "0x9faf72",
          "blockTimestamp": "0x69b995b0",
          "transactionHash": "0x6519b26bbe90da882964fcdaa00d78ca9b9ceb108071b5d42c3415f45b6dfec4",
          "transactionIndex": "0x38",
          "logIndex": "0x92",
          "removed": false
        }
      ],
      "logsBloom": "0x00000002000000000000000000000000000000000000000000000000000000000000000000002000000010000000000000000000000000000000000000600000000000000040000000000000000000000000000000000000000000000000000000000000000000000000000000000000000000000000000000000000000000000000000000000000000000000000000000000000000000000000400000000000020000000000000000000000000000000800008000000000000000000000000000000000000000000000000000000000000000000000000000000000000002000010000000000000000000000000000000000000000000000000000000000000",
      "type": "0x2",
      "transactionHash": "0x6519b26bbe90da882964fcdaa00d78ca9b9ceb108071b5d42c3415f45b6dfec4",
      "transactionIndex": "0x38",
      "blockHash": "0xffa4f8bd321b011544b116a68a3a1e9f93c1fc8a949c7cb22a40e9e494a78b23",
      "blockNumber": "0x9faf72",
      "gasUsed": "0x68f4",
      "effectiveGasPrice": "0xf4249",
      "from": "0x787290318224efe3ef93814deba2ba0a841ea1b2",
      "to": "0x686a70a784f39a230959bcc19f85dd09e5d6e01b",
      "contractAddress": null
    },
    {
      "status": "0x1",
      "cumulativeGasUsed": "0x98ac2d",
      "logs": [
        {
          "address": "0x47574b282f9468c3f0a8da7e48a6ce399c7dfaef",
          "topics": [
            "0x8c5be1e5ebec7d5bd14f71427d1e84f3dd0314c0f7b2291e5b200ac8c7c3b925",
            "0x0000000000000000000000004176498bd638e319bb845a97b424efac83f87921",
            "0x000000000000000000000000b044e610beeb13cf56a319e41ce1f45826e55e84"
          ],
          "data": "0xffffffffffffffffffffffffffffffffffffffffffffffffffffffffffffffff",
          "blockHash": "0xbe112845d08538c29cf0d906a847e9342ea7a9418dba67df030fdf8b521294b4",
          "blockNumber": "0x9faf73",
          "blockTimestamp": "0x69b995bc",
          "transactionHash": "0x29ecbb51ba15408a7ecde6e4c22d7bebca1f252c143da253b6e1926944e0ce81",
          "transactionIndex": "0x5d",
          "logIndex": "0x98",
          "removed": false
        }
      ],
      "logsBloom": "0x00000000000000000000000000000000000000000002000000000000000000000000000000000000000000000002000000000000000000000000000000200000000000000000000010000000000000000400000000000001000000000000000000000000000000000000000000000000000000000000000000000000000000000000000000100000000000000000000000000000000000000000000000000000020000000000000000000000000000000000000000000000000000000000000000000000000000000000000000000000000000000000000008000000000400000010000000000000000000000000080000000000000000000000000000000000",
      "type": "0x2",
      "transactionHash": "0x29ecbb51ba15408a7ecde6e4c22d7bebca1f252c143da253b6e1926944e0ce81",
      "transactionIndex": "0x5d",
      "blockHash": "0xbe112845d08538c29cf0d906a847e9342ea7a9418dba67df030fdf8b521294b4",
      "blockNumber": "0x9faf73",
      "gasUsed": "0x68f4",
      "effectiveGasPrice": "0xf4249",
      "from": "0x4176498bd638e319bb845a97b424efac83f87921",
      "to": "0x47574b282f9468c3f0a8da7e48a6ce399c7dfaef",
      "contractAddress": null
    },
    {
      "status": "0x1",
      "cumulativeGasUsed": "0x4fa3b2",
      "logs": [
        {
          "address": "0x686a70a784f39a230959bcc19f85dd09e5d6e01b",
          "topics": [
            "0x8c5be1e5ebec7d5bd14f71427d1e84f3dd0314c0f7b2291e5b200ac8c7c3b925",
            "0x0000000000000000000000004176498bd638e319bb845a97b424efac83f87921",
            "0x000000000000000000000000b044e610beeb13cf56a319e41ce1f45826e55e84"
          ],
          "data": "0xffffffffffffffffffffffffffffffffffffffffffffffffffffffffffffffff",
          "blockHash": "0xe2cc18a7bc5abcc565011de096bcbc1fd8ab2068f9244d04e1cf6f53c309d5cc",
          "blockNumber": "0x9faf74",
          "blockTimestamp": "0x69b995c8",
          "transactionHash": "0x94d598fea064bc048682bc042098869fd7a75566613eb7ce1c40857db864f971",
          "transactionIndex": "0x2f",
          "logIndex": "0x5a",
          "removed": false
        }
      ],
      "logsBloom": "0x00000002000000000000000000000000000000000000000000000000000000000000000000000000000010000002000000000000000000000000000000200000000000000040000010000000000000000400000000000000000000000000000000000000000000000000000000000000000000000000000000000000000000000000000000100000000000000000000000000000000000000000000000000000020000000000000000000000000000000000000000000000000000000000000000000000000000000000000000000000000000000000000008000000000400000010000000000000000000000000000000000000000000000000000000000000",
      "type": "0x2",
      "transactionHash": "0x94d598fea064bc048682bc042098869fd7a75566613eb7ce1c40857db864f971",
      "transactionIndex": "0x2f",
      "blockHash": "0xe2cc18a7bc5abcc565011de096bcbc1fd8ab2068f9244d04e1cf6f53c309d5cc",
      "blockNumber": "0x9faf74",
      "gasUsed": "0x68f4",
      "effectiveGasPrice": "0xf4249",
      "from": "0x4176498bd638e319bb845a97b424efac83f87921",
      "to": "0x686a70a784f39a230959bcc19f85dd09e5d6e01b",
      "contractAddress": null
    },
    {
      "status": "0x1",
      "cumulativeGasUsed": "0x7662d5",
      "logs": [
        {
          "address": "0x47574b282f9468c3f0a8da7e48a6ce399c7dfaef",
          "topics": [
            "0x8c5be1e5ebec7d5bd14f71427d1e84f3dd0314c0f7b2291e5b200ac8c7c3b925",
            "0x0000000000000000000000004176498bd638e319bb845a97b424efac83f87921",
            "0x0000000000000000000000001284e9d71a87276d05abd860bd9990dce9dd721e"
          ],
          "data": "0xffffffffffffffffffffffffffffffffffffffffffffffffffffffffffffffff",
          "blockHash": "0x56592a74f3138bb010f2b0d8dcfe6968707fb9ab86f7a69caca9dd5d755ad393",
          "blockNumber": "0x9faf75",
          "blockTimestamp": "0x69b995d4",
          "transactionHash": "0x8c01f63758d6befa0edd301fb7919420514092e233c0b2f744764112b515ddb5",
          "transactionIndex": "0x48",
          "logIndex": "0x8e",
          "removed": false
        }
      ],
      "logsBloom": "0x00000000000000000000000000000000000000000002000000000000000000000000000000000000000000000000000000000000000000000000000000200000000000000000000000000000000000000400000000000001000000000000000000000000000000000000000000000000000000000000000000000000000000000000000000000000000000000000000000000000000000000000400000000000020000000000000000000000000000000800000000000000000000000000000000000000000000000000000000000000000000000000000008000000000402000010000000000000000000000000080000000000000000000000000000000000",
      "type": "0x2",
      "transactionHash": "0x8c01f63758d6befa0edd301fb7919420514092e233c0b2f744764112b515ddb5",
      "transactionIndex": "0x48",
      "blockHash": "0x56592a74f3138bb010f2b0d8dcfe6968707fb9ab86f7a69caca9dd5d755ad393",
      "blockNumber": "0x9faf75",
      "gasUsed": "0x68f4",
      "effectiveGasPrice": "0xf4249",
      "from": "0x4176498bd638e319bb845a97b424efac83f87921",
      "to": "0x47574b282f9468c3f0a8da7e48a6ce399c7dfaef",
      "contractAddress": null
    },
    {
      "status": "0x1",
      "cumulativeGasUsed": "0xfbfef7",
      "logs": [
        {
          "address": "0x686a70a784f39a230959bcc19f85dd09e5d6e01b",
          "topics": [
            "0x8c5be1e5ebec7d5bd14f71427d1e84f3dd0314c0f7b2291e5b200ac8c7c3b925",
            "0x0000000000000000000000004176498bd638e319bb845a97b424efac83f87921",
            "0x0000000000000000000000001284e9d71a87276d05abd860bd9990dce9dd721e"
          ],
          "data": "0xffffffffffffffffffffffffffffffffffffffffffffffffffffffffffffffff",
          "blockHash": "0x3031330f872e3b1579677127a8360922c8e123f60db699979e059dc4d75227b1",
          "blockNumber": "0x9faf76",
          "blockTimestamp": "0x69b995ec",
          "transactionHash": "0x6ec92222274a4865186064ab4f26907e0a45787a91b05f8312ec206e74b07c81",
          "transactionIndex": "0x60",
          "logIndex": "0xbd",
          "removed": false
        }
      ],
      "logsBloom": "0x00000002000000000000000000000000000000000000000000000000000000000000000000000000000010000000000000000000000000000000000000200000000000000040000000000000000000000400000000000000000000000000000000000000000000000000000000000000000000000000000000000000000000000000000000000000000000000000000000000000000000000000400000000000020000000000000000000000000000000800000000000000000000000000000000000000000000000000000000000000000000000000000008000000000402000010000000000000000000000000000000000000000000000000000000000000",
      "type": "0x2",
      "transactionHash": "0x6ec92222274a4865186064ab4f26907e0a45787a91b05f8312ec206e74b07c81",
      "transactionIndex": "0x60",
      "blockHash": "0x3031330f872e3b1579677127a8360922c8e123f60db699979e059dc4d75227b1",
      "blockNumber": "0x9faf76",
      "gasUsed": "0x68f4",
      "effectiveGasPrice": "0xf4249",
      "from": "0x4176498bd638e319bb845a97b424efac83f87921",
      "to": "0x686a70a784f39a230959bcc19f85dd09e5d6e01b",
      "contractAddress": null
    },
    {
      "status": "0x1",
      "cumulativeGasUsed": "0x8bce31",
      "logs": [
        {
          "address": "0x47574b282f9468c3f0a8da7e48a6ce399c7dfaef",
          "topics": [
            "0xddf252ad1be2c89b69c2b068fc378daa952ba7f163c4a11628f55a4df523b3ef",
            "0x000000000000000000000000cbdae57cd2722fb8e292a876bfc641d8c7faa887",
            "0x000000000000000000000000dfa038e4f3b4e3ed2289e1f999839754d91a4ec4"
          ],
          "data": "0x000000000000000000000000000000000000000000000000000aa4426c1f8e7d",
          "blockHash": "0x2cc20b6da7d727937020bc94d54e29247e7e6565750b387aa9fb4fc1c1172720",
          "blockNumber": "0x9faf77",
          "blockTimestamp": "0x69b995f8",
          "transactionHash": "0x7a11528dae473d2c0d1d9c0ac9707aabf43a5d46555d3faf5e6a215c40bc8d96",
          "transactionIndex": "0x36",
          "logIndex": "0x5b",
          "removed": false
        },
        {
          "address": "0x686a70a784f39a230959bcc19f85dd09e5d6e01b",
          "topics": [
            "0xddf252ad1be2c89b69c2b068fc378daa952ba7f163c4a11628f55a4df523b3ef",
            "0x000000000000000000000000cbdae57cd2722fb8e292a876bfc641d8c7faa887",
            "0x000000000000000000000000dfa038e4f3b4e3ed2289e1f999839754d91a4ec4"
          ],
          "data": "0x000000000000000000000000000000000000000000000000000aa4426c1f8e7d",
          "blockHash": "0x2cc20b6da7d727937020bc94d54e29247e7e6565750b387aa9fb4fc1c1172720",
          "blockNumber": "0x9faf77",
          "blockTimestamp": "0x69b995f8",
          "transactionHash": "0x7a11528dae473d2c0d1d9c0ac9707aabf43a5d46555d3faf5e6a215c40bc8d96",
          "transactionIndex": "0x36",
          "logIndex": "0x5c",
          "removed": false
        },
        {
          "address": "0xdfa038e4f3b4e3ed2289e1f999839754d91a4ec4",
          "topics": [
            "0x7a53080ba414158be7ec69b987b5fb7d07dee101fe85488f0853ae16239d0bde",
            "0x000000000000000000000000cbdae57cd2722fb8e292a876bfc641d8c7faa887",
            "0xffffffffffffffffffffffffffffffffffffffffffffffffffffffffffffffc4",
            "0x000000000000000000000000000000000000000000000000000000000000003c"
          ],
          "data": "0x0000000000000000000000001284e9d71a87276d05abd860bd9990dce9dd721e0000000000000000000000000000000000000000000000000de0b6b3a7640000000000000000000000000000000000000000000000000000000aa4426c1f8e7d000000000000000000000000000000000000000000000000000aa4426c1f8e7d",
          "blockHash": "0x2cc20b6da7d727937020bc94d54e29247e7e6565750b387aa9fb4fc1c1172720",
          "blockNumber": "0x9faf77",
          "blockTimestamp": "0x69b995f8",
          "transactionHash": "0x7a11528dae473d2c0d1d9c0ac9707aabf43a5d46555d3faf5e6a215c40bc8d96",
          "transactionIndex": "0x36",
          "logIndex": "0x5d",
          "removed": false
        }
      ],
      "logsBloom": "0x00000002000000000000100000040000000000000002000000000000000020010000000000000800080010000000000000000000000000000000000400000000000000000040000000000008000080000000000000000001000000000000000000000000000000000000004000000000000000000000000000000010000000000000000008000000000000000000000000000000000000000000000000000008000000000000000000000010000000000000000000080000000000000000000000000002800000000000080000000000000000000000000000000000000000000000000000000010000000000000080000002080000000000000000000000000",
      "type": "0x2",
      "transactionHash": "0x7a11528dae473d2c0d1d9c0ac9707aabf43a5d46555d3faf5e6a215c40bc8d96",
      "transactionIndex": "0x36",
      "blockHash": "0x2cc20b6da7d727937020bc94d54e29247e7e6565750b387aa9fb4fc1c1172720",
      "blockNumber": "0x9faf77",
      "gasUsed": "0x5318c",
      "effectiveGasPrice": "0xf4249",
      "from": "0xcbdae57cd2722fb8e292a876bfc641d8c7faa887",
      "to": "0x1284e9d71a87276d05abd860bd9990dce9dd721e",
      "contractAddress": null
    },
    {
      "status": "0x1",
      "cumulativeGasUsed": "0x6ddbc5",
      "logs": [
        {
          "address": "0x47574b282f9468c3f0a8da7e48a6ce399c7dfaef",
          "topics": [
            "0xddf252ad1be2c89b69c2b068fc378daa952ba7f163c4a11628f55a4df523b3ef",
            "0x000000000000000000000000787290318224efe3ef93814deba2ba0a841ea1b2",
            "0x000000000000000000000000dfa038e4f3b4e3ed2289e1f999839754d91a4ec4"
          ],
          "data": "0x00000000000000000000000000000000000000000000000000154884d83f1cfa",
          "blockHash": "0x35bf7e5e8572c93c2c623d5dd9f3076d10f50c922b39c844bc0ce4a3d0da0b98",
          "blockNumber": "0x9faf78",
          "blockTimestamp": "0x69b99604",
          "transactionHash": "0x15cdb8da2aa26a49d8d0ec2426c38f848375c9c5a0d9752d102aea8c3599728d",
          "transactionIndex": "0x41",
          "logIndex": "0x7d",
          "removed": false
        },
        {
          "address": "0x686a70a784f39a230959bcc19f85dd09e5d6e01b",
          "topics": [
            "0xddf252ad1be2c89b69c2b068fc378daa952ba7f163c4a11628f55a4df523b3ef",
            "0x000000000000000000000000787290318224efe3ef93814deba2ba0a841ea1b2",
            "0x000000000000000000000000dfa038e4f3b4e3ed2289e1f999839754d91a4ec4"
          ],
          "data": "0x00000000000000000000000000000000000000000000000000154884d83f1cfa",
          "blockHash": "0x35bf7e5e8572c93c2c623d5dd9f3076d10f50c922b39c844bc0ce4a3d0da0b98",
          "blockNumber": "0x9faf78",
          "blockTimestamp": "0x69b99604",
          "transactionHash": "0x15cdb8da2aa26a49d8d0ec2426c38f848375c9c5a0d9752d102aea8c3599728d",
          "transactionIndex": "0x41",
          "logIndex": "0x7e",
          "removed": false
        },
        {
          "address": "0xdfa038e4f3b4e3ed2289e1f999839754d91a4ec4",
          "topics": [
            "0x7a53080ba414158be7ec69b987b5fb7d07dee101fe85488f0853ae16239d0bde",
            "0x000000000000000000000000787290318224efe3ef93814deba2ba0a841ea1b2",
            "0xffffffffffffffffffffffffffffffffffffffffffffffffffffffffffffffc4",
            "0x000000000000000000000000000000000000000000000000000000000000003c"
          ],
          "data": "0x0000000000000000000000001284e9d71a87276d05abd860bd9990dce9dd721e0000000000000000000000000000000000000000000000001bc16d674ec8000000000000000000000000000000000000000000000000000000154884d83f1cfa00000000000000000000000000000000000000000000000000154884d83f1cfa",
          "blockHash": "0x35bf7e5e8572c93c2c623d5dd9f3076d10f50c922b39c844bc0ce4a3d0da0b98",
          "blockNumber": "0x9faf78",
          "blockTimestamp": "0x69b99604",
          "transactionHash": "0x15cdb8da2aa26a49d8d0ec2426c38f848375c9c5a0d9752d102aea8c3599728d",
          "transactionIndex": "0x41",
          "logIndex": "0x7f",
          "removed": false
        }
      ],
      "logsBloom": "0x00000002000000000000100000040000000000000002000000000000000020000000000000002800080010000000000000000000000000000000000400400000000000000040000000000008000080000000000000000001000000000000000000000000000000000000004000000000000000000000000000000010000000000000000008000000000000000000000000000000000000000000000000000000000000000000000000000010000000000000008000080000000000000000000000000002800000000000080000000000000000000000000000000000000000000000000000000000000000000000080000002080000000000000000000000000",
      "type": "0x2",
      "transactionHash": "0x15cdb8da2aa26a49d8d0ec2426c38f848375c9c5a0d9752d102aea8c3599728d",
      "transactionIndex": "0x41",
      "blockHash": "0x35bf7e5e8572c93c2c623d5dd9f3076d10f50c922b39c844bc0ce4a3d0da0b98",
      "blockNumber": "0x9faf78",
      "gasUsed": "0x283fa",
      "effectiveGasPrice": "0xf4249",
      "from": "0x787290318224efe3ef93814deba2ba0a841ea1b2",
      "to": "0x1284e9d71a87276d05abd860bd9990dce9dd721e",
      "contractAddress": null
    },
    {
      "status": "0x1",
      "cumulativeGasUsed": "0x8fa362",
      "logs": [
        {
          "address": "0x686a70a784f39a230959bcc19f85dd09e5d6e01b",
          "topics": [
            "0xddf252ad1be2c89b69c2b068fc378daa952ba7f163c4a11628f55a4df523b3ef",
            "0x000000000000000000000000dfa038e4f3b4e3ed2289e1f999839754d91a4ec4",
            "0x0000000000000000000000004176498bd638e319bb845a97b424efac83f87921"
          ],
          "data": "0x0000000000000000000000000000000000000000000000000000000000000062",
          "blockHash": "0x55471b0f5f537bcbdf163c2dcb08bf4c159707bc78e0d3d17f6a63d115d7097a",
          "blockNumber": "0x9faf79",
          "blockTimestamp": "0x69b99610",
          "transactionHash": "0xfdb05cbf85693654840711c51ff6bd63ab2bfa53900db8ddf3ae21e4ae84019d",
          "transactionIndex": "0x4c",
          "logIndex": "0x8d",
          "removed": false
        },
        {
          "address": "0x47574b282f9468c3f0a8da7e48a6ce399c7dfaef",
          "topics": [
            "0xddf252ad1be2c89b69c2b068fc378daa952ba7f163c4a11628f55a4df523b3ef",
            "0x0000000000000000000000004176498bd638e319bb845a97b424efac83f87921",
            "0x000000000000000000000000dfa038e4f3b4e3ed2289e1f999839754d91a4ec4"
          ],
          "data": "0x0000000000000000000000000000000000000000000000000000000000000064",
          "blockHash": "0x55471b0f5f537bcbdf163c2dcb08bf4c159707bc78e0d3d17f6a63d115d7097a",
          "blockNumber": "0x9faf79",
          "blockTimestamp": "0x69b99610",
          "transactionHash": "0xfdb05cbf85693654840711c51ff6bd63ab2bfa53900db8ddf3ae21e4ae84019d",
          "transactionIndex": "0x4c",
          "logIndex": "0x8e",
          "removed": false
        },
        {
          "address": "0xdfa038e4f3b4e3ed2289e1f999839754d91a4ec4",
          "topics": [
            "0xc42079f94a6350d7e6235f29174924f928cc2ac818eb64fed8004e115fbcca67",
            "0x0000000000000000000000001284e9d71a87276d05abd860bd9990dce9dd721e",
            "0x0000000000000000000000004176498bd638e319bb845a97b424efac83f87921"
          ],
          "data": "0x0000000000000000000000000000000000000000000000000000000000000064ffffffffffffffffffffffffffffffffffffffffffffffffffffffffffffff9e0000000000000000000000000000000000000000fffffffffffffd9f41e7f3e600000000000000000000000000000000000000000000000029a2241af62c0000ffffffffffffffffffffffffffffffffffffffffffffffffffffffffffffffff",
          "blockHash": "0x55471b0f5f537bcbdf163c2dcb08bf4c159707bc78e0d3d17f6a63d115d7097a",
          "blockNumber": "0x9faf79",
          "blockTimestamp": "0x69b99610",
          "transactionHash": "0xfdb05cbf85693654840711c51ff6bd63ab2bfa53900db8ddf3ae21e4ae84019d",
          "transactionIndex": "0x4c",
          "logIndex": "0x8f",
          "removed": false
        }
      ],
      "logsBloom": "0x00000002000000000000000000000000000000000002000000000000000000000000000000000000000010000000000000000000000020000000000400000000000000000040000800000008000000000400000000000001000000000000000000000000000000000000004000000000000000000000000000000010000800000000000000000000000000000000000000000000000000000000400000000000000000000000000000000010000000000800000000080000000000000000000000000002800000000000000000000000000000000000000008000000000402000000000000000000000000000000080000002000000000000000000000000000",
      "type": "0x2",
      "transactionHash": "0xfdb05cbf85693654840711c51ff6bd63ab2bfa53900db8ddf3ae21e4ae84019d",
      "transactionIndex": "0x4c",
      "blockHash": "0x55471b0f5f537bcbdf163c2dcb08bf4c159707bc78e0d3d17f6a63d115d7097a",
      "blockNumber": "0x9faf79",
      "gasUsed": "0x21398",
      "effectiveGasPrice": "0xf4249",
      "from": "0x4176498bd638e319bb845a97b424efac83f87921",
      "to": "0x1284e9d71a87276d05abd860bd9990dce9dd721e",
      "contractAddress": null
    },
    {
      "status": "0x1",
      "cumulativeGasUsed": "0x7d3087",
      "logs": [
        {
          "address": "0xdfa038e4f3b4e3ed2289e1f999839754d91a4ec4",
          "topics": [
            "0x0c396cd989a39f4459b5fa1aed6a9a8dcdbc45908acfd67e028cd568da98982c",
            "0x000000000000000000000000787290318224efe3ef93814deba2ba0a841ea1b2",
            "0xffffffffffffffffffffffffffffffffffffffffffffffffffffffffffffffc4",
            "0x000000000000000000000000000000000000000000000000000000000000003c"
          ],
          "data": "0x000000000000000000000000000000000000000000000000000000000000000000000000000000000000000000000000000000000000000000000000000000000000000000000000000000000000000000000000000000000000000000000000",
          "blockHash": "0xd07f07fa1448742e13c41f5ebb0ad508b000d223f576fa71236c3554e9782563",
          "blockNumber": "0x9faf7a",
          "blockTimestamp": "0x69b9961c",
          "transactionHash": "0x46395df34657d9d51c4bd492ac75a445a8b360b8fcb105ab107bf4e6cb69df16",
          "transactionIndex": "0x4a",
          "logIndex": "0x9e",
          "removed": false
        }
      ],
      "logsBloom": "0x00000000000000000000000000040000000000000000000000000000000020000000000000002800080000000000000000000000000000000200000400400000000000000000000000000000000080000000000000000000000000000000000000000000000000000000004000000000000000000004000000000000000000000000000000000000000000000000000000000000000000000000000000000000000000000000000000000010000000000000008000000000000000000000000000000000000000000000000000000000000000000000000000000000000000000000080000000000000000000000000000000080000000000000000000000000",
      "type": "0x2",
      "transactionHash": "0x46395df34657d9d51c4bd492ac75a445a8b360b8fcb105ab107bf4e6cb69df16",
      "transactionIndex": "0x4a",
      "blockHash": "0xd07f07fa1448742e13c41f5ebb0ad508b000d223f576fa71236c3554e9782563",
      "blockNumber": "0x9faf7a",
      "gasUsed": "0x118da",
      "effectiveGasPrice": "0xf4249",
      "from": "0x787290318224efe3ef93814deba2ba0a841ea1b2",
      "to": "0xdfa038e4f3b4e3ed2289e1f999839754d91a4ec4",
      "contractAddress": null
    },
    {
      "status": "0x1",
      "cumulativeGasUsed": "0xb417cf",
      "logs": [
        {
          "address": "0xdfa038e4f3b4e3ed2289e1f999839754d91a4ec4",
          "topics": [
            "0x70935338e69775456a85ddef226c395fb668b63fa0115f5f20610b388e6ca9c0",
            "0x000000000000000000000000787290318224efe3ef93814deba2ba0a841ea1b2",
            "0xffffffffffffffffffffffffffffffffffffffffffffffffffffffffffffffc4",
            "0x000000000000000000000000000000000000000000000000000000000000003c"
          ],
          "data": "0x000000000000000000000000787290318224efe3ef93814deba2ba0a841ea1b200000000000000000000000000000000000000000000000000000000000000000000000000000000000000000000000000000000000000000000000000000000",
          "blockHash": "0x3adc584edc71125bcebae853baa68d4b0a3105aa457d8c94b770095e4c93b30f",
          "blockNumber": "0x9faf7b",
          "blockTimestamp": "0x69b99628",
          "transactionHash": "0x7cf90f707d8a6f8c0a89184fa5cd074c11368938c03e24825f53145a9fc9a252",
          "transactionIndex": "0x49",
          "logIndex": "0x92",
          "removed": false
        }
      ],
      "logsBloom": "0x00000000000000000000000002040000000000000000000000000000000020000000000000002800080000000000000000000000000000000000000400400000000000000000000000000000000080000000000000000000000000000000000000000000000000000000004000000000000000000000000000000000000000000000000000000000000000000000000000008000000000000000000000000000000000000000000000000010000000000000008000000000000000000000000000000000000000000000000000000000000000000000000000000000000000000000000000040000000000000000000000000080000000000000000000000000",
      "type": "0x2",
      "transactionHash": "0x7cf90f707d8a6f8c0a89184fa5cd074c11368938c03e24825f53145a9fc9a252",
      "transactionIndex": "0x49",
      "blockHash": "0x3adc584edc71125bcebae853baa68d4b0a3105aa457d8c94b770095e4c93b30f",
      "blockNumber": "0x9faf7b",
      "gasUsed": "0x7bdd",
      "effectiveGasPrice": "0xf4249",
      "from": "0x787290318224efe3ef93814deba2ba0a841ea1b2",
      "to": "0xdfa038e4f3b4e3ed2289e1f999839754d91a4ec4",
      "contractAddress": null
    },
    {
      "status": "0x1",
      "cumulativeGasUsed": "0xf48ee4",
      "logs": [
        {
          "address": "0xdfa038e4f3b4e3ed2289e1f999839754d91a4ec4",
          "topics": [
            "0x0c396cd989a39f4459b5fa1aed6a9a8dcdbc45908acfd67e028cd568da98982c",
            "0x000000000000000000000000787290318224efe3ef93814deba2ba0a841ea1b2",
            "0xffffffffffffffffffffffffffffffffffffffffffffffffffffffffffffffc4",
            "0x000000000000000000000000000000000000000000000000000000000000003c"
          ],
          "data": "0x0000000000000000000000000000000000000000000000001bc16d674ec8000000000000000000000000000000000000000000000000000000154884d83f1d3b00000000000000000000000000000000000000000000000000154884d83f1cb7",
          "blockHash": "0xcce711d3b0f17554cb841ea0b85623ef831c8f9bbdcdea8888aab84620008c36",
          "blockNumber": "0x9faf7c",
          "blockTimestamp": "0x69b99634",
          "transactionHash": "0x828aebd5a6dcf2b60eb0e645e12d2b8e89b5876e0907052d4debf42c25d8a6b8",
          "transactionIndex": "0x53",
          "logIndex": "0xad",
          "removed": false
        }
      ],
      "logsBloom": "0x00000000000000000000000000040000000000000000000000000000000020000000000000002800080000000000000000000000000000000200000400400000000000000000000000000000000080000000000000000000000000000000000000000000000000000000004000000000000000000004000000000000000000000000000000000000000000000000000000000000000000000000000000000000000000000000000000000010000000000000008000000000000000000000000000000000000000000000000000000000000000000000000000000000000000000000080000000000000000000000000000000080000000000000000000000000",
      "type": "0x2",
      "transactionHash": "0x828aebd5a6dcf2b60eb0e645e12d2b8e89b5876e0907052d4debf42c25d8a6b8",
      "transactionIndex": "0x53",
      "blockHash": "0xcce711d3b0f17554cb841ea0b85623ef831c8f9bbdcdea8888aab84620008c36",
      "blockNumber": "0x9faf7c",
      "gasUsed": "0x18657",
      "effectiveGasPrice": "0xf4249",
      "from": "0x787290318224efe3ef93814deba2ba0a841ea1b2",
      "to": "0xdfa038e4f3b4e3ed2289e1f999839754d91a4ec4",
      "contractAddress": null
    },
    {
      "status": "0x1",
      "cumulativeGasUsed": "0x55b62c",
      "logs": [
        {
          "address": "0x47574b282f9468c3f0a8da7e48a6ce399c7dfaef",
          "topics": [
            "0xddf252ad1be2c89b69c2b068fc378daa952ba7f163c4a11628f55a4df523b3ef",
            "0x000000000000000000000000dfa038e4f3b4e3ed2289e1f999839754d91a4ec4",
            "0x000000000000000000000000787290318224efe3ef93814deba2ba0a841ea1b2"
          ],
          "data": "0x00000000000000000000000000000000000000000000000000154884d83f1d3b",
          "blockHash": "0xa98cf887478f724fdbe72268a98122d7ad60378b4da9709928f0febc9acb90cb",
          "blockNumber": "0x9faf7d",
          "blockTimestamp": "0x69b99640",
          "transactionHash": "0xd1c9fd808378c2b82f95f8956b13720a7dfd52288a1bc9f5eb657233ffac9565",
          "transactionIndex": "0x3f",
          "logIndex": "0x61",
          "removed": false
        },
        {
          "address": "0x686a70a784f39a230959bcc19f85dd09e5d6e01b",
          "topics": [
            "0xddf252ad1be2c89b69c2b068fc378daa952ba7f163c4a11628f55a4df523b3ef",
            "0x000000000000000000000000dfa038e4f3b4e3ed2289e1f999839754d91a4ec4",
            "0x000000000000000000000000787290318224efe3ef93814deba2ba0a841ea1b2"
          ],
          "data": "0x00000000000000000000000000000000000000000000000000154884d83f1cb7",
          "blockHash": "0xa98cf887478f724fdbe72268a98122d7ad60378b4da9709928f0febc9acb90cb",
          "blockNumber": "0x9faf7d",
          "blockTimestamp": "0x69b99640",
          "transactionHash": "0xd1c9fd808378c2b82f95f8956b13720a7dfd52288a1bc9f5eb657233ffac9565",
          "transactionIndex": "0x3f",
          "logIndex": "0x62",
          "removed": false
        },
        {
          "address": "0xdfa038e4f3b4e3ed2289e1f999839754d91a4ec4",
          "topics": [
            "0x70935338e69775456a85ddef226c395fb668b63fa0115f5f20610b388e6ca9c0",
            "0x000000000000000000000000787290318224efe3ef93814deba2ba0a841ea1b2",
            "0xffffffffffffffffffffffffffffffffffffffffffffffffffffffffffffffc4",
            "0x000000000000000000000000000000000000000000000000000000000000003c"
          ],
          "data": "0x000000000000000000000000787290318224efe3ef93814deba2ba0a841ea1b200000000000000000000000000000000000000000000000000154884d83f1d3b00000000000000000000000000000000000000000000000000154884d83f1cb7",
          "blockHash": "0xa98cf887478f724fdbe72268a98122d7ad60378b4da9709928f0febc9acb90cb",
          "blockNumber": "0x9faf7d",
          "blockTimestamp": "0x69b99640",
          "transactionHash": "0xd1c9fd808378c2b82f95f8956b13720a7dfd52288a1bc9f5eb657233ffac9565",
          "transactionIndex": "0x3f",
          "logIndex": "0x63",
          "removed": false
        }
      ],
      "logsBloom": "0x00000002000000000000000002040000000000000002000000000000000020000000000000002800080010000000000000000000000000000000000400400000000000000040000000000008000080000000000000000001000000000000000000000000000000000000004000000000000000000000000000000010000000000000000000000000000000000000000000008000000000000000000000000000000000000000000000000010000000000000008000080000000000000000000000000002800000000000000000000000000000000000000000000000000000000000000000040000000000000000080000002080000000000000000000000000",
      "type": "0x2",
      "transactionHash": "0xd1c9fd808378c2b82f95f8956b13720a7dfd52288a1bc9f5eb657233ffac9565",
      "transactionIndex": "0x3f",
      "blockHash": "0xa98cf887478f724fdbe72268a98122d7ad60378b4da9709928f0febc9acb90cb",
      "blockNumber": "0x9faf7d",
      "gasUsed": "0xfe54",
      "effectiveGasPrice": "0xf4249",
      "from": "0x787290318224efe3ef93814deba2ba0a841ea1b2",
      "to": "0xdfa038e4f3b4e3ed2289e1f999839754d91a4ec4",
      "contractAddress": null
    },
    {
      "status": "0x1",
      "cumulativeGasUsed": "0x64187c",
      "logs": [
        {
          "address": "0xdfa038e4f3b4e3ed2289e1f999839754d91a4ec4",
          "topics": [
            "0x0c396cd989a39f4459b5fa1aed6a9a8dcdbc45908acfd67e028cd568da98982c",
            "0x000000000000000000000000cbdae57cd2722fb8e292a876bfc641d8c7faa887",
            "0xffffffffffffffffffffffffffffffffffffffffffffffffffffffffffffffc4",
            "0x000000000000000000000000000000000000000000000000000000000000003c"
          ],
          "data": "0x000000000000000000000000000000000000000000000000000000000000000000000000000000000000000000000000000000000000000000000000000000000000000000000000000000000000000000000000000000000000000000000000",
          "blockHash": "0x70c9af209d1694e1be0224e7cb86f5d40e2d7c22514618a0a1ad1df9c8f1f22e",
          "blockNumber": "0x9faf7e",
          "blockTimestamp": "0x69b9964c",
          "transactionHash": "0xee881924017f6aa68fcf77f79a7b6dee0e680816af74d69ae85a8ba9c2e82d4d",
          "transactionIndex": "0x3a",
          "logIndex": "0x6b",
          "removed": false
        }
      ],
      "logsBloom": "0x00000000000000000000000000040000000000000000000000000000000020010000000000000800080000000000000000000000000000000200000400000000000000000000000000000000000080000000000000000000000000000000000000000000000000000000004000000000000000000004000000000000000000000000000000000000000000000000000000000000000000000000000000000008000000000000000000000010000000000000000000000000000000000000000000000000000000000000000000000000000000000000000000000000000000000000080000000010000000000000000000000080000000000000000000000000",
      "type": "0x2",
      "transactionHash": "0xee881924017f6aa68fcf77f79a7b6dee0e680816af74d69ae85a8ba9c2e82d4d",
      "transactionIndex": "0x3a",
      "blockHash": "0x70c9af209d1694e1be0224e7cb86f5d40e2d7c22514618a0a1ad1df9c8f1f22e",
      "blockNumber": "0x9faf7e",
      "gasUsed": "0x118da",
      "effectiveGasPrice": "0xf4249",
      "from": "0xcbdae57cd2722fb8e292a876bfc641d8c7faa887",
      "to": "0xdfa038e4f3b4e3ed2289e1f999839754d91a4ec4",
      "contractAddress": null
    },
    {
      "status": "0x1",
      "cumulativeGasUsed": "0xac93fd",
      "logs": [
        {
          "address": "0xdfa038e4f3b4e3ed2289e1f999839754d91a4ec4",
          "topics": [
            "0x70935338e69775456a85ddef226c395fb668b63fa0115f5f20610b388e6ca9c0",
            "0x000000000000000000000000cbdae57cd2722fb8e292a876bfc641d8c7faa887",
            "0xffffffffffffffffffffffffffffffffffffffffffffffffffffffffffffffc4",
            "0x000000000000000000000000000000000000000000000000000000000000003c"
          ],
          "data": "0x000000000000000000000000cbdae57cd2722fb8e292a876bfc641d8c7faa88700000000000000000000000000000000000000000000000000000000000000000000000000000000000000000000000000000000000000000000000000000000",
          "blockHash": "0x74b7cb93822cccd3458e2c6b4cbc50e2644bfd755ceb2359d1aea74ff8cf0503",
          "blockNumber": "0x9faf7f",
          "blockTimestamp": "0x69b99658",
          "transactionHash": "0x5561c26b764a073c44dfdc4904487dc56ac8c7568e0de3d428f8f41d79bd0811",
          "transactionIndex": "0x3b",
          "logIndex": "0x60",
          "removed": false
        }
      ],
      "logsBloom": "0x00000000000000000000000002040000000000000000000000000000000020010000000000000800080000000000000000000000000000000000000400000000000000000000000000000000000080000000000000000000000000000000000000000000000000000000004000000000000000000000000000000000000000000000000000000000000000000000000000008000000000000000000000000008000000000000000000000010000000000000000000000000000000000000000000000000000000000000000000000000000000000000000000000000000000000000000000040010000000000000000000000080000000000000000000000000",
      "type": "0x2",
      "transactionHash": "0x5561c26b764a073c44dfdc4904487dc56ac8c7568e0de3d428f8f41d79bd0811",
      "transactionIndex": "0x3b",
      "blockHash": "0x74b7cb93822cccd3458e2c6b4cbc50e2644bfd755ceb2359d1aea74ff8cf0503",
      "blockNumber": "0x9faf7f",
      "gasUsed": "0x7bdd",
      "effectiveGasPrice": "0xf4249",
      "from": "0xcbdae57cd2722fb8e292a876bfc641d8c7faa887",
      "to": "0xdfa038e4f3b4e3ed2289e1f999839754d91a4ec4",
      "contractAddress": null
    },
    {
      "status": "0x1",
      "cumulativeGasUsed": "0x6ead9d",
      "logs": [
        {
          "address": "0xdfa038e4f3b4e3ed2289e1f999839754d91a4ec4",
          "topics": [
            "0x0c396cd989a39f4459b5fa1aed6a9a8dcdbc45908acfd67e028cd568da98982c",
            "0x000000000000000000000000cbdae57cd2722fb8e292a876bfc641d8c7faa887",
            "0xffffffffffffffffffffffffffffffffffffffffffffffffffffffffffffffc4",
            "0x000000000000000000000000000000000000000000000000000000000000003c"
          ],
          "data": "0x0000000000000000000000000000000000000000000000000de0b6b3a7640000000000000000000000000000000000000000000000000000000aa4426c1f8e9d000000000000000000000000000000000000000000000000000aa4426c1f8e5b",
          "blockHash": "0x606a161b04afe425f99d9be3e6189bf6a2adc704607fa4f4c27bb841985b2328",
          "blockNumber": "0x9faf80",
          "blockTimestamp": "0x69b99664",
          "transactionHash": "0x8cfbdc239bf752b7e503d3fb7eb8057f76f6e302af3069924da9784d7d9930b4",
          "transactionIndex": "0x3d",
          "logIndex": "0x69",
          "removed": false
        }
      ],
      "logsBloom": "0x00000000000000000000000000040000000000000000000000000000000020010000000000000800080000000000000000000000000000000200000400000000000000000000000000000000000080000000000000000000000000000000000000000000000000000000004000000000000000000004000000000000000000000000000000000000000000000000000000000000000000000000000000000008000000000000000000000010000000000000000000000000000000000000000000000000000000000000000000000000000000000000000000000000000000000000080000000010000000000000000000000080000000000000000000000000",
      "type": "0x2",
      "transactionHash": "0x8cfbdc239bf752b7e503d3fb7eb8057f76f6e302af3069924da9784d7d9930b4",
      "transactionIndex": "0x3d",
      "blockHash": "0x606a161b04afe425f99d9be3e6189bf6a2adc704607fa4f4c27bb841985b2328",
      "blockNumber": "0x9faf80",
      "gasUsed": "0x193bb",
      "effectiveGasPrice": "0xf4249",
      "from": "0xcbdae57cd2722fb8e292a876bfc641d8c7faa887",
      "to": "0xdfa038e4f3b4e3ed2289e1f999839754d91a4ec4",
      "contractAddress": null
    },
    {
      "status": "0x1",
      "cumulativeGasUsed": "0x9004cc",
      "logs": [
        {
          "address": "0x47574b282f9468c3f0a8da7e48a6ce399c7dfaef",
          "topics": [
            "0xddf252ad1be2c89b69c2b068fc378daa952ba7f163c4a11628f55a4df523b3ef",
            "0x000000000000000000000000dfa038e4f3b4e3ed2289e1f999839754d91a4ec4",
            "0x000000000000000000000000cbdae57cd2722fb8e292a876bfc641d8c7faa887"
          ],
          "data": "0x000000000000000000000000000000000000000000000000000aa4426c1f8e9d",
          "blockHash": "0x517c794a41c0812231e54fd3a4e67abaf76779d6f86f6f4f0bd3e7730999d4d9",
          "blockNumber": "0x9faf82",
          "blockTimestamp": "0x69b9967c",
          "transactionHash": "0x4f40bd7542f0350ff178abce54f9ee9b145ffe7c004f6a7f6fd25fd321aa407e",
          "transactionIndex": "0x58",
          "logIndex": "0xc7",
          "removed": false
        },
        {
          "address": "0x686a70a784f39a230959bcc19f85dd09e5d6e01b",
          "topics": [
            "0xddf252ad1be2c89b69c2b068fc378daa952ba7f163c4a11628f55a4df523b3ef",
            "0x000000000000000000000000dfa038e4f3b4e3ed2289e1f999839754d91a4ec4",
            "0x000000000000000000000000cbdae57cd2722fb8e292a876bfc641d8c7faa887"
          ],
          "data": "0x000000000000000000000000000000000000000000000000000aa4426c1f8e5b",
          "blockHash": "0x517c794a41c0812231e54fd3a4e67abaf76779d6f86f6f4f0bd3e7730999d4d9",
          "blockNumber": "0x9faf82",
          "blockTimestamp": "0x69b9967c",
          "transactionHash": "0x4f40bd7542f0350ff178abce54f9ee9b145ffe7c004f6a7f6fd25fd321aa407e",
          "transactionIndex": "0x58",
          "logIndex": "0xc8",
          "removed": false
        },
        {
          "address": "0xdfa038e4f3b4e3ed2289e1f999839754d91a4ec4",
          "topics": [
            "0x70935338e69775456a85ddef226c395fb668b63fa0115f5f20610b388e6ca9c0",
            "0x000000000000000000000000cbdae57cd2722fb8e292a876bfc641d8c7faa887",
            "0xffffffffffffffffffffffffffffffffffffffffffffffffffffffffffffffc4",
            "0x000000000000000000000000000000000000000000000000000000000000003c"
          ],
          "data": "0x000000000000000000000000cbdae57cd2722fb8e292a876bfc641d8c7faa887000000000000000000000000000000000000000000000000000aa4426c1f8e9d000000000000000000000000000000000000000000000000000aa4426c1f8e5b",
          "blockHash": "0x517c794a41c0812231e54fd3a4e67abaf76779d6f86f6f4f0bd3e7730999d4d9",
          "blockNumber": "0x9faf82",
          "blockTimestamp": "0x69b9967c",
          "transactionHash": "0x4f40bd7542f0350ff178abce54f9ee9b145ffe7c004f6a7f6fd25fd321aa407e",
          "transactionIndex": "0x58",
          "logIndex": "0xc9",
          "removed": false
        }
      ],
      "logsBloom": "0x00000002000000000000000002040000000000000002000000000000000020010000000000000800080010000000000000000000000000000000000400000000000000000040000000000008000080000000000000000001000000000000000000000000000000000000004000000000000000000000000000000010000000000000000000000000000000000000000000008000000000000000000000000008000000000000000000000010000000000000000000080000000000000000000000000002800000000000000000000000000000000000000000000000000000000000000000040010000000000000080000002080000000000000000000000000",
      "type": "0x2",
      "transactionHash": "0x4f40bd7542f0350ff178abce54f9ee9b145ffe7c004f6a7f6fd25fd321aa407e",
      "transactionIndex": "0x58",
      "blockHash": "0x517c794a41c0812231e54fd3a4e67abaf76779d6f86f6f4f0bd3e7730999d4d9",
      "blockNumber": "0x9faf82",
      "gasUsed": "0xfe6a",
      "effectiveGasPrice": "0xf4248",
      "from": "0xcbdae57cd2722fb8e292a876bfc641d8c7faa887",
      "to": "0xdfa038e4f3b4e3ed2289e1f999839754d91a4ec4",
      "contractAddress": null
    }
  ],
  "libraries": [],
  "pending": [],
  "returns": {},
  "timestamp": 1773770364729,
  "chain": 11155111,
  "commit": "b56f8fa"
}